{
  "contractName": "SpatialAssets",
  "abi": [
    {
      "inputs": [
        {
          "internalType": "string",
          "name": "uri",
          "type": "string"
        }
      ],
      "stateMutability": "nonpayable",
      "type": "constructor"
    },
    {
      "anonymous": false,
      "inputs": [
        {
          "indexed": true,
          "internalType": "uint256",
          "name": "cid",
          "type": "uint256"
        },
        {
          "indexed": true,
          "internalType": "uint256",
          "name": "childrenGeoDIDId",
          "type": "uint256"
        }
      ],
      "name": "ChildrenAdded",
      "type": "event"
    },
    {
      "anonymous": false,
      "inputs": [
        {
          "indexed": true,
          "internalType": "uint256",
          "name": "cid",
          "type": "uint256"
        },
        {
          "indexed": true,
          "internalType": "uint256",
          "name": "childrenGeoDIDId",
          "type": "uint256"
        }
      ],
      "name": "ChildrenRemoved",
      "type": "event"
    },
    {
      "anonymous": false,
      "inputs": [
        {
          "indexed": true,
          "internalType": "uint256",
          "name": "cid",
          "type": "uint256"
        },
        {
          "indexed": true,
          "internalType": "uint256",
          "name": "parentGeoDIDId",
          "type": "uint256"
        }
      ],
      "name": "ParentAdded",
      "type": "event"
    },
    {
      "anonymous": false,
      "inputs": [
        {
          "indexed": true,
          "internalType": "uint256",
          "name": "cid",
          "type": "uint256"
        },
        {
          "indexed": true,
          "internalType": "uint256",
          "name": "parentGeoDIDId",
          "type": "uint256"
        }
      ],
      "name": "ParentRemoved",
      "type": "event"
    },
    {
      "anonymous": false,
      "inputs": [
        {
          "indexed": true,
          "internalType": "bytes32",
          "name": "role",
          "type": "bytes32"
        },
        {
          "indexed": true,
          "internalType": "bytes32",
          "name": "previousAdminRole",
          "type": "bytes32"
        },
        {
          "indexed": true,
          "internalType": "bytes32",
          "name": "newAdminRole",
          "type": "bytes32"
        }
      ],
      "name": "RoleAdminChanged",
      "type": "event"
    },
    {
      "anonymous": false,
      "inputs": [
        {
          "indexed": true,
          "internalType": "bytes32",
          "name": "role",
          "type": "bytes32"
        },
        {
          "indexed": true,
          "internalType": "address",
          "name": "account",
          "type": "address"
        },
        {
          "indexed": true,
          "internalType": "address",
          "name": "sender",
          "type": "address"
        }
      ],
      "name": "RoleGranted",
      "type": "event"
    },
    {
      "anonymous": false,
      "inputs": [
        {
          "indexed": true,
          "internalType": "bytes32",
          "name": "role",
          "type": "bytes32"
        },
        {
          "indexed": true,
          "internalType": "address",
          "name": "account",
          "type": "address"
        },
        {
          "indexed": true,
          "internalType": "address",
          "name": "sender",
          "type": "address"
        }
      ],
      "name": "RoleRevoked",
      "type": "event"
    },
    {
      "anonymous": false,
      "inputs": [
        {
          "indexed": true,
          "internalType": "uint256",
          "name": "id",
          "type": "uint256"
        }
      ],
      "name": "SpatialAssetDeactivated",
      "type": "event"
    },
    {
      "anonymous": false,
      "inputs": [
        {
          "indexed": true,
          "internalType": "address",
          "name": "to",
          "type": "address"
        },
        {
          "indexed": true,
          "internalType": "uint256",
          "name": "geoDIDId",
          "type": "uint256"
        },
        {
          "indexed": true,
          "internalType": "uint256",
          "name": "cid",
          "type": "uint256"
        },
        {
          "indexed": false,
          "internalType": "bytes32",
          "name": "offChainStorage",
          "type": "bytes32"
        }
      ],
      "name": "SpatialAssetRegistered",
      "type": "event"
    },
    {
      "inputs": [],
      "name": "DATA_SUPPLIER",
      "outputs": [
        {
          "internalType": "bytes32",
          "name": "",
          "type": "bytes32"
        }
      ],
      "stateMutability": "view",
      "type": "function",
      "constant": true
    },
    {
      "inputs": [],
      "name": "DEFAULT_ADMIN_ROLE",
      "outputs": [
        {
          "internalType": "bytes32",
          "name": "",
          "type": "bytes32"
        }
      ],
      "stateMutability": "view",
      "type": "function",
      "constant": true
    },
    {
      "inputs": [
        {
          "internalType": "bytes32",
          "name": "role",
          "type": "bytes32"
        }
      ],
      "name": "getRoleAdmin",
      "outputs": [
        {
          "internalType": "bytes32",
          "name": "",
          "type": "bytes32"
        }
      ],
      "stateMutability": "view",
      "type": "function",
      "constant": true
    },
    {
      "inputs": [
        {
          "internalType": "bytes32",
          "name": "role",
          "type": "bytes32"
        },
        {
          "internalType": "uint256",
          "name": "index",
          "type": "uint256"
        }
      ],
      "name": "getRoleMember",
      "outputs": [
        {
          "internalType": "address",
          "name": "",
          "type": "address"
        }
      ],
      "stateMutability": "view",
      "type": "function",
      "constant": true
    },
    {
      "inputs": [
        {
          "internalType": "bytes32",
          "name": "role",
          "type": "bytes32"
        }
      ],
      "name": "getRoleMemberCount",
      "outputs": [
        {
          "internalType": "uint256",
          "name": "",
          "type": "uint256"
        }
      ],
      "stateMutability": "view",
      "type": "function",
      "constant": true
    },
    {
      "inputs": [
        {
          "internalType": "bytes32",
          "name": "role",
          "type": "bytes32"
        },
        {
          "internalType": "address",
          "name": "account",
          "type": "address"
        }
      ],
      "name": "grantRole",
      "outputs": [],
      "stateMutability": "nonpayable",
      "type": "function"
    },
    {
      "inputs": [
        {
          "internalType": "bytes32",
          "name": "role",
          "type": "bytes32"
        },
        {
          "internalType": "address",
          "name": "account",
          "type": "address"
        }
      ],
      "name": "hasRole",
      "outputs": [
        {
          "internalType": "bool",
          "name": "",
          "type": "bool"
        }
      ],
      "stateMutability": "view",
      "type": "function",
      "constant": true
    },
    {
      "inputs": [
        {
          "internalType": "bytes32",
          "name": "role",
          "type": "bytes32"
        },
        {
          "internalType": "address",
          "name": "account",
          "type": "address"
        }
      ],
      "name": "renounceRole",
      "outputs": [],
      "stateMutability": "nonpayable",
      "type": "function"
    },
    {
      "inputs": [
        {
          "internalType": "bytes32",
          "name": "role",
          "type": "bytes32"
        },
        {
          "internalType": "address",
          "name": "account",
          "type": "address"
        }
      ],
      "name": "revokeRole",
      "outputs": [],
      "stateMutability": "nonpayable",
      "type": "function"
    },
    {
      "inputs": [],
      "name": "registerRole",
      "outputs": [],
      "stateMutability": "nonpayable",
      "type": "function"
    },
    {
      "inputs": [
        {
          "internalType": "bytes32",
          "name": "offChainStorage",
          "type": "bytes32"
        }
      ],
      "name": "enableStorage",
      "outputs": [],
      "stateMutability": "nonpayable",
      "type": "function"
    },
    {
      "inputs": [
        {
          "internalType": "bytes32",
          "name": "offChainStorage",
          "type": "bytes32"
        }
      ],
      "name": "disableStorage",
      "outputs": [],
      "stateMutability": "nonpayable",
      "type": "function"
    },
    {
      "inputs": [
        {
          "internalType": "address",
          "name": "owner",
          "type": "address"
        },
        {
          "internalType": "uint256",
          "name": "geoDIDId",
          "type": "uint256"
        },
        {
          "internalType": "uint256[]",
          "name": "parentGeoDIDIds",
          "type": "uint256[]"
        },
        {
          "internalType": "uint256[]",
          "name": "childrenGeoDIDIds",
          "type": "uint256[]"
        },
        {
          "internalType": "uint256",
          "name": "cid",
          "type": "uint256"
        },
        {
          "internalType": "bytes32",
          "name": "offChainStorage",
          "type": "bytes32"
        }
      ],
      "name": "registerSpatialAsset",
      "outputs": [],
      "stateMutability": "nonpayable",
      "type": "function"
    },
    {
      "inputs": [
        {
          "internalType": "uint256",
          "name": "id",
          "type": "uint256"
        }
      ],
      "name": "deactivateSpatialAsset",
      "outputs": [],
      "stateMutability": "nonpayable",
      "type": "function"
    },
    {
      "inputs": [
        {
          "internalType": "uint256",
          "name": "id",
          "type": "uint256"
        }
      ],
      "name": "idToOwner",
      "outputs": [
        {
          "internalType": "address",
          "name": "",
          "type": "address"
        }
      ],
      "stateMutability": "view",
      "type": "function",
      "constant": true
    },
    {
      "inputs": [
        {
          "internalType": "uint256",
          "name": "id",
          "type": "uint256"
        }
      ],
      "name": "idToExternalStorage",
      "outputs": [
        {
          "internalType": "bytes32",
          "name": "",
          "type": "bytes32"
        }
      ],
      "stateMutability": "view",
      "type": "function",
      "constant": true
    },
    {
      "inputs": [
        {
          "internalType": "bytes32",
          "name": "offChainStorage",
          "type": "bytes32"
        }
      ],
      "name": "allowedStorages",
      "outputs": [
        {
          "internalType": "bool",
          "name": "",
          "type": "bool"
        }
      ],
      "stateMutability": "view",
      "type": "function",
      "constant": true
    },
    {
      "inputs": [],
      "name": "uri",
      "outputs": [
        {
          "internalType": "string",
          "name": "",
          "type": "string"
        }
      ],
      "stateMutability": "view",
      "type": "function",
      "constant": true
    }
  ],
  "bytecode": "0x60806040523480156200001157600080fd5b5060405162001bed38038062001bed833981810160405260208110156200003757600080fd5b81019080805160405193929190846401000000008211156200005857600080fd5b838201915060208201858111156200006f57600080fd5b82518660018202830111640100000000821117156200008d57600080fd5b8083526020830192505050908051906020019080838360005b83811015620000c3578082015181840152602081019050620000a6565b50505050905090810190601f168015620000f15780820380516001836020036101000a031916815260200191505b5060405250505062000109816200017560201b60201c565b6200012d6000801b620001216200019160201b60201c565b6200019960201b60201c565b6200016e7fb90ec3213bc54b34738ca7ad785b7e6275742931f3ddfa147171c27090643f3f620001626200019160201b60201c565b6200019960201b60201c565b50620003cd565b80600190805190602001906200018d92919062000327565b5050565b600033905090565b620001ab8282620001af60201b60201c565b5050565b620001dd816000808581526020019081526020016000206000016200025260201b620011b91790919060201c565b156200024e57620001f36200019160201b60201c565b73ffffffffffffffffffffffffffffffffffffffff168173ffffffffffffffffffffffffffffffffffffffff16837f2f8788117e7eff1d82e926ec794901d17c78024a50270940304540a733656f0d60405160405180910390a45b5050565b600062000282836000018373ffffffffffffffffffffffffffffffffffffffff1660001b6200028a60201b60201c565b905092915050565b60006200029e83836200030460201b60201c565b620002f9578260000182908060018154018082558091505060019003906000526020600020016000909190919091505582600001805490508360010160008481526020019081526020016000208190555060019050620002fe565b600090505b92915050565b600080836001016000848152602001908152602001600020541415905092915050565b828054600181600116156101000203166002900490600052602060002090601f016020900481019282601f106200036a57805160ff19168380011785556200039b565b828001600101855582156200039b579182015b828111156200039a5782518255916020019190600101906200037d565b5b509050620003aa9190620003ae565b5090565b5b80821115620003c9576000816000905550600101620003af565b5090565b61181080620003dd6000396000f3fe608060405234801561001057600080fd5b50600436106101165760003560e01c806391d14854116100a2578063c44e96a011610071578063c44e96a0146105bf578063ca15c873146105c9578063d547741f1461060b578063eac989f814610659578063fd52c0d5146106dc57610116565b806391d14854146104c75780639969879b1461052b578063a217fddf14610549578063bfc206ed1461056757610116565b80635ed120f9116100e95780635ed120f91461038357806365c55755146103b15780636e7a6f4b146103f35780638d0a9bff146104215780639010d07c1461046557610116565b8063248a9ca31461011b5780632f2ff15d1461015d57806336568abe146101ab578063580ae24b146101f9575b600080fd5b6101476004803603602081101561013157600080fd5b810190808035906020019092919050505061070a565b6040518082815260200191505060405180910390f35b6101a96004803603604081101561017357600080fd5b8101908080359060200190929190803573ffffffffffffffffffffffffffffffffffffffff169060200190929190505050610729565b005b6101f7600480360360408110156101c157600080fd5b8101908080359060200190929190803573ffffffffffffffffffffffffffffffffffffffff1690602001909291905050506107b2565b005b610381600480360360c081101561020f57600080fd5b81019080803573ffffffffffffffffffffffffffffffffffffffff169060200190929190803590602001909291908035906020019064010000000081111561025657600080fd5b82018360208201111561026857600080fd5b8035906020019184602083028401116401000000008311171561028a57600080fd5b919080806020026020016040519081016040528093929190818152602001838360200280828437600081840152601f19601f820116905080830192505050505050509192919290803590602001906401000000008111156102ea57600080fd5b8201836020820111156102fc57600080fd5b8035906020019184602083028401116401000000008311171561031e57600080fd5b919080806020026020016040519081016040528093929190818152602001838360200280828437600081840152601f19601f820116905080830192505050505050509192919290803590602001909291908035906020019092919050505061084b565b005b6103af6004803603602081101561039957600080fd5b8101908080359060200190929190505050610b96565b005b6103dd600480360360208110156103c757600080fd5b8101908080359060200190929190505050610cf0565b6040518082815260200191505060405180910390f35b61041f6004803603602081101561040957600080fd5b8101908080359060200190929190505050610d0d565b005b61044d6004803603602081101561043757600080fd5b8101908080359060200190929190505050610e22565b60405180821515815260200191505060405180910390f35b61049b6004803603604081101561047b57600080fd5b810190808035906020019092919080359060200190929190505050610e4c565b604051808273ffffffffffffffffffffffffffffffffffffffff16815260200191505060405180910390f35b610513600480360360408110156104dd57600080fd5b8101908080359060200190929190803573ffffffffffffffffffffffffffffffffffffffff169060200190929190505050610e7d565b60405180821515815260200191505060405180910390f35b610533610eae565b6040518082815260200191505060405180910390f35b610551610ed2565b6040518082815260200191505060405180910390f35b6105936004803603602081101561057d57600080fd5b8101908080359060200190929190505050610ed9565b604051808273ffffffffffffffffffffffffffffffffffffffff16815260200191505060405180910390f35b6105c7610f16565b005b6105f5600480360360208110156105df57600080fd5b8101908080359060200190929190505050610fd0565b6040518082815260200191505060405180910390f35b6106576004803603604081101561062157600080fd5b8101908080359060200190929190803573ffffffffffffffffffffffffffffffffffffffff169060200190929190505050610ff6565b005b61066161107f565b6040518080602001828103825283818151815260200191508051906020019080838360005b838110156106a1578082015181840152602081019050610686565b50505050905090810190601f1680156106ce5780820380516001836020036101000a031916815260200191505b509250505060405180910390f35b610708600480360360208110156106f257600080fd5b8101908080359060200190929190505050611121565b005b6000806000838152602001908152602001600020600201549050919050565b61074f6000808481526020019081526020016000206002015461074a6111e9565b610e7d565b6107a4576040517f08c379a000000000000000000000000000000000000000000000000000000000815260040180806020018281038252602f81526020018061160c602f913960400191505060405180910390fd5b6107ae82826111f1565b5050565b6107ba6111e9565b73ffffffffffffffffffffffffffffffffffffffff168173ffffffffffffffffffffffffffffffffffffffff161461083d576040517f08c379a000000000000000000000000000000000000000000000000000000000815260040180806020018281038252602f8152602001806117ac602f913960400191505060405180910390fd5b6108478282611284565b5050565b61087c7fb90ec3213bc54b34738ca7ad785b7e6275742931f3ddfa147171c27090643f3f6108776111e9565b610e7d565b6108d1576040517f08c379a00000000000000000000000000000000000000000000000000000000081526004018080602001828103825260378152602001806117406037913960400191505060405180910390fd5b6108da81610e22565b61092f576040517f08c379a00000000000000000000000000000000000000000000000000000000081526004018080602001828103825260268152602001806115e66026913960400191505060405180910390fd5b600073ffffffffffffffffffffffffffffffffffffffff166002600087815260200190815260200160002060009054906101000a900473ffffffffffffffffffffffffffffffffffffffff1673ffffffffffffffffffffffffffffffffffffffff16146109e7576040517f08c379a000000000000000000000000000000000000000000000000000000000815260040180806020018281038252602c815260200180611714602c913960400191505060405180910390fd5b816003600087815260200190815260200160002081905550856002600087815260200190815260200160002060006101000a81548173ffffffffffffffffffffffffffffffffffffffff021916908373ffffffffffffffffffffffffffffffffffffffff16021790555080600460008781526020019081526020016000208190555081858773ffffffffffffffffffffffffffffffffffffffff167fab0f458e596764e6af15283b8bc76a316532e1149acd758550d12f9041362f78846040518082815260200191505060405180910390a46000845190506000845190506000821115610b285760005b82811015610b2657868181518110610ae557fe5b6020026020010151857ea67c7413e7cbd6fa0dfd556b6bfb0844428500ee38687ae6c65ecf371df4e260405160405180910390a38080600101915050610ad1565b505b6000811115610b8c5760005b81811015610b8a57858181518110610b4857fe5b6020026020010151857f33974780998cd0a6a121380888197f6af20340bc338905596e0c8819ae461a7b60405160405180910390a38080600101915050610b34565b505b5050505050505050565b610b9e6111e9565b73ffffffffffffffffffffffffffffffffffffffff166002600083815260200190815260200160002060009054906101000a900473ffffffffffffffffffffffffffffffffffffffff1673ffffffffffffffffffffffffffffffffffffffff1614610c54576040517f08c379a00000000000000000000000000000000000000000000000000000000081526004018080602001828103825260378152602001806116dd6037913960400191505060405180910390fd5b60006002600083815260200190815260200160002060006101000a81548173ffffffffffffffffffffffffffffffffffffffff021916908373ffffffffffffffffffffffffffffffffffffffff16021790555060006004600083815260200190815260200160002081905550807fa6cc161f6b65bbf394777cb57fb5f3d43cce56acfa59850ab99594ef35b99aab60405160405180910390a250565b600060046000838152602001908152602001600020549050919050565b610d216000801b610d1c6111e9565b610e7d565b610d76576040517f08c379a000000000000000000000000000000000000000000000000000000000815260040180806020018281038252604581526020018061163b6045913960600191505060405180910390fd5b600015156005600083815260200190815260200160002060009054906101000a900460ff16151514610df3576040517f08c379a000000000000000000000000000000000000000000000000000000000815260040180806020018281038252602d8152602001806116b0602d913960400191505060405180910390fd5b60016005600083815260200190815260200160002060006101000a81548160ff02191690831515021790555050565b60006005600083815260200190815260200160002060009054906101000a900460ff169050919050565b6000610e758260008086815260200190815260200160002060000161131790919063ffffffff16565b905092915050565b6000610ea68260008086815260200190815260200160002060000161133190919063ffffffff16565b905092915050565b7fb90ec3213bc54b34738ca7ad785b7e6275742931f3ddfa147171c27090643f3f81565b6000801b81565b60006002600083815260200190815260200160002060009054906101000a900473ffffffffffffffffffffffffffffffffffffffff169050919050565b610f477fb90ec3213bc54b34738ca7ad785b7e6275742931f3ddfa147171c27090643f3f610f426111e9565b610e7d565b15610f9d576040517f08c379a00000000000000000000000000000000000000000000000000000000081526004018080602001828103825260358152602001806117776035913960400191505060405180910390fd5b610fce7fb90ec3213bc54b34738ca7ad785b7e6275742931f3ddfa147171c27090643f3f610fc96111e9565b611361565b565b6000610fef60008084815260200190815260200160002060000161136f565b9050919050565b61101c600080848152602001908152602001600020600201546110176111e9565b610e7d565b611071576040517f08c379a00000000000000000000000000000000000000000000000000000000081526004018080602001828103825260308152602001806116806030913960400191505060405180910390fd5b61107b8282611284565b5050565b606060018054600181600116156101000203166002900480601f0160208091040260200160405190810160405280929190818152602001828054600181600116156101000203166002900480156111175780601f106110ec57610100808354040283529160200191611117565b820191906000526020600020905b8154815290600101906020018083116110fa57829003601f168201915b5050505050905090565b6111356000801b6111306111e9565b610e7d565b61118a576040517f08c379a000000000000000000000000000000000000000000000000000000000815260040180806020018281038252604581526020018061163b6045913960600191505060405180910390fd5b60006005600083815260200190815260200160002060006101000a81548160ff02191690831515021790555050565b60006111e1836000018373ffffffffffffffffffffffffffffffffffffffff1660001b611384565b905092915050565b600033905090565b611218816000808581526020019081526020016000206000016111b990919063ffffffff16565b15611280576112256111e9565b73ffffffffffffffffffffffffffffffffffffffff168173ffffffffffffffffffffffffffffffffffffffff16837f2f8788117e7eff1d82e926ec794901d17c78024a50270940304540a733656f0d60405160405180910390a45b5050565b6112ab816000808581526020019081526020016000206000016113f490919063ffffffff16565b15611313576112b86111e9565b73ffffffffffffffffffffffffffffffffffffffff168173ffffffffffffffffffffffffffffffffffffffff16837ff6391f5c32d9c69d2a47ea670b442974b53935d1edc7fd64eb21e047a839171b60405160405180910390a45b5050565b60006113268360000183611424565b60001c905092915050565b6000611359836000018373ffffffffffffffffffffffffffffffffffffffff1660001b6114a7565b905092915050565b61136b82826111f1565b5050565b600061137d826000016114ca565b9050919050565b600061139083836114a7565b6113e95782600001829080600181540180825580915050600190039060005260206000200160009091909190915055826000018054905083600101600084815260200190815260200160002081905550600190506113ee565b600090505b92915050565b600061141c836000018373ffffffffffffffffffffffffffffffffffffffff1660001b6114db565b905092915050565b600081836000018054905011611485576040517f08c379a00000000000000000000000000000000000000000000000000000000081526004018080602001828103825260228152602001806115c46022913960400191505060405180910390fd5b82600001828154811061149457fe5b9060005260206000200154905092915050565b600080836001016000848152602001908152602001600020541415905092915050565b600081600001805490509050919050565b600080836001016000848152602001908152602001600020549050600081146115b7576000600182039050600060018660000180549050039050600086600001828154811061152657fe5b906000526020600020015490508087600001848154811061154357fe5b906000526020600020018190555060018301876001016000838152602001908152602001600020819055508660000180548061157b57fe5b600190038181906000526020600020016000905590558660010160008781526020019081526020016000206000905560019450505050506115bd565b60009150505b9291505056fe456e756d657261626c655365743a20696e646578206f7574206f6620626f756e64735370617469616c4173736574733a2073746f72616765206d75737420626520616c6c6f776564416363657373436f6e74726f6c3a2073656e646572206d75737420626520616e2061646d696e20746f206772616e745370617469616c4173736574733a206d75737420686176652061646d696e20726f6c6520746f206564697420616c6c6f776564206f6666636861696e2073746f7261676573416363657373436f6e74726f6c3a2073656e646572206d75737420626520616e2061646d696e20746f207265766f6b655370617469616c4173736574733a2073746f72616765206d757374206e6f7420626520616374697665207965745370617469616c4173736574733a2063616c6c6572206973206e6f74206f776e6572206f6620746865205370617469616c2041737365745370617469616c4173736574733a206964206d757374206e6f74206861766520616e206f776e6572207965745370617469616c4173736574733a206d7573742068617665206461746120737570706c69657220726f6c6520746f2072656769737465725370617469616c4173736574733a206d757374206e6f742068617665206120444154415f535550504c49455220726f6c6520796574416363657373436f6e74726f6c3a2063616e206f6e6c792072656e6f756e636520726f6c657320666f722073656c66a26469706673582212203bd4d4adf4c9cec41869abe59e319d03e55fd38658b67877b9c5de52314e3ac464736f6c634300060c0033",
  "immutableReferences": {},
  "source": "// SPDX-License-Identifier: APACHE OR MIT\npragma solidity ^0.6.0;\n\nimport \"@openzeppelin/contracts/access/AccessControl.sol\";\nimport \"@openzeppelin/contracts/GSN/Context.sol\";\n\n/**\n * @dev {SpatialAssets} registry\n * This contract uses {AccessControl} to lock permissioned functions using the\n * different roles - head to its documentation for details.\n *\n * The account that deploys the contract will be granted the 'DATA_SUPPLIER' as well as the default admin role, which will let it grant\n * 'DATA_SUPPLIER' roles to other accounts\n */\ncontract SpatialAssets is Context, AccessControl {\n    /**\n     * @dev Emitted when Spatial Assets of id `id` are transferred to `to``.\n     */\n    event SpatialAssetRegistered(address indexed to, uint256 indexed geoDIDId, uint256 indexed cid, bytes32 offChainStorage);\n\n    /**\n     * @dev Emitted when Spatial Assets of id `id` are deactivated.\n     */\n    event SpatialAssetDeactivated(uint256 indexed id);\n\n    /**\n     * @dev Emitted when a parent geodid is added to a node\n     */\n    event ParentAdded(uint256 indexed cid, uint256 indexed parentGeoDIDId);\n\n    /**\n     * @dev Emitted when a children geodid is added to a node\n     */\n    event ChildrenAdded(uint256 indexed cid, uint256 indexed childrenGeoDIDId);\n\n    /**\n     * @dev Emitted when a parent geodid is removed from a node\n     */\n    event ParentRemoved(uint256 indexed cid, uint256 indexed parentGeoDIDId);\n\n    /**\n     * @dev Emitted when a children geodid is removed from a node\n     */\n    event ChildrenRemoved(uint256 indexed cid, uint256 indexed childrenGeoDIDId);\n\n\n    bytes32 public constant DATA_SUPPLIER = keccak256(\"DATA_SUPPLIER\");\n\n    string private _uri;\n\n    // Mapping from GeodidID to registrant\n    mapping (uint256 => address) private _owners;\n    \n    // Mapping from GeodidID to Cid\n    mapping (uint256 => uint256) private _cids;\n/*\n    // Mapping from GeiDID id to Cids (for versioning - implement methods to create/update and fetch?)\n    mapping (uint256 => uint256[]) private _cids;\n\n\n    function updateCids (uint256[] geoDidIdsToChange, uint256[] _cidsToChange) {\n        for (...){\n\n        }\n    }\n*/\n    // Mapping from id to spatial asset external storage\n    mapping (uint256 => bytes32) private _externalStorage;\n\n    // Allowed external storages signatures\n    mapping (bytes32 => bool) private _allowedStorages;\n\n\n    /**\n     * @dev Grants `DEFAULT_ADMIN_ROLE`, `DATA_SUPPLIER` to the account that\n     * deploys the contract.\n     */\n    constructor(string memory uri) public {\n        _setURI(uri);\n        _setupRole(DEFAULT_ADMIN_ROLE, _msgSender());\n        _setupRole(DATA_SUPPLIER, _msgSender());\n\n    }\n\n    /**\n     * @dev Registers a new user with the ability to register a spatial asset.\n     */\n    function registerRole() public {\n        require(!hasRole(DATA_SUPPLIER, _msgSender()), \"SpatialAssets: must not have a DATA_SUPPLIER role yet\");\n        _setupRole(DATA_SUPPLIER, _msgSender());\n    }\n\n    /**\n     * @dev Registers a new user with the ability to register a spatial asset.\n     */\n    function enableStorage(bytes32 offChainStorage) public {\n        require(hasRole(DEFAULT_ADMIN_ROLE, _msgSender()), \"SpatialAssets: must have admin role to edit allowed offchain storages\");\n        require(_allowedStorages[offChainStorage]== false, \"SpatialAssets: storage must not be active yet\");\n        _allowedStorages[offChainStorage] = true;\n    }\n\n    /**\n     * @dev Registers a new user with the ability to register a spatial asset.\n     */\n    function disableStorage(bytes32 offChainStorage) public {\n        require(hasRole(DEFAULT_ADMIN_ROLE, _msgSender()), \"SpatialAssets: must have admin role to edit allowed offchain storages\");\n        _allowedStorages[offChainStorage] = false;\n    }\n\n\n    /**\n     * @dev Registers one spatial asset with external storage 'data' and assigns them to `account`.\n     *\n     * Emits a {SpatialAssetRegistered} event.\n     */\n    function registerSpatialAsset(address owner, uint256 geoDIDId, uint256[] memory parentGeoDIDIds , uint256[] memory childrenGeoDIDIds, uint256 cid, bytes32 offChainStorage) public {\n        require(hasRole(DATA_SUPPLIER, _msgSender()), \"SpatialAssets: must have data supplier role to register\");\n        require(allowedStorages(offChainStorage), \"SpatialAssets: storage must be allowed\");\n        require(_owners[geoDIDId] == address(0), \"SpatialAssets: id must not have an owner yet\");\n        _cids[geoDIDId] =cid;\n        _owners[geoDIDId] = owner;\n        _externalStorage[geoDIDId] = offChainStorage;\n\n        emit SpatialAssetRegistered(owner, geoDIDId, cid, offChainStorage);\n\n        uint256 parentsLen = parentGeoDIDIds.length;\n        uint256 childrensLen = childrenGeoDIDIds.length;\n\n        if (parentsLen > 0){\n            for(uint256 i=0; i < parentsLen; i++) {\n                emit ParentAdded(cid, parentGeoDIDIds[i]);\n            }\n        }\n        if (childrensLen > 0){\n            for(uint256 j=0; j < childrensLen; j++) {\n                emit ChildrenAdded(cid, childrenGeoDIDIds[j]);\n            }\n        }\n\n\n    }\n\n    /**\n     * @dev De-registers a spatial asset\n     */\n     function deactivateSpatialAsset(uint256 id) public {\n        require(\n            _owners[id] == _msgSender(),\"SpatialAssets: caller is not owner of the Spatial Asset\"\n        );\n        _owners[id] = address(0);\n        _externalStorage[id] = \"\";\n        emit SpatialAssetDeactivated(id);\n    }\n  \n    /**\n     * @dev Sets a new URI for all the spatial asset types\n     */\n    function _setURI(string memory newuri) internal {\n        _uri = newuri;\n    }\n\n    function idToOwner(uint256 id) public view returns (address) {\n        return _owners[id];\n    }\n\n    function idToExternalStorage(uint256 id) public view returns (bytes32) {\n        return _externalStorage[id];\n    }\n\n    function allowedStorages(bytes32 offChainStorage) public view returns (bool) {\n        return _allowedStorages[offChainStorage];\n    }\n\n    function uri() public view returns (string memory) {\n        return _uri;\n    }\n}\n",
  "sourcePath": "/home/j-mars/astralprotocol/astralprotocol/packages/contracts/contracts/SpatialAssets.sol",
  "compiler": {
    "name": "solc",
    "version": "0.6.12+commit.27d51765.Emscripten.clang"
  },
  "schemaVersion": "3.3.2",
  "updatedAt": "2021-02-07T13:40:48.207Z",
  "networkType": "ethereum",
  "devdoc": {
    "details": "{SpatialAssets} registry This contract uses {AccessControl} to lock permissioned functions using the different roles - head to its documentation for details. The account that deploys the contract will be granted the 'DATA_SUPPLIER' as well as the default admin role, which will let it grant 'DATA_SUPPLIER' roles to other accounts",
    "events": {
      "ChildrenAdded(uint256,uint256)": {
        "details": "Emitted when a children geodid is added to a node"
      },
      "ChildrenRemoved(uint256,uint256)": {
        "details": "Emitted when a children geodid is removed from a node"
      },
      "ParentAdded(uint256,uint256)": {
        "details": "Emitted when a parent geodid is added to a node"
      },
      "ParentRemoved(uint256,uint256)": {
        "details": "Emitted when a parent geodid is removed from a node"
      },
      "SpatialAssetDeactivated(uint256)": {
        "details": "Emitted when Spatial Assets of id `id` are deactivated."
      },
      "SpatialAssetRegistered(address,uint256,uint256,bytes32)": {
        "details": "Emitted when Spatial Assets of id `id` are transferred to `to``."
      }
    },
    "kind": "dev",
    "methods": {
      "constructor": {
        "details": "Grants `DEFAULT_ADMIN_ROLE`, `DATA_SUPPLIER` to the account that deploys the contract."
      },
      "deactivateSpatialAsset(uint256)": {
        "details": "De-registers a spatial asset"
      },
      "disableStorage(bytes32)": {
        "details": "Registers a new user with the ability to register a spatial asset."
      },
      "enableStorage(bytes32)": {
        "details": "Registers a new user with the ability to register a spatial asset."
      },
      "getRoleAdmin(bytes32)": {
        "details": "Returns the admin role that controls `role`. See {grantRole} and {revokeRole}. To change a role's admin, use {_setRoleAdmin}."
      },
      "getRoleMember(bytes32,uint256)": {
        "details": "Returns one of the accounts that have `role`. `index` must be a value between 0 and {getRoleMemberCount}, non-inclusive. Role bearers are not sorted in any particular way, and their ordering may change at any point. WARNING: When using {getRoleMember} and {getRoleMemberCount}, make sure you perform all queries on the same block. See the following https://forum.openzeppelin.com/t/iterating-over-elements-on-enumerableset-in-openzeppelin-contracts/2296[forum post] for more information."
      },
      "getRoleMemberCount(bytes32)": {
        "details": "Returns the number of accounts that have `role`. Can be used together with {getRoleMember} to enumerate all bearers of a role."
      },
      "grantRole(bytes32,address)": {
        "details": "Grants `role` to `account`. If `account` had not been already granted `role`, emits a {RoleGranted} event. Requirements: - the caller must have ``role``'s admin role."
      },
      "hasRole(bytes32,address)": {
        "details": "Returns `true` if `account` has been granted `role`."
      },
      "registerRole()": {
        "details": "Registers a new user with the ability to register a spatial asset."
      },
      "registerSpatialAsset(address,uint256,uint256[],uint256[],uint256,bytes32)": {
        "details": "Registers one spatial asset with external storage 'data' and assigns them to `account`. Emits a {SpatialAssetRegistered} event."
      },
      "renounceRole(bytes32,address)": {
        "details": "Revokes `role` from the calling account. Roles are often managed via {grantRole} and {revokeRole}: this function's purpose is to provide a mechanism for accounts to lose their privileges if they are compromised (such as when a trusted device is misplaced). If the calling account had been granted `role`, emits a {RoleRevoked} event. Requirements: - the caller must be `account`."
      },
      "revokeRole(bytes32,address)": {
        "details": "Revokes `role` from `account`. If `account` had been granted `role`, emits a {RoleRevoked} event. Requirements: - the caller must have ``role``'s admin role."
      }
    },
    "version": 1
  },
  "userdoc": {
    "kind": "user",
    "methods": {},
    "version": 1
  }
}