{
  "contractName": "SpatialAssets",
  "abi": [
    {
      "inputs": [
        {
          "internalType": "string",
          "name": "uri",
          "type": "string"
        }
      ],
      "stateMutability": "nonpayable",
      "type": "constructor"
    },
    {
      "anonymous": false,
      "inputs": [
        {
          "indexed": true,
          "internalType": "uint256",
          "name": "geoDIDId",
          "type": "uint256"
        },
        {
          "indexed": true,
          "internalType": "uint256",
          "name": "childrenGeoDIDId",
          "type": "uint256"
        }
      ],
      "name": "ChildrenAdded",
      "type": "event"
    },
    {
      "anonymous": false,
      "inputs": [
        {
          "indexed": true,
          "internalType": "uint256",
          "name": "geoDIDId",
          "type": "uint256"
        },
        {
          "indexed": true,
          "internalType": "uint256",
          "name": "childrenGeoDIDId",
          "type": "uint256"
        }
      ],
      "name": "ChildrenRemoved",
      "type": "event"
    },
    {
      "anonymous": false,
      "inputs": [
        {
          "indexed": true,
          "internalType": "uint256",
          "name": "geoDIDId",
          "type": "uint256"
        },
        {
          "indexed": true,
          "internalType": "uint256",
          "name": "parentGeoDIDId",
          "type": "uint256"
        }
      ],
      "name": "ParentAdded",
      "type": "event"
    },
    {
      "anonymous": false,
      "inputs": [
        {
          "indexed": true,
          "internalType": "uint256",
          "name": "geoDIDId",
          "type": "uint256"
        },
        {
          "indexed": true,
          "internalType": "uint256",
          "name": "parentGeoDIDId",
          "type": "uint256"
        }
      ],
      "name": "ParentRemoved",
      "type": "event"
    },
    {
      "anonymous": false,
      "inputs": [
        {
          "indexed": true,
          "internalType": "bytes32",
          "name": "role",
          "type": "bytes32"
        },
        {
          "indexed": true,
          "internalType": "bytes32",
          "name": "previousAdminRole",
          "type": "bytes32"
        },
        {
          "indexed": true,
          "internalType": "bytes32",
          "name": "newAdminRole",
          "type": "bytes32"
        }
      ],
      "name": "RoleAdminChanged",
      "type": "event"
    },
    {
      "anonymous": false,
      "inputs": [
        {
          "indexed": true,
          "internalType": "bytes32",
          "name": "role",
          "type": "bytes32"
        },
        {
          "indexed": true,
          "internalType": "address",
          "name": "account",
          "type": "address"
        },
        {
          "indexed": true,
          "internalType": "address",
          "name": "sender",
          "type": "address"
        }
      ],
      "name": "RoleGranted",
      "type": "event"
    },
    {
      "anonymous": false,
      "inputs": [
        {
          "indexed": true,
          "internalType": "bytes32",
          "name": "role",
          "type": "bytes32"
        },
        {
          "indexed": true,
          "internalType": "address",
          "name": "account",
          "type": "address"
        },
        {
          "indexed": true,
          "internalType": "address",
          "name": "sender",
          "type": "address"
        }
      ],
      "name": "RoleRevoked",
      "type": "event"
    },
    {
      "anonymous": false,
      "inputs": [
        {
          "indexed": true,
          "internalType": "uint256",
          "name": "geoDIDId",
          "type": "uint256"
        },
        {
          "indexed": false,
          "internalType": "uint256[]",
          "name": "childrenToRemove",
          "type": "uint256[]"
        }
      ],
      "name": "SpatialAssetDeactivated",
      "type": "event"
    },
    {
      "anonymous": false,
      "inputs": [
        {
          "indexed": true,
          "internalType": "address",
          "name": "to",
          "type": "address"
        },
        {
          "indexed": true,
          "internalType": "uint256",
          "name": "geoDIDId",
          "type": "uint256"
        },
        {
          "indexed": true,
          "internalType": "uint256",
          "name": "cid",
          "type": "uint256"
        },
        {
          "indexed": false,
          "internalType": "bytes32",
          "name": "offChainStorage",
          "type": "bytes32"
        },
        {
          "indexed": false,
          "internalType": "bool",
          "name": "root",
          "type": "bool"
        },
        {
          "indexed": false,
          "internalType": "string",
          "name": "geoDIDtype",
          "type": "string"
        }
      ],
      "name": "SpatialAssetRegistered",
      "type": "event"
    },
    {
      "inputs": [],
      "name": "DATA_SUPPLIER",
      "outputs": [
        {
          "internalType": "bytes32",
          "name": "",
          "type": "bytes32"
        }
      ],
      "stateMutability": "view",
      "type": "function",
      "constant": true
    },
    {
      "inputs": [],
      "name": "DEFAULT_ADMIN_ROLE",
      "outputs": [
        {
          "internalType": "bytes32",
          "name": "",
          "type": "bytes32"
        }
      ],
      "stateMutability": "view",
      "type": "function",
      "constant": true
    },
    {
      "inputs": [
        {
          "internalType": "bytes32",
          "name": "role",
          "type": "bytes32"
        }
      ],
      "name": "getRoleAdmin",
      "outputs": [
        {
          "internalType": "bytes32",
          "name": "",
          "type": "bytes32"
        }
      ],
      "stateMutability": "view",
      "type": "function",
      "constant": true
    },
    {
      "inputs": [
        {
          "internalType": "bytes32",
          "name": "role",
          "type": "bytes32"
        },
        {
          "internalType": "uint256",
          "name": "index",
          "type": "uint256"
        }
      ],
      "name": "getRoleMember",
      "outputs": [
        {
          "internalType": "address",
          "name": "",
          "type": "address"
        }
      ],
      "stateMutability": "view",
      "type": "function",
      "constant": true
    },
    {
      "inputs": [
        {
          "internalType": "bytes32",
          "name": "role",
          "type": "bytes32"
        }
      ],
      "name": "getRoleMemberCount",
      "outputs": [
        {
          "internalType": "uint256",
          "name": "",
          "type": "uint256"
        }
      ],
      "stateMutability": "view",
      "type": "function",
      "constant": true
    },
    {
      "inputs": [
        {
          "internalType": "bytes32",
          "name": "role",
          "type": "bytes32"
        },
        {
          "internalType": "address",
          "name": "account",
          "type": "address"
        }
      ],
      "name": "grantRole",
      "outputs": [],
      "stateMutability": "nonpayable",
      "type": "function"
    },
    {
      "inputs": [
        {
          "internalType": "bytes32",
          "name": "role",
          "type": "bytes32"
        },
        {
          "internalType": "address",
          "name": "account",
          "type": "address"
        }
      ],
      "name": "hasRole",
      "outputs": [
        {
          "internalType": "bool",
          "name": "",
          "type": "bool"
        }
      ],
      "stateMutability": "view",
      "type": "function",
      "constant": true
    },
    {
      "inputs": [
        {
          "internalType": "bytes32",
          "name": "role",
          "type": "bytes32"
        },
        {
          "internalType": "address",
          "name": "account",
          "type": "address"
        }
      ],
      "name": "renounceRole",
      "outputs": [],
      "stateMutability": "nonpayable",
      "type": "function"
    },
    {
      "inputs": [
        {
          "internalType": "bytes32",
          "name": "role",
          "type": "bytes32"
        },
        {
          "internalType": "address",
          "name": "account",
          "type": "address"
        }
      ],
      "name": "revokeRole",
      "outputs": [],
      "stateMutability": "nonpayable",
      "type": "function"
    },
    {
      "inputs": [],
      "name": "registerRole",
      "outputs": [],
      "stateMutability": "nonpayable",
      "type": "function"
    },
    {
      "inputs": [
        {
          "internalType": "bytes32",
          "name": "offChainStorage",
          "type": "bytes32"
        }
      ],
      "name": "enableStorage",
      "outputs": [],
      "stateMutability": "nonpayable",
      "type": "function"
    },
    {
      "inputs": [
        {
          "internalType": "bytes32",
          "name": "offChainStorage",
          "type": "bytes32"
        }
      ],
      "name": "disableStorage",
      "outputs": [],
      "stateMutability": "nonpayable",
      "type": "function"
    },
    {
      "inputs": [
        {
          "internalType": "address",
          "name": "owner",
          "type": "address"
        },
        {
          "internalType": "uint256",
          "name": "geoDIDId",
          "type": "uint256"
        },
        {
          "internalType": "uint256",
          "name": "parentGeoDIDId",
          "type": "uint256"
        },
        {
          "internalType": "uint256[]",
          "name": "childrenGeoDIDIds",
          "type": "uint256[]"
        },
        {
          "internalType": "uint256",
          "name": "cid",
          "type": "uint256"
        },
        {
          "internalType": "bytes32",
          "name": "offChainStorage",
          "type": "bytes32"
        },
        {
          "internalType": "string",
          "name": "geoDIDtype",
          "type": "string"
        }
      ],
      "name": "registerSpatialAsset",
      "outputs": [],
      "stateMutability": "nonpayable",
      "type": "function"
    },
    {
      "inputs": [
        {
          "internalType": "uint256",
          "name": "geoDIDId",
          "type": "uint256"
        },
        {
          "internalType": "uint256[]",
          "name": "childrenGeoDIDIds",
          "type": "uint256[]"
        }
      ],
      "name": "addChildrenGeoDIDs",
      "outputs": [],
      "stateMutability": "nonpayable",
      "type": "function"
    },
    {
      "inputs": [
        {
          "internalType": "uint256",
          "name": "geoDIDId",
          "type": "uint256"
        },
        {
          "internalType": "uint256",
          "name": "parentGeoDIDId",
          "type": "uint256"
        }
      ],
      "name": "addParentGeoDID",
      "outputs": [],
      "stateMutability": "nonpayable",
      "type": "function"
    },
    {
      "inputs": [
        {
          "internalType": "uint256",
          "name": "geoDIDId",
          "type": "uint256"
        },
        {
          "internalType": "uint256[]",
          "name": "childrenGeoDIDIds",
          "type": "uint256[]"
        }
      ],
      "name": "removeChildrenGeoDIDs",
      "outputs": [],
      "stateMutability": "nonpayable",
      "type": "function"
    },
    {
      "inputs": [
        {
          "internalType": "uint256",
          "name": "geoDIDId",
          "type": "uint256"
        },
        {
          "internalType": "uint256",
          "name": "parentGeoDIDId",
          "type": "uint256"
        }
      ],
      "name": "removeParentGeoDID",
      "outputs": [],
      "stateMutability": "nonpayable",
      "type": "function"
    },
    {
      "inputs": [
        {
          "internalType": "uint256",
          "name": "geoDIDId",
          "type": "uint256"
        },
        {
          "internalType": "uint256[]",
          "name": "childrenToRemove",
          "type": "uint256[]"
        }
      ],
      "name": "deactivateSpatialAsset",
      "outputs": [],
      "stateMutability": "nonpayable",
      "type": "function"
    },
    {
      "inputs": [
        {
          "internalType": "uint256",
          "name": "id",
          "type": "uint256"
        }
      ],
      "name": "idToOwner",
      "outputs": [
        {
          "internalType": "address",
          "name": "",
          "type": "address"
        }
      ],
      "stateMutability": "view",
      "type": "function",
      "constant": true
    },
    {
      "inputs": [
        {
          "internalType": "uint256",
          "name": "id",
          "type": "uint256"
        }
      ],
      "name": "idToExternalStorage",
      "outputs": [
        {
          "internalType": "bytes32",
          "name": "",
          "type": "bytes32"
        }
      ],
      "stateMutability": "view",
      "type": "function",
      "constant": true
    },
    {
      "inputs": [
        {
          "internalType": "bytes32",
          "name": "offChainStorage",
          "type": "bytes32"
        }
      ],
      "name": "allowedStorages",
      "outputs": [
        {
          "internalType": "bool",
          "name": "",
          "type": "bool"
        }
      ],
      "stateMutability": "view",
      "type": "function",
      "constant": true
    },
    {
      "inputs": [],
      "name": "uri",
      "outputs": [
        {
          "internalType": "string",
          "name": "",
          "type": "string"
        }
      ],
      "stateMutability": "view",
      "type": "function",
      "constant": true
    }
  ],
  "bytecode": "0x60806040523480156200001157600080fd5b5060405162002b8b38038062002b8b833981810160405260208110156200003757600080fd5b81019080805160405193929190846401000000008211156200005857600080fd5b838201915060208201858111156200006f57600080fd5b82518660018202830111640100000000821117156200008d57600080fd5b8083526020830192505050908051906020019080838360005b83811015620000c3578082015181840152602081019050620000a6565b50505050905090810190601f168015620000f15780820380516001836020036101000a031916815260200191505b5060405250505062000109816200017560201b60201c565b6200012d6000801b620001216200019160201b60201c565b6200019960201b60201c565b6200016e7fb90ec3213bc54b34738ca7ad785b7e6275742931f3ddfa147171c27090643f3f620001626200019160201b60201c565b6200019960201b60201c565b50620003cd565b80600190805190602001906200018d92919062000327565b5050565b600033905090565b620001ab8282620001af60201b60201c565b5050565b620001dd816000808581526020019081526020016000206000016200025260201b620020811790919060201c565b156200024e57620001f36200019160201b60201c565b73ffffffffffffffffffffffffffffffffffffffff168173ffffffffffffffffffffffffffffffffffffffff16837f2f8788117e7eff1d82e926ec794901d17c78024a50270940304540a733656f0d60405160405180910390a45b5050565b600062000282836000018373ffffffffffffffffffffffffffffffffffffffff1660001b6200028a60201b60201c565b905092915050565b60006200029e83836200030460201b60201c565b620002f9578260000182908060018154018082558091505060019003906000526020600020016000909190919091505582600001805490508360010160008481526020019081526020016000208190555060019050620002fe565b600090505b92915050565b600080836001016000848152602001908152602001600020541415905092915050565b828054600181600116156101000203166002900490600052602060002090601f016020900481019282601f106200036a57805160ff19168380011785556200039b565b828001600101855582156200039b579182015b828111156200039a5782518255916020019190600101906200037d565b5b509050620003aa9190620003ae565b5090565b5b80821115620003c9576000816000905550600101620003af565b5090565b6127ae80620003dd6000396000f3fe608060405234801561001057600080fd5b50600436106101425760003560e01c80638d0a9bff116100b8578063bfc206ed1161007c578063bfc206ed14610828578063c44e96a014610880578063ca15c8731461088a578063d547741f146108cc578063eac989f81461091a578063fd52c0d51461099d57610142565b80638d0a9bff146106e25780639010d07c1461072657806391d14854146107885780639969879b146107ec578063a217fddf1461080a57610142565b8063315d44a51161010a578063315d44a51461039357806336568abe146103cb5780633d35eccb1461041957806365c55755146104db5780636e7a6f4b1461051d5780637b4162e61461054b57610142565b806312963f64146101475780631caf28f714610209578063248a9ca3146102415780632f2ff15d146102835780632fa03ef7146102d1575b600080fd5b6102076004803603604081101561015d57600080fd5b81019080803590602001909291908035906020019064010000000081111561018457600080fd5b82018360208201111561019657600080fd5b803590602001918460208302840111640100000000831117156101b857600080fd5b919080806020026020016040519081016040528093929190818152602001838360200280828437600081840152601f19601f8201169050808301925050505050505091929192905050506109cb565b005b61023f6004803603604081101561021f57600080fd5b810190808035906020019092919080359060200190929190505050610c2b565b005b61026d6004803603602081101561025757600080fd5b8101908080359060200190929190505050610ed0565b6040518082815260200191505060405180910390f35b6102cf6004803603604081101561029957600080fd5b8101908080359060200190929190803573ffffffffffffffffffffffffffffffffffffffff169060200190929190505050610eef565b005b610391600480360360408110156102e757600080fd5b81019080803590602001909291908035906020019064010000000081111561030e57600080fd5b82018360208201111561032057600080fd5b8035906020019184602083028401116401000000008311171561034257600080fd5b919080806020026020016040519081016040528093929190818152602001838360200280828437600081840152601f19601f820116905080830192505050505050509192919290505050610f78565b005b6103c9600480360360408110156103a957600080fd5b8101908080359060200190929190803590602001909291905050506111d8565b005b610417600480360360408110156103e157600080fd5b8101908080359060200190929190803573ffffffffffffffffffffffffffffffffffffffff16906020019092919050505061147d565b005b6104d96004803603604081101561042f57600080fd5b81019080803590602001909291908035906020019064010000000081111561045657600080fd5b82018360208201111561046857600080fd5b8035906020019184602083028401116401000000008311171561048a57600080fd5b919080806020026020016040519081016040528093929190818152602001838360200280828437600081840152601f19601f820116905080830192505050505050509192919290505050611516565b005b610507600480360360208110156104f157600080fd5b8101908080359060200190929190505050611702565b6040518082815260200191505060405180910390f35b6105496004803603602081101561053357600080fd5b810190808035906020019092919050505061171f565b005b6106e0600480360360e081101561056157600080fd5b81019080803573ffffffffffffffffffffffffffffffffffffffff1690602001909291908035906020019092919080359060200190929190803590602001906401000000008111156105b257600080fd5b8201836020820111156105c457600080fd5b803590602001918460208302840111640100000000831117156105e657600080fd5b919080806020026020016040519081016040528093929190818152602001838360200280828437600081840152601f19601f82011690508083019250505050505050919291929080359060200190929190803590602001909291908035906020019064010000000081111561065a57600080fd5b82018360208201111561066c57600080fd5b8035906020019184600183028401116401000000008311171561068e57600080fd5b91908080601f016020809104026020016040519081016040528093929190818152602001838380828437600081840152601f19601f820116905080830192505050505050509192919290505050611834565b005b61070e600480360360208110156106f857600080fd5b8101908080359060200190929190505050611cea565b60405180821515815260200191505060405180910390f35b61075c6004803603604081101561073c57600080fd5b810190808035906020019092919080359060200190929190505050611d14565b604051808273ffffffffffffffffffffffffffffffffffffffff16815260200191505060405180910390f35b6107d46004803603604081101561079e57600080fd5b8101908080359060200190929190803573ffffffffffffffffffffffffffffffffffffffff169060200190929190505050611d45565b60405180821515815260200191505060405180910390f35b6107f4611d76565b6040518082815260200191505060405180910390f35b610812611d9a565b6040518082815260200191505060405180910390f35b6108546004803603602081101561083e57600080fd5b8101908080359060200190929190505050611da1565b604051808273ffffffffffffffffffffffffffffffffffffffff16815260200191505060405180910390f35b610888611dde565b005b6108b6600480360360208110156108a057600080fd5b8101908080359060200190929190505050611e98565b6040518082815260200191505060405180910390f35b610918600480360360408110156108e257600080fd5b8101908080359060200190929190803573ffffffffffffffffffffffffffffffffffffffff169060200190929190505050611ebe565b005b610922611f47565b6040518080602001828103825283818151815260200191508051906020019080838360005b83811015610962578082015181840152602081019050610947565b50505050905090810190601f16801561098f5780820380516001836020036101000a031916815260200191505b509250505060405180910390f35b6109c9600480360360208110156109b357600080fd5b8101908080359060200190929190505050611fe9565b005b6109fc7fb90ec3213bc54b34738ca7ad785b7e6275742931f3ddfa147171c27090643f3f6109f76120b1565b611d45565b610a51576040517f08c379a00000000000000000000000000000000000000000000000000000000081526004018080602001828103825260378152602001806126de6037913960400191505060405180910390fd5b610a596120b1565b73ffffffffffffffffffffffffffffffffffffffff166002600084815260200190815260200160002060009054906101000a900473ffffffffffffffffffffffffffffffffffffffff1673ffffffffffffffffffffffffffffffffffffffff1614610b0f576040517f08c379a000000000000000000000000000000000000000000000000000000000815260040180806020018281038252602c8152602001806126b2602c913960400191505060405180910390fd5b6000815190506000811115610c265760005b81811015610c24576000838281518110610b3757fe5b60200260200101519050600073ffffffffffffffffffffffffffffffffffffffff166002600083815260200190815260200160002060009054906101000a900473ffffffffffffffffffffffffffffffffffffffff1673ffffffffffffffffffffffffffffffffffffffff1614158015610bcf57506004600082815260200190815260200160002060009054906101000a900460ff16155b15610c1657838281518110610be057fe5b6020026020010151857f33974780998cd0a6a121380888197f6af20340bc338905596e0c8819ae461a7b60405160405180910390a35b508080600101915050610b21565b505b505050565b610c5c7fb90ec3213bc54b34738ca7ad785b7e6275742931f3ddfa147171c27090643f3f610c576120b1565b611d45565b610cb1576040517f08c379a00000000000000000000000000000000000000000000000000000000081526004018080602001828103825260378152602001806126de6037913960400191505060405180910390fd5b610cb96120b1565b73ffffffffffffffffffffffffffffffffffffffff166002600084815260200190815260200160002060009054906101000a900473ffffffffffffffffffffffffffffffffffffffff1673ffffffffffffffffffffffffffffffffffffffff1614610d6f576040517f08c379a000000000000000000000000000000000000000000000000000000000815260040180806020018281038252602c8152602001806126b2602c913960400191505060405180910390fd5b600073ffffffffffffffffffffffffffffffffffffffff166002600083815260200190815260200160002060009054906101000a900473ffffffffffffffffffffffffffffffffffffffff1673ffffffffffffffffffffffffffffffffffffffff161415610e28576040517f08c379a000000000000000000000000000000000000000000000000000000000815260040180806020018281038252603a815260200180612503603a913960400191505060405180910390fd5b6004600083815260200190815260200160002060009054906101000a900460ff1615610e9f576040517f08c379a000000000000000000000000000000000000000000000000000000000815260040180806020018281038252602a8152602001806125b8602a913960400191505060405180910390fd5b80827ea67c7413e7cbd6fa0dfd556b6bfb0844428500ee38687ae6c65ecf371df4e260405160405180910390a35050565b6000806000838152602001908152602001600020600201549050919050565b610f1560008084815260200190815260200160002060020154610f106120b1565b611d45565b610f6a576040517f08c379a000000000000000000000000000000000000000000000000000000000815260040180806020018281038252602f8152602001806124d4602f913960400191505060405180910390fd5b610f7482826120b9565b5050565b610fa97fb90ec3213bc54b34738ca7ad785b7e6275742931f3ddfa147171c27090643f3f610fa46120b1565b611d45565b610ffe576040517f08c379a00000000000000000000000000000000000000000000000000000000081526004018080602001828103825260378152602001806126de6037913960400191505060405180910390fd5b6110066120b1565b73ffffffffffffffffffffffffffffffffffffffff166002600084815260200190815260200160002060009054906101000a900473ffffffffffffffffffffffffffffffffffffffff1673ffffffffffffffffffffffffffffffffffffffff16146110bc576040517f08c379a000000000000000000000000000000000000000000000000000000000815260040180806020018281038252602c8152602001806126b2602c913960400191505060405180910390fd5b60008151905060008111156111d35760005b818110156111d15760008382815181106110e457fe5b60200260200101519050600073ffffffffffffffffffffffffffffffffffffffff166002600083815260200190815260200160002060009054906101000a900473ffffffffffffffffffffffffffffffffffffffff1673ffffffffffffffffffffffffffffffffffffffff161415801561117c57506004600082815260200190815260200160002060009054906101000a900460ff16155b156111c35783828151811061118d57fe5b6020026020010151857fd9446a40bb30eb7c68d45f553a8344a460470e6120827bbaa22bb731e455c3ed60405160405180910390a35b5080806001019150506110ce565b505b505050565b6112097fb90ec3213bc54b34738ca7ad785b7e6275742931f3ddfa147171c27090643f3f6112046120b1565b611d45565b61125e576040517f08c379a00000000000000000000000000000000000000000000000000000000081526004018080602001828103825260378152602001806126de6037913960400191505060405180910390fd5b6112666120b1565b73ffffffffffffffffffffffffffffffffffffffff166002600084815260200190815260200160002060009054906101000a900473ffffffffffffffffffffffffffffffffffffffff1673ffffffffffffffffffffffffffffffffffffffff161461131c576040517f08c379a000000000000000000000000000000000000000000000000000000000815260040180806020018281038252602c8152602001806126b2602c913960400191505060405180910390fd5b600073ffffffffffffffffffffffffffffffffffffffff166002600083815260200190815260200160002060009054906101000a900473ffffffffffffffffffffffffffffffffffffffff1673ffffffffffffffffffffffffffffffffffffffff1614156113d5576040517f08c379a000000000000000000000000000000000000000000000000000000000815260040180806020018281038252603c815260200180612612603c913960400191505060405180910390fd5b6004600083815260200190815260200160002060009054906101000a900460ff1661144b576040517f08c379a00000000000000000000000000000000000000000000000000000000081526004018080602001828103825260368152602001806125826036913960400191505060405180910390fd5b80827f8b572be57bab095e1edbcb8666bc126bab7989981d0724d3a8d44966f02e658360405160405180910390a35050565b6114856120b1565b73ffffffffffffffffffffffffffffffffffffffff168173ffffffffffffffffffffffffffffffffffffffff1614611508576040517f08c379a000000000000000000000000000000000000000000000000000000000815260040180806020018281038252602f81526020018061274a602f913960400191505060405180910390fd5b611512828261214c565b5050565b61151e6120b1565b73ffffffffffffffffffffffffffffffffffffffff166002600084815260200190815260200160002060009054906101000a900473ffffffffffffffffffffffffffffffffffffffff1673ffffffffffffffffffffffffffffffffffffffff16146115d4576040517f08c379a000000000000000000000000000000000000000000000000000000000815260040180806020018281038252603781526020018061267b6037913960400191505060405180910390fd5b60006002600084815260200190815260200160002060006101000a81548173ffffffffffffffffffffffffffffffffffffffff021916908373ffffffffffffffffffffffffffffffffffffffff160217905550600060056000848152602001908152602001600020819055506000600360008481526020019081526020016000208190555060006004600084815260200190815260200160002060006101000a81548160ff021916908315150217905550817f6958d9a5b92b38869062a9e904dc1f2343e1f6b7cd07d5bee19a677b1f253bd2826040518080602001828103825283818151815260200191508051906020019060200280838360005b838110156116eb5780820151818401526020810190506116d0565b505050509050019250505060405180910390a25050565b600060056000838152602001908152602001600020549050919050565b6117336000801b61172e6120b1565b611d45565b611788576040517f08c379a000000000000000000000000000000000000000000000000000000000815260040180806020018281038252604581526020018061253d6045913960600191505060405180910390fd5b600015156006600083815260200190815260200160002060009054906101000a900460ff16151514611805576040517f08c379a000000000000000000000000000000000000000000000000000000000815260040180806020018281038252602d81526020018061264e602d913960400191505060405180910390fd5b60016006600083815260200190815260200160002060006101000a81548160ff02191690831515021790555050565b6118657fb90ec3213bc54b34738ca7ad785b7e6275742931f3ddfa147171c27090643f3f6118606120b1565b611d45565b6118ba576040517f08c379a00000000000000000000000000000000000000000000000000000000081526004018080602001828103825260378152602001806126de6037913960400191505060405180910390fd5b6118c382611cea565b611918576040517f08c379a00000000000000000000000000000000000000000000000000000000081526004018080602001828103825260268152602001806124ae6026913960400191505060405180910390fd5b600073ffffffffffffffffffffffffffffffffffffffff166002600088815260200190815260200160002060009054906101000a900473ffffffffffffffffffffffffffffffffffffffff1673ffffffffffffffffffffffffffffffffffffffff16146119d0576040517f08c379a000000000000000000000000000000000000000000000000000000000815260040180806020018281038252602c8152602001806126b2602c913960400191505060405180910390fd5b826003600088815260200190815260200160002081905550866002600088815260200190815260200160002060006101000a81548173ffffffffffffffffffffffffffffffffffffffff021916908373ffffffffffffffffffffffffffffffffffffffff1602179055508160056000888152602001908152602001600020819055506000851415611b545760006004600088815260200190815260200160002060006101000a81548160ff02191690831515021790555082868873ffffffffffffffffffffffffffffffffffffffff167fc2978c9c04ebd4422d798a4cd3e559a4a40d60aa4cead5bafe79a0278fc9ef378560018660405180848152602001831515815260200180602001828103825283818151815260200191508051906020019080838360005b83811015611b13578082015181840152602081019050611af8565b50505050905090810190601f168015611b405780820380516001836020036101000a031916815260200191505b5094505050505060405180910390a4611c76565b60016004600088815260200190815260200160002060006101000a81548160ff02191690831515021790555082868873ffffffffffffffffffffffffffffffffffffffff167fc2978c9c04ebd4422d798a4cd3e559a4a40d60aa4cead5bafe79a0278fc9ef378560008660405180848152602001831515815260200180602001828103825283818151815260200191508051906020019080838360005b83811015611c0c578082015181840152602081019050611bf1565b50505050905090810190601f168015611c395780820380516001836020036101000a031916815260200191505b5094505050505060405180910390a484867ea67c7413e7cbd6fa0dfd556b6bfb0844428500ee38687ae6c65ecf371df4e260405160405180910390a35b6000845190506000811115611ce05760005b81811015611cde57858181518110611c9c57fe5b6020026020010151887f33974780998cd0a6a121380888197f6af20340bc338905596e0c8819ae461a7b60405160405180910390a38080600101915050611c88565b505b5050505050505050565b60006006600083815260200190815260200160002060009054906101000a900460ff169050919050565b6000611d3d826000808681526020019081526020016000206000016121df90919063ffffffff16565b905092915050565b6000611d6e826000808681526020019081526020016000206000016121f990919063ffffffff16565b905092915050565b7fb90ec3213bc54b34738ca7ad785b7e6275742931f3ddfa147171c27090643f3f81565b6000801b81565b60006002600083815260200190815260200160002060009054906101000a900473ffffffffffffffffffffffffffffffffffffffff169050919050565b611e0f7fb90ec3213bc54b34738ca7ad785b7e6275742931f3ddfa147171c27090643f3f611e0a6120b1565b611d45565b15611e65576040517f08c379a00000000000000000000000000000000000000000000000000000000081526004018080602001828103825260358152602001806127156035913960400191505060405180910390fd5b611e967fb90ec3213bc54b34738ca7ad785b7e6275742931f3ddfa147171c27090643f3f611e916120b1565b612229565b565b6000611eb7600080848152602001908152602001600020600001612237565b9050919050565b611ee460008084815260200190815260200160002060020154611edf6120b1565b611d45565b611f39576040517f08c379a00000000000000000000000000000000000000000000000000000000081526004018080602001828103825260308152602001806125e26030913960400191505060405180910390fd5b611f43828261214c565b5050565b606060018054600181600116156101000203166002900480601f016020809104026020016040519081016040528092919081815260200182805460018160011615610100020316600290048015611fdf5780601f10611fb457610100808354040283529160200191611fdf565b820191906000526020600020905b815481529060010190602001808311611fc257829003601f168201915b5050505050905090565b611ffd6000801b611ff86120b1565b611d45565b612052576040517f08c379a000000000000000000000000000000000000000000000000000000000815260040180806020018281038252604581526020018061253d6045913960600191505060405180910390fd5b60006006600083815260200190815260200160002060006101000a81548160ff02191690831515021790555050565b60006120a9836000018373ffffffffffffffffffffffffffffffffffffffff1660001b61224c565b905092915050565b600033905090565b6120e08160008085815260200190815260200160002060000161208190919063ffffffff16565b15612148576120ed6120b1565b73ffffffffffffffffffffffffffffffffffffffff168173ffffffffffffffffffffffffffffffffffffffff16837f2f8788117e7eff1d82e926ec794901d17c78024a50270940304540a733656f0d60405160405180910390a45b5050565b612173816000808581526020019081526020016000206000016122bc90919063ffffffff16565b156121db576121806120b1565b73ffffffffffffffffffffffffffffffffffffffff168173ffffffffffffffffffffffffffffffffffffffff16837ff6391f5c32d9c69d2a47ea670b442974b53935d1edc7fd64eb21e047a839171b60405160405180910390a45b5050565b60006121ee83600001836122ec565b60001c905092915050565b6000612221836000018373ffffffffffffffffffffffffffffffffffffffff1660001b61236f565b905092915050565b61223382826120b9565b5050565b600061224582600001612392565b9050919050565b6000612258838361236f565b6122b15782600001829080600181540180825580915050600190039060005260206000200160009091909190915055826000018054905083600101600084815260200190815260200160002081905550600190506122b6565b600090505b92915050565b60006122e4836000018373ffffffffffffffffffffffffffffffffffffffff1660001b6123a3565b905092915050565b60008183600001805490501161234d576040517f08c379a000000000000000000000000000000000000000000000000000000000815260040180806020018281038252602281526020018061248c6022913960400191505060405180910390fd5b82600001828154811061235c57fe5b9060005260206000200154905092915050565b600080836001016000848152602001908152602001600020541415905092915050565b600081600001805490509050919050565b6000808360010160008481526020019081526020016000205490506000811461247f57600060018203905060006001866000018054905003905060008660000182815481106123ee57fe5b906000526020600020015490508087600001848154811061240b57fe5b906000526020600020018190555060018301876001016000838152602001908152602001600020819055508660000180548061244357fe5b60019003818190600052602060002001600090559055866001016000878152602001908152602001600020600090556001945050505050612485565b60009150505b9291505056fe456e756d657261626c655365743a20696e646578206f7574206f6620626f756e64735370617469616c4173736574733a2073746f72616765206d75737420626520616c6c6f776564416363657373436f6e74726f6c3a2073656e646572206d75737420626520616e2061646d696e20746f206772616e745370617469616c4173736574733a2047656f44494420746f20626520616464656420617320706172656e7420646f6573206e6f742065786973745370617469616c4173736574733a206d75737420686176652061646d696e20726f6c6520746f206564697420616c6c6f776564206f6666636861696e2073746f72616765735370617469616c4173736574733a2047656f44494420646f6573206e6f742068617665206120706172656e7420746f2072656d6f76655370617469616c4173736574733a2047656f44494420616c726561647920686173206120706172656e74416363657373436f6e74726f6c3a2073656e646572206d75737420626520616e2061646d696e20746f207265766f6b655370617469616c4173736574733a2047656f44494420746f2062652072656d6f76656420617320706172656e7420646f6573206e6f742065786973745370617469616c4173736574733a2073746f72616765206d757374206e6f7420626520616374697665207965745370617469616c4173736574733a2063616c6c6572206973206e6f74206f776e6572206f6620746865205370617469616c2041737365745370617469616c4173736574733a206964206d757374206e6f74206861766520616e206f776e6572207965745370617469616c4173736574733a206d7573742068617665206461746120737570706c69657220726f6c6520746f2072656769737465725370617469616c4173736574733a206d757374206e6f742068617665206120444154415f535550504c49455220726f6c6520796574416363657373436f6e74726f6c3a2063616e206f6e6c792072656e6f756e636520726f6c657320666f722073656c66a264697066735822122001b74fb0ad4316509a997a5211e58f184717804afb6848e09f3920bbf8316a9164736f6c634300060c0033",
  "immutableReferences": {},
  "source": "// SPDX-License-Identifier: APACHE OR MIT\npragma solidity ^0.6.0;\n\nimport \"@openzeppelin/contracts/access/AccessControl.sol\";\nimport \"@openzeppelin/contracts/GSN/Context.sol\";\n\n/**\n * @dev {SpatialAssets} registry\n * This contract uses {AccessControl} to lock permissioned functions using the\n * different roles - head to its documentation for details.\n *\n * The account that deploys the contract will be granted the 'DATA_SUPPLIER' as well as the default admin role, which will let it grant\n * 'DATA_SUPPLIER' roles to other accounts\n */\ncontract SpatialAssets is Context, AccessControl {\n    /**\n     * @dev Emitted when Spatial Assets of id `id` are transferred to `to``.\n     */\n    event SpatialAssetRegistered(address indexed to, uint256 indexed geoDIDId, uint256 indexed cid, bytes32 offChainStorage, bool root, string geoDIDtype);\n\n    /**\n     * @dev Emitted when Spatial Assets of id `id` are deactivated.\n     */\n    event SpatialAssetDeactivated(uint256 indexed geoDIDId, uint256[] childrenToRemove);\n\n    /**\n     * @dev Emitted when a parent geodid is added to a node\n     */\n    event ParentAdded(uint256 indexed geoDIDId, uint256 indexed parentGeoDIDId);\n\n    /**\n     * @dev Emitted when a children geodid is added to a node\n     */\n    event ChildrenAdded(uint256 indexed geoDIDId, uint256 indexed childrenGeoDIDId);\n\n    /**\n     * @dev Emitted when a parent geodid is removed from a node\n     */\n    event ParentRemoved(uint256 indexed geoDIDId, uint256 indexed parentGeoDIDId);\n\n    /**\n     * @dev Emitted when a children geodid is removed from a node\n     */\n    event ChildrenRemoved(uint256 indexed geoDIDId, uint256 indexed childrenGeoDIDId);\n\n    bytes32 public constant DATA_SUPPLIER = keccak256(\"DATA_SUPPLIER\");\n\n    string private _uri;\n\n    // Mapping from GeodidID to registrant\n    mapping (uint256 => address) private _owners;\n    \n    // Mapping from GeodidID to Cid\n    mapping (uint256 => uint256) private _cids;\n\n    // Mapping from GeodidID to parenthood status\n    mapping (uint256 => bool) private _hasParent;\n/*\n    // Mapping from GeiDID id to Cids (for versioning - implement methods to create/update and fetch?)\n    mapping (uint256 => uint256[]) private _cids;\n\n\n    function updateCids (uint256[] geoDidIdsToChange, uint256[] _cidsToChange) {\n        for (...){\n\n        }\n    }\n*/\n    // Mapping from id to spatial asset external storage\n    mapping (uint256 => bytes32) private _externalStorage;\n\n    // Allowed external storages signatures\n    mapping (bytes32 => bool) private _allowedStorages;\n\n\n    /**\n     * @dev Grants `DEFAULT_ADMIN_ROLE`, `DATA_SUPPLIER` to the account that\n     * deploys the contract.\n     */\n    constructor(string memory uri) public {\n        _setURI(uri);\n        _setupRole(DEFAULT_ADMIN_ROLE, _msgSender());\n        _setupRole(DATA_SUPPLIER, _msgSender());\n\n    }\n\n    /**\n     * @dev Registers a new user with the ability to register a spatial asset.\n     */\n    function registerRole() public {\n        require(!hasRole(DATA_SUPPLIER, _msgSender()), \"SpatialAssets: must not have a DATA_SUPPLIER role yet\");\n        _setupRole(DATA_SUPPLIER, _msgSender());\n    }\n\n    /**\n     * @dev Registers a new user with the ability to register a spatial asset.\n     */\n    function enableStorage(bytes32 offChainStorage) public {\n        require(hasRole(DEFAULT_ADMIN_ROLE, _msgSender()), \"SpatialAssets: must have admin role to edit allowed offchain storages\");\n        require(_allowedStorages[offChainStorage]== false, \"SpatialAssets: storage must not be active yet\");\n        _allowedStorages[offChainStorage] = true;\n    }\n\n    /**\n     * @dev Registers a new user with the ability to register a spatial asset.\n     */\n    function disableStorage(bytes32 offChainStorage) public {\n        require(hasRole(DEFAULT_ADMIN_ROLE, _msgSender()), \"SpatialAssets: must have admin role to edit allowed offchain storages\");\n        _allowedStorages[offChainStorage] = false;\n    }\n\n\n    /**\n     * @dev Registers one spatial asset with external storage 'data' and assigns them to `account`.\n     *\n     * Emits a {SpatialAssetRegistered} event.\n     */\n    function registerSpatialAsset(address owner, uint256 geoDIDId, uint256 parentGeoDIDId , uint256[] memory childrenGeoDIDIds, uint256 cid, bytes32 offChainStorage, string memory geoDIDtype) public {\n        require(hasRole(DATA_SUPPLIER, _msgSender()), \"SpatialAssets: must have data supplier role to register\");\n        require(allowedStorages(offChainStorage), \"SpatialAssets: storage must be allowed\");\n        require(_owners[geoDIDId] == address(0), \"SpatialAssets: id must not have an owner yet\");\n\n        _cids[geoDIDId] =cid;\n        _owners[geoDIDId] = owner;\n        _externalStorage[geoDIDId] = offChainStorage;\n\n        if (parentGeoDIDId == 0) {\n            _hasParent[geoDIDId] = false;\n        emit SpatialAssetRegistered(owner, geoDIDId, cid, offChainStorage, true, geoDIDtype);\n        } else {\n            _hasParent[geoDIDId] = true;\n            emit SpatialAssetRegistered(owner, geoDIDId, cid, offChainStorage, false, geoDIDtype);\n            emit ParentAdded(geoDIDId, parentGeoDIDId);\n        }\n\n        uint256 childrensLen = childrenGeoDIDIds.length;\n\n        if (childrensLen > 0){\n            for(uint256 j=0; j < childrensLen; j++) {\n                emit ChildrenAdded(geoDIDId, childrenGeoDIDIds[j]);\n            }\n        }\n    }\n\n\n    /**\n     * @dev Adds children GeoDIDs to an already existent geoDID\n     *\n     * Emits a {ChildrenAdded} event.\n     */\n    function addChildrenGeoDIDs(uint256 geoDIDId, uint256[] memory childrenGeoDIDIds) public {\n        require(hasRole(DATA_SUPPLIER, _msgSender()), \"SpatialAssets: must have data supplier role to register\");\n        require(_owners[geoDIDId] == _msgSender(), \"SpatialAssets: id must not have an owner yet\");\n\n        uint256 childrensLen = childrenGeoDIDIds.length;\n\n        if (childrensLen > 0){\n            for(uint256 j=0; j < childrensLen; j++) {\n                uint256 childrenGeoDID = childrenGeoDIDIds[j];\n                if (_owners[childrenGeoDID] != address(0) && !_hasParent[childrenGeoDID]) {\n                    emit ChildrenAdded(geoDIDId, childrenGeoDIDIds[j]);\n                }\n            }\n        }\n    }\n\n    /**\n     * @dev Adds a parent GeoDID to an already existent geoDID\n     *\n     * Emits a {ParentAdded} event.\n     */\n    function addParentGeoDID(uint256 geoDIDId, uint256 parentGeoDIDId) public {\n        require(hasRole(DATA_SUPPLIER, _msgSender()), \"SpatialAssets: must have data supplier role to register\");\n        require(_owners[geoDIDId] == _msgSender(), \"SpatialAssets: id must not have an owner yet\");\n        require(_owners[parentGeoDIDId] != address(0), \"SpatialAssets: GeoDID to be added as parent does not exist\");\n        require(!_hasParent[geoDIDId], \"SpatialAssets: GeoDID already has a parent\");\n\n        emit ParentAdded(geoDIDId, parentGeoDIDId);\n    }\n\n    \n    /**\n     * @dev Removes childrenGeoDIDs from a geoDID\n     *\n     * Emits a {ChildrenRemoved} event.\n     */\n    function removeChildrenGeoDIDs(uint256 geoDIDId, uint256[] memory childrenGeoDIDIds) public {\n        require(hasRole(DATA_SUPPLIER, _msgSender()), \"SpatialAssets: must have data supplier role to register\");\n        require(_owners[geoDIDId] == _msgSender(), \"SpatialAssets: id must not have an owner yet\");\n\n        uint256 childrensLen = childrenGeoDIDIds.length;\n\n        if (childrensLen > 0){\n            for(uint256 j=0; j < childrensLen; j++) {\n                uint256 childrenGeoDID = childrenGeoDIDIds[j];\n                if (_owners[childrenGeoDID] != address(0) && !_hasParent[childrenGeoDID]) {\n                    emit ChildrenRemoved(geoDIDId, childrenGeoDIDIds[j]);\n                }\n            }\n        }\n    }\n\n\n     /**\n     * @dev Removes a parent GeoDID from an already existent geoDID\n     *\n     * Emits a {ParentAdded} event.\n     */\n    function removeParentGeoDID(uint256 geoDIDId, uint256 parentGeoDIDId) public {\n        require(hasRole(DATA_SUPPLIER, _msgSender()), \"SpatialAssets: must have data supplier role to register\");\n        require(_owners[geoDIDId] == _msgSender(), \"SpatialAssets: id must not have an owner yet\");\n        require(_owners[parentGeoDIDId] != address(0), \"SpatialAssets: GeoDID to be removed as parent does not exist\");\n        require(_hasParent[geoDIDId], \"SpatialAssets: GeoDID does not have a parent to remove\");\n\n        emit ParentRemoved(geoDIDId, parentGeoDIDId);\n    }\n\n    /**\n     * @dev De-registers a spatial asset\n     */\n     function deactivateSpatialAsset(uint256 geoDIDId, uint256[] memory childrenToRemove) public {\n        require(\n            _owners[geoDIDId] == _msgSender(),\"SpatialAssets: caller is not owner of the Spatial Asset\"\n        );\n        _owners[geoDIDId] = address(0);\n        _externalStorage[geoDIDId] = \"\";\n        _cids[geoDIDId] = 0;\n        _hasParent[geoDIDId] = false;\n        emit SpatialAssetDeactivated(geoDIDId, childrenToRemove);\n    }\n  \n    /**\n     * @dev Sets a new URI for all the spatial asset types\n     */\n    function _setURI(string memory newuri) internal {\n        _uri = newuri;\n    }\n\n    function idToOwner(uint256 id) public view returns (address) {\n        return _owners[id];\n    }\n\n    function idToExternalStorage(uint256 id) public view returns (bytes32) {\n        return _externalStorage[id];\n    }\n\n    function allowedStorages(bytes32 offChainStorage) public view returns (bool) {\n        return _allowedStorages[offChainStorage];\n    }\n\n    function uri() public view returns (string memory) {\n        return _uri;\n    }\n}\n",
  "sourcePath": "/home/j-mars/astralprotocol/astralprotocol/packages/contracts/contracts/SpatialAssets.sol",
  "compiler": {
    "name": "solc",
    "version": "0.6.12+commit.27d51765.Emscripten.clang"
  },
  "schemaVersion": "3.3.2",
  "updatedAt": "2021-02-08T18:50:24.100Z",
  "networkType": "ethereum",
  "devdoc": {
    "details": "{SpatialAssets} registry This contract uses {AccessControl} to lock permissioned functions using the different roles - head to its documentation for details. The account that deploys the contract will be granted the 'DATA_SUPPLIER' as well as the default admin role, which will let it grant 'DATA_SUPPLIER' roles to other accounts",
    "events": {
      "ChildrenAdded(uint256,uint256)": {
        "details": "Emitted when a children geodid is added to a node"
      },
      "ChildrenRemoved(uint256,uint256)": {
        "details": "Emitted when a children geodid is removed from a node"
      },
      "ParentAdded(uint256,uint256)": {
        "details": "Emitted when a parent geodid is added to a node"
      },
      "ParentRemoved(uint256,uint256)": {
        "details": "Emitted when a parent geodid is removed from a node"
      },
      "SpatialAssetDeactivated(uint256,uint256[])": {
        "details": "Emitted when Spatial Assets of id `id` are deactivated."
      },
      "SpatialAssetRegistered(address,uint256,uint256,bytes32,bool,string)": {
        "details": "Emitted when Spatial Assets of id `id` are transferred to `to``."
      }
    },
    "kind": "dev",
    "methods": {
      "addChildrenGeoDIDs(uint256,uint256[])": {
        "details": "Adds children GeoDIDs to an already existent geoDID Emits a {ChildrenAdded} event."
      },
      "addParentGeoDID(uint256,uint256)": {
        "details": "Adds a parent GeoDID to an already existent geoDID Emits a {ParentAdded} event."
      },
      "constructor": {
        "details": "Grants `DEFAULT_ADMIN_ROLE`, `DATA_SUPPLIER` to the account that deploys the contract."
      },
      "deactivateSpatialAsset(uint256,uint256[])": {
        "details": "De-registers a spatial asset"
      },
      "disableStorage(bytes32)": {
        "details": "Registers a new user with the ability to register a spatial asset."
      },
      "enableStorage(bytes32)": {
        "details": "Registers a new user with the ability to register a spatial asset."
      },
      "getRoleAdmin(bytes32)": {
        "details": "Returns the admin role that controls `role`. See {grantRole} and {revokeRole}. To change a role's admin, use {_setRoleAdmin}."
      },
      "getRoleMember(bytes32,uint256)": {
        "details": "Returns one of the accounts that have `role`. `index` must be a value between 0 and {getRoleMemberCount}, non-inclusive. Role bearers are not sorted in any particular way, and their ordering may change at any point. WARNING: When using {getRoleMember} and {getRoleMemberCount}, make sure you perform all queries on the same block. See the following https://forum.openzeppelin.com/t/iterating-over-elements-on-enumerableset-in-openzeppelin-contracts/2296[forum post] for more information."
      },
      "getRoleMemberCount(bytes32)": {
        "details": "Returns the number of accounts that have `role`. Can be used together with {getRoleMember} to enumerate all bearers of a role."
      },
      "grantRole(bytes32,address)": {
        "details": "Grants `role` to `account`. If `account` had not been already granted `role`, emits a {RoleGranted} event. Requirements: - the caller must have ``role``'s admin role."
      },
      "hasRole(bytes32,address)": {
        "details": "Returns `true` if `account` has been granted `role`."
      },
      "registerRole()": {
        "details": "Registers a new user with the ability to register a spatial asset."
      },
      "registerSpatialAsset(address,uint256,uint256,uint256[],uint256,bytes32,string)": {
        "details": "Registers one spatial asset with external storage 'data' and assigns them to `account`. Emits a {SpatialAssetRegistered} event."
      },
      "removeChildrenGeoDIDs(uint256,uint256[])": {
        "details": "Removes childrenGeoDIDs from a geoDID Emits a {ChildrenRemoved} event."
      },
      "removeParentGeoDID(uint256,uint256)": {
        "details": "Removes a parent GeoDID from an already existent geoDID Emits a {ParentAdded} event."
      },
      "renounceRole(bytes32,address)": {
        "details": "Revokes `role` from the calling account. Roles are often managed via {grantRole} and {revokeRole}: this function's purpose is to provide a mechanism for accounts to lose their privileges if they are compromised (such as when a trusted device is misplaced). If the calling account had been granted `role`, emits a {RoleRevoked} event. Requirements: - the caller must be `account`."
      },
      "revokeRole(bytes32,address)": {
        "details": "Revokes `role` from `account`. If `account` had been granted `role`, emits a {RoleRevoked} event. Requirements: - the caller must have ``role``'s admin role."
      }
    },
    "version": 1
  },
  "userdoc": {
    "kind": "user",
    "methods": {},
    "version": 1
  }
}