{
  "contractName": "SpatialAssets",
  "abi": [
    {
      "inputs": [
        {
          "internalType": "string",
          "name": "uri",
          "type": "string"
        }
      ],
      "stateMutability": "nonpayable",
      "type": "constructor"
    },
    {
      "anonymous": false,
      "inputs": [
        {
          "indexed": true,
          "internalType": "uint256",
          "name": "geoDIDId",
          "type": "uint256"
        },
        {
          "indexed": true,
          "internalType": "uint256",
          "name": "childrenGeoDIDId",
          "type": "uint256"
        }
      ],
      "name": "ChildrenAdded",
      "type": "event"
    },
    {
      "anonymous": false,
      "inputs": [
        {
          "indexed": true,
          "internalType": "uint256",
          "name": "geoDIDId",
          "type": "uint256"
        },
        {
          "indexed": true,
          "internalType": "uint256",
          "name": "childrenGeoDIDId",
          "type": "uint256"
        }
      ],
      "name": "ChildrenRemoved",
      "type": "event"
    },
    {
      "anonymous": false,
      "inputs": [
        {
          "indexed": true,
          "internalType": "uint256",
          "name": "geoDIDId",
          "type": "uint256"
        },
        {
          "indexed": true,
          "internalType": "uint256",
          "name": "parentGeoDIDId",
          "type": "uint256"
        }
      ],
      "name": "ParentAdded",
      "type": "event"
    },
    {
      "anonymous": false,
      "inputs": [
        {
          "indexed": true,
          "internalType": "uint256",
          "name": "geoDIDId",
          "type": "uint256"
        },
        {
          "indexed": true,
          "internalType": "uint256",
          "name": "parentGeoDIDId",
          "type": "uint256"
        }
      ],
      "name": "ParentRemoved",
      "type": "event"
    },
    {
      "anonymous": false,
      "inputs": [
        {
          "indexed": true,
          "internalType": "bytes32",
          "name": "role",
          "type": "bytes32"
        },
        {
          "indexed": true,
          "internalType": "bytes32",
          "name": "previousAdminRole",
          "type": "bytes32"
        },
        {
          "indexed": true,
          "internalType": "bytes32",
          "name": "newAdminRole",
          "type": "bytes32"
        }
      ],
      "name": "RoleAdminChanged",
      "type": "event"
    },
    {
      "anonymous": false,
      "inputs": [
        {
          "indexed": true,
          "internalType": "bytes32",
          "name": "role",
          "type": "bytes32"
        },
        {
          "indexed": true,
          "internalType": "address",
          "name": "account",
          "type": "address"
        },
        {
          "indexed": true,
          "internalType": "address",
          "name": "sender",
          "type": "address"
        }
      ],
      "name": "RoleGranted",
      "type": "event"
    },
    {
      "anonymous": false,
      "inputs": [
        {
          "indexed": true,
          "internalType": "bytes32",
          "name": "role",
          "type": "bytes32"
        },
        {
          "indexed": true,
          "internalType": "address",
          "name": "account",
          "type": "address"
        },
        {
          "indexed": true,
          "internalType": "address",
          "name": "sender",
          "type": "address"
        }
      ],
      "name": "RoleRevoked",
      "type": "event"
    },
    {
      "anonymous": false,
      "inputs": [
        {
          "indexed": true,
          "internalType": "uint256",
          "name": "geoDIDId",
          "type": "uint256"
        },
        {
          "indexed": false,
          "internalType": "uint256[]",
          "name": "childrenToRemove",
          "type": "uint256[]"
        }
      ],
      "name": "SpatialAssetDeactivated",
      "type": "event"
    },
    {
      "anonymous": false,
      "inputs": [
        {
          "indexed": true,
          "internalType": "address",
          "name": "to",
          "type": "address"
        },
        {
          "indexed": true,
          "internalType": "uint256",
          "name": "geoDIDId",
          "type": "uint256"
        },
        {
          "indexed": true,
          "internalType": "uint256",
          "name": "cid",
          "type": "uint256"
        },
        {
          "indexed": false,
          "internalType": "bytes32",
          "name": "offChainStorage",
          "type": "bytes32"
        },
        {
          "indexed": false,
          "internalType": "uint256",
          "name": "root",
          "type": "uint256"
        },
        {
          "indexed": false,
          "internalType": "bool",
          "name": "canBeParent",
          "type": "bool"
        }
      ],
      "name": "SpatialAssetRegistered",
      "type": "event"
    },
    {
      "inputs": [],
      "name": "DATA_SUPPLIER",
      "outputs": [
        {
          "internalType": "bytes32",
          "name": "",
          "type": "bytes32"
        }
      ],
      "stateMutability": "view",
      "type": "function",
      "constant": true
    },
    {
      "inputs": [],
      "name": "DEFAULT_ADMIN_ROLE",
      "outputs": [
        {
          "internalType": "bytes32",
          "name": "",
          "type": "bytes32"
        }
      ],
      "stateMutability": "view",
      "type": "function",
      "constant": true
    },
    {
      "inputs": [
        {
          "internalType": "bytes32",
          "name": "role",
          "type": "bytes32"
        }
      ],
      "name": "getRoleAdmin",
      "outputs": [
        {
          "internalType": "bytes32",
          "name": "",
          "type": "bytes32"
        }
      ],
      "stateMutability": "view",
      "type": "function",
      "constant": true
    },
    {
      "inputs": [
        {
          "internalType": "bytes32",
          "name": "role",
          "type": "bytes32"
        },
        {
          "internalType": "uint256",
          "name": "index",
          "type": "uint256"
        }
      ],
      "name": "getRoleMember",
      "outputs": [
        {
          "internalType": "address",
          "name": "",
          "type": "address"
        }
      ],
      "stateMutability": "view",
      "type": "function",
      "constant": true
    },
    {
      "inputs": [
        {
          "internalType": "bytes32",
          "name": "role",
          "type": "bytes32"
        }
      ],
      "name": "getRoleMemberCount",
      "outputs": [
        {
          "internalType": "uint256",
          "name": "",
          "type": "uint256"
        }
      ],
      "stateMutability": "view",
      "type": "function",
      "constant": true
    },
    {
      "inputs": [
        {
          "internalType": "bytes32",
          "name": "role",
          "type": "bytes32"
        },
        {
          "internalType": "address",
          "name": "account",
          "type": "address"
        }
      ],
      "name": "grantRole",
      "outputs": [],
      "stateMutability": "nonpayable",
      "type": "function"
    },
    {
      "inputs": [
        {
          "internalType": "bytes32",
          "name": "role",
          "type": "bytes32"
        },
        {
          "internalType": "address",
          "name": "account",
          "type": "address"
        }
      ],
      "name": "hasRole",
      "outputs": [
        {
          "internalType": "bool",
          "name": "",
          "type": "bool"
        }
      ],
      "stateMutability": "view",
      "type": "function",
      "constant": true
    },
    {
      "inputs": [
        {
          "internalType": "bytes32",
          "name": "role",
          "type": "bytes32"
        },
        {
          "internalType": "address",
          "name": "account",
          "type": "address"
        }
      ],
      "name": "renounceRole",
      "outputs": [],
      "stateMutability": "nonpayable",
      "type": "function"
    },
    {
      "inputs": [
        {
          "internalType": "bytes32",
          "name": "role",
          "type": "bytes32"
        },
        {
          "internalType": "address",
          "name": "account",
          "type": "address"
        }
      ],
      "name": "revokeRole",
      "outputs": [],
      "stateMutability": "nonpayable",
      "type": "function"
    },
    {
      "inputs": [],
      "name": "registerRole",
      "outputs": [],
      "stateMutability": "nonpayable",
      "type": "function"
    },
    {
      "inputs": [
        {
          "internalType": "bytes32",
          "name": "offChainStorage",
          "type": "bytes32"
        }
      ],
      "name": "enableStorage",
      "outputs": [],
      "stateMutability": "nonpayable",
      "type": "function"
    },
    {
      "inputs": [
        {
          "internalType": "bytes32",
          "name": "offChainStorage",
          "type": "bytes32"
        }
      ],
      "name": "disableStorage",
      "outputs": [],
      "stateMutability": "nonpayable",
      "type": "function"
    },
    {
      "inputs": [
        {
          "internalType": "address",
          "name": "owner",
          "type": "address"
        },
        {
          "internalType": "uint256",
          "name": "geoDIDId",
          "type": "uint256"
        },
        {
          "internalType": "uint256",
          "name": "parentGeoDIDId",
          "type": "uint256"
        },
        {
          "internalType": "uint256[]",
          "name": "childrenGeoDIDIds",
          "type": "uint256[]"
        },
        {
          "internalType": "uint256",
          "name": "cid",
          "type": "uint256"
        },
        {
          "internalType": "bytes32",
          "name": "offChainStorage",
          "type": "bytes32"
        },
        {
          "internalType": "uint256",
          "name": "geoDIDtype",
          "type": "uint256"
        }
      ],
      "name": "registerSpatialAsset",
      "outputs": [],
      "stateMutability": "nonpayable",
      "type": "function"
    },
    {
      "inputs": [
        {
          "internalType": "uint256",
          "name": "geoDIDId",
          "type": "uint256"
        },
        {
          "internalType": "uint256[]",
          "name": "childrenGeoDIDIds",
          "type": "uint256[]"
        }
      ],
      "name": "addChildrenGeoDIDs",
      "outputs": [],
      "stateMutability": "nonpayable",
      "type": "function"
    },
    {
      "inputs": [
        {
          "internalType": "uint256",
          "name": "geoDIDId",
          "type": "uint256"
        },
        {
          "internalType": "uint256",
          "name": "parentGeoDIDId",
          "type": "uint256"
        }
      ],
      "name": "addParentGeoDID",
      "outputs": [],
      "stateMutability": "nonpayable",
      "type": "function"
    },
    {
      "inputs": [
        {
          "internalType": "uint256",
          "name": "geoDIDId",
          "type": "uint256"
        },
        {
          "internalType": "uint256[]",
          "name": "childrenGeoDIDIds",
          "type": "uint256[]"
        }
      ],
      "name": "removeChildrenGeoDIDs",
      "outputs": [],
      "stateMutability": "nonpayable",
      "type": "function"
    },
    {
      "inputs": [
        {
          "internalType": "uint256",
          "name": "geoDIDId",
          "type": "uint256"
        },
        {
          "internalType": "uint256",
          "name": "parentGeoDIDId",
          "type": "uint256"
        }
      ],
      "name": "removeParentGeoDID",
      "outputs": [],
      "stateMutability": "nonpayable",
      "type": "function"
    },
    {
      "inputs": [
        {
          "internalType": "uint256",
          "name": "geoDIDId",
          "type": "uint256"
        },
        {
          "internalType": "uint256[]",
          "name": "childrenToRemove",
          "type": "uint256[]"
        }
      ],
      "name": "deactivateSpatialAsset",
      "outputs": [],
      "stateMutability": "nonpayable",
      "type": "function"
    },
    {
      "inputs": [
        {
          "internalType": "uint256",
          "name": "id",
          "type": "uint256"
        }
      ],
      "name": "idToOwner",
      "outputs": [
        {
          "internalType": "address",
          "name": "",
          "type": "address"
        }
      ],
      "stateMutability": "view",
      "type": "function",
      "constant": true
    },
    {
      "inputs": [
        {
          "internalType": "uint256",
          "name": "id",
          "type": "uint256"
        }
      ],
      "name": "idToCid",
      "outputs": [
        {
          "internalType": "uint256",
          "name": "",
          "type": "uint256"
        }
      ],
      "stateMutability": "view",
      "type": "function",
      "constant": true
    },
    {
      "inputs": [
        {
          "internalType": "uint256",
          "name": "id",
          "type": "uint256"
        }
      ],
      "name": "idToCanBeParent",
      "outputs": [
        {
          "internalType": "bool",
          "name": "",
          "type": "bool"
        }
      ],
      "stateMutability": "view",
      "type": "function",
      "constant": true
    },
    {
      "inputs": [
        {
          "internalType": "uint256",
          "name": "id",
          "type": "uint256"
        }
      ],
      "name": "idToHasParent",
      "outputs": [
        {
          "internalType": "bool",
          "name": "",
          "type": "bool"
        }
      ],
      "stateMutability": "view",
      "type": "function",
      "constant": true
    },
    {
      "inputs": [
        {
          "internalType": "uint256",
          "name": "id",
          "type": "uint256"
        }
      ],
      "name": "idToExternalStorage",
      "outputs": [
        {
          "internalType": "bytes32",
          "name": "",
          "type": "bytes32"
        }
      ],
      "stateMutability": "view",
      "type": "function",
      "constant": true
    },
    {
      "inputs": [
        {
          "internalType": "bytes32",
          "name": "offChainStorage",
          "type": "bytes32"
        }
      ],
      "name": "allowedStorages",
      "outputs": [
        {
          "internalType": "bool",
          "name": "",
          "type": "bool"
        }
      ],
      "stateMutability": "view",
      "type": "function",
      "constant": true
    },
    {
      "inputs": [],
      "name": "uri",
      "outputs": [
        {
          "internalType": "string",
          "name": "",
          "type": "string"
        }
      ],
      "stateMutability": "view",
      "type": "function",
      "constant": true
    }
  ],
  "bytecode": "0x60806040523480156200001157600080fd5b506040516200310038038062003100833981810160405260208110156200003757600080fd5b81019080805160405193929190846401000000008211156200005857600080fd5b838201915060208201858111156200006f57600080fd5b82518660018202830111640100000000821117156200008d57600080fd5b8083526020830192505050908051906020019080838360005b83811015620000c3578082015181840152602081019050620000a6565b50505050905090810190601f168015620000f15780820380516001836020036101000a031916815260200191505b5060405250505062000109816200017560201b60201c565b6200012d6000801b620001216200019160201b60201c565b6200019960201b60201c565b6200016e7fb90ec3213bc54b34738ca7ad785b7e6275742931f3ddfa147171c27090643f3f620001626200019160201b60201c565b6200019960201b60201c565b50620003cd565b80600190805190602001906200018d92919062000327565b5050565b600033905090565b620001ab8282620001af60201b60201c565b5050565b620001dd816000808581526020019081526020016000206000016200025260201b620025481790919060201c565b156200024e57620001f36200019160201b60201c565b73ffffffffffffffffffffffffffffffffffffffff168173ffffffffffffffffffffffffffffffffffffffff16837f2f8788117e7eff1d82e926ec794901d17c78024a50270940304540a733656f0d60405160405180910390a45b5050565b600062000282836000018373ffffffffffffffffffffffffffffffffffffffff1660001b6200028a60201b60201c565b905092915050565b60006200029e83836200030460201b60201c565b620002f9578260000182908060018154018082558091505060019003906000526020600020016000909190919091505582600001805490508360010160008481526020019081526020016000208190555060019050620002fe565b600090505b92915050565b600080836001016000848152602001908152602001600020541415905092915050565b828054600181600116156101000203166002900490600052602060002090601f016020900481019282601f106200036a57805160ff19168380011785556200039b565b828001600101855582156200039b579182015b828111156200039a5782518255916020019190600101906200037d565b5b509050620003aa9190620003ae565b5090565b5b80821115620003c9576000816000905550600101620003af565b5090565b612d2380620003dd6000396000f3fe608060405234801561001057600080fd5b50600436106101735760003560e01c80636e7a6f4b116100de578063bfc206ed11610097578063d547741f11610071578063d547741f146108f6578063eac989f814610944578063faf79673146109c7578063fd52c0d514610a0b57610173565b8063bfc206ed14610852578063c44e96a0146108aa578063ca15c873146108b457610173565b80636e7a6f4b146106de5780638d0a9bff1461070c5780639010d07c1461075057806391d14854146107b25780639969879b14610816578063a217fddf1461083457610173565b80632fa03ef7116101305780632fa03ef714610450578063315d44a51461051257806336568abe1461054a5780633d35eccb14610598578063438efa021461065a57806365c557551461069c57610173565b806309ef33841461017857806312963f641461028257806319cd7216146103445780631caf28f714610388578063248a9ca3146103c05780632f2ff15d14610402575b600080fd5b610280600480360360e081101561018e57600080fd5b81019080803573ffffffffffffffffffffffffffffffffffffffff1690602001909291908035906020019092919080359060200190929190803590602001906401000000008111156101df57600080fd5b8201836020820111156101f157600080fd5b8035906020019184602083028401116401000000008311171561021357600080fd5b919080806020026020016040519081016040528093929190818152602001838360200280828437600081840152601f19601f820116905080830192505050505050509192919290803590602001909291908035906020019092919080359060200190929190505050610a39565b005b6103426004803603604081101561029857600080fd5b8101908080359060200190929190803590602001906401000000008111156102bf57600080fd5b8201836020820111156102d157600080fd5b803590602001918460208302840111640100000000831117156102f357600080fd5b919080806020026020016040519081016040528093929190818152602001838360200280828437600081840152601f19601f820116905080830192505050505050509192919290505050610fa9565b005b6103706004803603602081101561035a57600080fd5b81019080803590602001909291905050506112c3565b60405180821515815260200191505060405180910390f35b6103be6004803603604081101561039e57600080fd5b8101908080359060200190929190803590602001909291905050506112ed565b005b6103ec600480360360208110156103d657600080fd5b810190808035906020019092919050505061165f565b6040518082815260200191505060405180910390f35b61044e6004803603604081101561041857600080fd5b8101908080359060200190929190803573ffffffffffffffffffffffffffffffffffffffff16906020019092919050505061167e565b005b6105106004803603604081101561046657600080fd5b81019080803590602001909291908035906020019064010000000081111561048d57600080fd5b82018360208201111561049f57600080fd5b803590602001918460208302840111640100000000831117156104c157600080fd5b919080806020026020016040519081016040528093929190818152602001838360200280828437600081840152601f19601f820116905080830192505050505050509192919290505050611707565b005b6105486004803603604081101561052857600080fd5b810190808035906020019092919080359060200190929190505050611997565b005b6105966004803603604081101561056057600080fd5b8101908080359060200190929190803573ffffffffffffffffffffffffffffffffffffffff169060200190929190505050611c80565b005b610658600480360360408110156105ae57600080fd5b8101908080359060200190929190803590602001906401000000008111156105d557600080fd5b8201836020820111156105e757600080fd5b8035906020019184602083028401116401000000008311171561060957600080fd5b919080806020026020016040519081016040528093929190818152602001838360200280828437600081840152601f19601f820116905080830192505050505050509192919290505050611d19565b005b6106866004803603602081101561067057600080fd5b8101908080359060200190929190505050612038565b6040518082815260200191505060405180910390f35b6106c8600480360360208110156106b257600080fd5b8101908080359060200190929190505050612055565b6040518082815260200191505060405180910390f35b61070a600480360360208110156106f457600080fd5b8101908080359060200190929190505050612072565b005b6107386004803603602081101561072257600080fd5b8101908080359060200190929190505050612187565b60405180821515815260200191505060405180910390f35b6107866004803603604081101561076657600080fd5b8101908080359060200190929190803590602001909291905050506121b1565b604051808273ffffffffffffffffffffffffffffffffffffffff16815260200191505060405180910390f35b6107fe600480360360408110156107c857600080fd5b8101908080359060200190929190803573ffffffffffffffffffffffffffffffffffffffff1690602001909291905050506121e2565b60405180821515815260200191505060405180910390f35b61081e612213565b6040518082815260200191505060405180910390f35b61083c612237565b6040518082815260200191505060405180910390f35b61087e6004803603602081101561086857600080fd5b810190808035906020019092919050505061223e565b604051808273ffffffffffffffffffffffffffffffffffffffff16815260200191505060405180910390f35b6108b261227b565b005b6108e0600480360360208110156108ca57600080fd5b8101908080359060200190929190505050612335565b6040518082815260200191505060405180910390f35b6109426004803603604081101561090c57600080fd5b8101908080359060200190929190803573ffffffffffffffffffffffffffffffffffffffff16906020019092919050505061235b565b005b61094c6123e4565b6040518080602001828103825283818151815260200191508051906020019080838360005b8381101561098c578082015181840152602081019050610971565b50505050905090810190601f1680156109b95780820380516001836020036101000a031916815260200191505b509250505060405180910390f35b6109f3600480360360208110156109dd57600080fd5b8101908080359060200190929190505050612486565b60405180821515815260200191505060405180910390f35b610a3760048036036020811015610a2157600080fd5b81019080803590602001909291905050506124b0565b005b610a6a7fb90ec3213bc54b34738ca7ad785b7e6275742931f3ddfa147171c27090643f3f610a65612578565b6121e2565b610abf576040517f08c379a0000000000000000000000000000000000000000000000000000000008152600401808060200182810382526037815260200180612c536037913960400191505060405180910390fd5b610ac882612187565b610b1d576040517f08c379a00000000000000000000000000000000000000000000000000000000081526004018080602001828103825260268152602001806129756026913960400191505060405180910390fd5b600073ffffffffffffffffffffffffffffffffffffffff166002600088815260200190815260200160002060009054906101000a900473ffffffffffffffffffffffffffffffffffffffff1673ffffffffffffffffffffffffffffffffffffffff1614610bd5576040517f08c379a000000000000000000000000000000000000000000000000000000000815260040180806020018281038252602c815260200180612c27602c913960400191505060405180910390fd5b6000811480610be45750600181145b610c56576040517f08c379a00000000000000000000000000000000000000000000000000000000081526004018080602001828103825260208152602001807f5370617469616c204173736574733a2077726f6e672067656f6469647479706581525060200191505060405180910390fd5b826003600088815260200190815260200160002081905550866002600088815260200190815260200160002060006101000a81548173ffffffffffffffffffffffffffffffffffffffff021916908373ffffffffffffffffffffffffffffffffffffffff1602179055508160076000888152602001908152602001600020819055506000811415610d125760016005600088815260200190815260200160002060006101000a81548160ff021916908315150217905550610d49565b6001811415610d485760006005600088815260200190815260200160002060006101000a81548160ff0219169083151502179055505b5b6000851415610e1d5760006004600088815260200190815260200160002060006101000a81548160ff02191690831515021790555085600660008881526020019081526020016000208190555082868873ffffffffffffffffffffffffffffffffffffffff167f0cc103a5869a49c97e798d0ac77b8483c91e7df0b64be636187cba93b7ae367d858a600560008d815260200190815260200160002060009054906101000a900460ff16604051808481526020018381526020018215158152602001935050505060405180910390a4610f0c565b60016004600088815260200190815260200160002060006101000a81548160ff02191690831515021790555082868873ffffffffffffffffffffffffffffffffffffffff167f0cc103a5869a49c97e798d0ac77b8483c91e7df0b64be636187cba93b7ae367d85600660008b815260200190815260200160002054600560008d815260200190815260200160002060009054906101000a900460ff16604051808481526020018381526020018215158152602001935050505060405180910390a484867ea67c7413e7cbd6fa0dfd556b6bfb0844428500ee38687ae6c65ecf371df4e260405160405180910390a35b600084519050600081118015610f3f57506005600088815260200190815260200160002060009054906101000a900460ff165b15610f9f5760005b81811015610f9d57858181518110610f5b57fe5b6020026020010151887f33974780998cd0a6a121380888197f6af20340bc338905596e0c8819ae461a7b60405160405180910390a38080600101915050610f47565b505b5050505050505050565b610fda7fb90ec3213bc54b34738ca7ad785b7e6275742931f3ddfa147171c27090643f3f610fd5612578565b6121e2565b61102f576040517f08c379a0000000000000000000000000000000000000000000000000000000008152600401808060200182810382526037815260200180612c536037913960400191505060405180910390fd5b611037612578565b73ffffffffffffffffffffffffffffffffffffffff166002600084815260200190815260200160002060009054906101000a900473ffffffffffffffffffffffffffffffffffffffff1673ffffffffffffffffffffffffffffffffffffffff16146110ed576040517f08c379a00000000000000000000000000000000000000000000000000000000081526004018080602001828103825260348152602001806129ca6034913960400191505060405180910390fd5b6005600083815260200190815260200160002060009054906101000a900460ff16611163576040517f08c379a0000000000000000000000000000000000000000000000000000000008152600401808060200182810382526040815260200180612abf6040913960400191505060405180910390fd5b60008151905060008111156112be5760005b818110156112bc57600083828151811061118b57fe5b60200260200101519050600073ffffffffffffffffffffffffffffffffffffffff166002600083815260200190815260200160002060009054906101000a900473ffffffffffffffffffffffffffffffffffffffff1673ffffffffffffffffffffffffffffffffffffffff161415801561122357506004600082815260200190815260200160002060009054906101000a900460ff16155b156112ae5760016004600083815260200190815260200160002060006101000a81548160ff0219169083151502179055506006600086815260200190815260200160002054600660008381526020019081526020016000208190555080857f33974780998cd0a6a121380888197f6af20340bc338905596e0c8819ae461a7b60405160405180910390a35b508080600101915050611175565b505b505050565b60006004600083815260200190815260200160002060009054906101000a900460ff169050919050565b61131e7fb90ec3213bc54b34738ca7ad785b7e6275742931f3ddfa147171c27090643f3f611319612578565b6121e2565b611373576040517f08c379a0000000000000000000000000000000000000000000000000000000008152600401808060200182810382526037815260200180612c536037913960400191505060405180910390fd5b61137b612578565b73ffffffffffffffffffffffffffffffffffffffff166002600084815260200190815260200160002060009054906101000a900473ffffffffffffffffffffffffffffffffffffffff1673ffffffffffffffffffffffffffffffffffffffff1614611431576040517f08c379a00000000000000000000000000000000000000000000000000000000081526004018080602001828103825260348152602001806129ca6034913960400191505060405180910390fd5b600073ffffffffffffffffffffffffffffffffffffffff166002600083815260200190815260200160002060009054906101000a900473ffffffffffffffffffffffffffffffffffffffff1673ffffffffffffffffffffffffffffffffffffffff1614156114ea576040517f08c379a000000000000000000000000000000000000000000000000000000000815260040180806020018281038252602c815260200180612b2b602c913960400191505060405180910390fd5b6004600083815260200190815260200160002060009054906101000a900460ff1615611561576040517f08c379a000000000000000000000000000000000000000000000000000000000815260040180806020018281038252602c815260200180612aff602c913960400191505060405180910390fd5b6005600082815260200190815260200160002060009054906101000a900460ff166115d7576040517f08c379a0000000000000000000000000000000000000000000000000000000008152600401808060200182810382526046815260200180612a796046913960600191505060405180910390fd5b60016004600084815260200190815260200160002060006101000a81548160ff0219169083151502179055506006600082815260200190815260200160002054600660008481526020019081526020016000208190555080827ea67c7413e7cbd6fa0dfd556b6bfb0844428500ee38687ae6c65ecf371df4e260405160405180910390a35050565b6000806000838152602001908152602001600020600201549050919050565b6116a46000808481526020019081526020016000206002015461169f612578565b6121e2565b6116f9576040517f08c379a000000000000000000000000000000000000000000000000000000000815260040180806020018281038252602f81526020018061299b602f913960400191505060405180910390fd5b6117038282612580565b5050565b6117387fb90ec3213bc54b34738ca7ad785b7e6275742931f3ddfa147171c27090643f3f611733612578565b6121e2565b61178d576040517f08c379a0000000000000000000000000000000000000000000000000000000008152600401808060200182810382526037815260200180612c536037913960400191505060405180910390fd5b611795612578565b73ffffffffffffffffffffffffffffffffffffffff166002600084815260200190815260200160002060009054906101000a900473ffffffffffffffffffffffffffffffffffffffff1673ffffffffffffffffffffffffffffffffffffffff161461184b576040517f08c379a000000000000000000000000000000000000000000000000000000000815260040180806020018281038252602c815260200180612c27602c913960400191505060405180910390fd5b60008151905060008111156119925760005b8181101561199057600083828151811061187357fe5b60200260200101519050600073ffffffffffffffffffffffffffffffffffffffff166002600083815260200190815260200160002060009054906101000a900473ffffffffffffffffffffffffffffffffffffffff1673ffffffffffffffffffffffffffffffffffffffff161415801561190a57506004600082815260200190815260200160002060009054906101000a900460ff165b156119825760006004600083815260200190815260200160002060006101000a81548160ff02191690831515021790555080600660008381526020019081526020016000208190555080857fd9446a40bb30eb7c68d45f553a8344a460470e6120827bbaa22bb731e455c3ed60405160405180910390a35b50808060010191505061185d565b505b505050565b6119c87fb90ec3213bc54b34738ca7ad785b7e6275742931f3ddfa147171c27090643f3f6119c3612578565b6121e2565b611a1d576040517f08c379a0000000000000000000000000000000000000000000000000000000008152600401808060200182810382526037815260200180612c536037913960400191505060405180910390fd5b611a25612578565b73ffffffffffffffffffffffffffffffffffffffff166002600084815260200190815260200160002060009054906101000a900473ffffffffffffffffffffffffffffffffffffffff1673ffffffffffffffffffffffffffffffffffffffff1614611adb576040517f08c379a000000000000000000000000000000000000000000000000000000000815260040180806020018281038252602c815260200180612c27602c913960400191505060405180910390fd5b600073ffffffffffffffffffffffffffffffffffffffff166002600083815260200190815260200160002060009054906101000a900473ffffffffffffffffffffffffffffffffffffffff1673ffffffffffffffffffffffffffffffffffffffff161415611b94576040517f08c379a000000000000000000000000000000000000000000000000000000000815260040180806020018281038252603c815260200180612b87603c913960400191505060405180910390fd5b6004600083815260200190815260200160002060009054906101000a900460ff16611c0a576040517f08c379a0000000000000000000000000000000000000000000000000000000008152600401808060200182810382526036815260200180612a436036913960400191505060405180910390fd5b60006004600084815260200190815260200160002060006101000a81548160ff02191690831515021790555081600660008481526020019081526020016000208190555080827f8b572be57bab095e1edbcb8666bc126bab7989981d0724d3a8d44966f02e658360405160405180910390a35050565b611c88612578565b73ffffffffffffffffffffffffffffffffffffffff168173ffffffffffffffffffffffffffffffffffffffff1614611d0b576040517f08c379a000000000000000000000000000000000000000000000000000000000815260040180806020018281038252602f815260200180612cbf602f913960400191505060405180910390fd5b611d158282612613565b5050565b611d21612578565b73ffffffffffffffffffffffffffffffffffffffff166002600084815260200190815260200160002060009054906101000a900473ffffffffffffffffffffffffffffffffffffffff1673ffffffffffffffffffffffffffffffffffffffff1614611dd7576040517f08c379a0000000000000000000000000000000000000000000000000000000008152600401808060200182810382526037815260200180612bf06037913960400191505060405180910390fd5b60006002600084815260200190815260200160002060006101000a81548173ffffffffffffffffffffffffffffffffffffffff021916908373ffffffffffffffffffffffffffffffffffffffff160217905550600060076000848152602001908152602001600020819055506000600360008481526020019081526020016000208190555060006004600084815260200190815260200160002060006101000a81548160ff021916908315150217905550600060066000848152602001908152602001600020819055506000815190506000811115611fba5760005b81811015611fb8576000838281518110611ec957fe5b60200260200101519050600073ffffffffffffffffffffffffffffffffffffffff166002600083815260200190815260200160002060009054906101000a900473ffffffffffffffffffffffffffffffffffffffff1673ffffffffffffffffffffffffffffffffffffffff1614158015611f6057506004600082815260200190815260200160002060009054906101000a900460ff165b15611faa5780600660008381526020019081526020016000208190555060006004600083815260200190815260200160002060006101000a81548160ff0219169083151502179055505b508080600101915050611eb3565b505b827f6958d9a5b92b38869062a9e904dc1f2343e1f6b7cd07d5bee19a677b1f253bd2836040518080602001828103825283818151815260200191508051906020019060200280838360005b83811015612020578082015181840152602081019050612005565b505050509050019250505060405180910390a2505050565b600060036000838152602001908152602001600020549050919050565b600060076000838152602001908152602001600020549050919050565b6120866000801b612081612578565b6121e2565b6120db576040517f08c379a00000000000000000000000000000000000000000000000000000000081526004018080602001828103825260458152602001806129fe6045913960600191505060405180910390fd5b600015156008600083815260200190815260200160002060009054906101000a900460ff16151514612158576040517f08c379a000000000000000000000000000000000000000000000000000000000815260040180806020018281038252602d815260200180612bc3602d913960400191505060405180910390fd5b60016008600083815260200190815260200160002060006101000a81548160ff02191690831515021790555050565b60006008600083815260200190815260200160002060009054906101000a900460ff169050919050565b60006121da826000808681526020019081526020016000206000016126a690919063ffffffff16565b905092915050565b600061220b826000808681526020019081526020016000206000016126c090919063ffffffff16565b905092915050565b7fb90ec3213bc54b34738ca7ad785b7e6275742931f3ddfa147171c27090643f3f81565b6000801b81565b60006002600083815260200190815260200160002060009054906101000a900473ffffffffffffffffffffffffffffffffffffffff169050919050565b6122ac7fb90ec3213bc54b34738ca7ad785b7e6275742931f3ddfa147171c27090643f3f6122a7612578565b6121e2565b15612302576040517f08c379a0000000000000000000000000000000000000000000000000000000008152600401808060200182810382526035815260200180612c8a6035913960400191505060405180910390fd5b6123337fb90ec3213bc54b34738ca7ad785b7e6275742931f3ddfa147171c27090643f3f61232e612578565b6126f0565b565b60006123546000808481526020019081526020016000206000016126fe565b9050919050565b6123816000808481526020019081526020016000206002015461237c612578565b6121e2565b6123d6576040517f08c379a0000000000000000000000000000000000000000000000000000000008152600401808060200182810382526030815260200180612b576030913960400191505060405180910390fd5b6123e08282612613565b5050565b606060018054600181600116156101000203166002900480601f01602080910402602001604051908101604052809291908181526020018280546001816001161561010002031660029004801561247c5780601f106124515761010080835404028352916020019161247c565b820191906000526020600020905b81548152906001019060200180831161245f57829003601f168201915b5050505050905090565b60006005600083815260200190815260200160002060009054906101000a900460ff169050919050565b6124c46000801b6124bf612578565b6121e2565b612519576040517f08c379a00000000000000000000000000000000000000000000000000000000081526004018080602001828103825260458152602001806129fe6045913960600191505060405180910390fd5b60006008600083815260200190815260200160002060006101000a81548160ff02191690831515021790555050565b6000612570836000018373ffffffffffffffffffffffffffffffffffffffff1660001b612713565b905092915050565b600033905090565b6125a78160008085815260200190815260200160002060000161254890919063ffffffff16565b1561260f576125b4612578565b73ffffffffffffffffffffffffffffffffffffffff168173ffffffffffffffffffffffffffffffffffffffff16837f2f8788117e7eff1d82e926ec794901d17c78024a50270940304540a733656f0d60405160405180910390a45b5050565b61263a8160008085815260200190815260200160002060000161278390919063ffffffff16565b156126a257612647612578565b73ffffffffffffffffffffffffffffffffffffffff168173ffffffffffffffffffffffffffffffffffffffff16837ff6391f5c32d9c69d2a47ea670b442974b53935d1edc7fd64eb21e047a839171b60405160405180910390a45b5050565b60006126b583600001836127b3565b60001c905092915050565b60006126e8836000018373ffffffffffffffffffffffffffffffffffffffff1660001b612836565b905092915050565b6126fa8282612580565b5050565b600061270c82600001612859565b9050919050565b600061271f8383612836565b61277857826000018290806001815401808255809150506001900390600052602060002001600090919091909150558260000180549050836001016000848152602001908152602001600020819055506001905061277d565b600090505b92915050565b60006127ab836000018373ffffffffffffffffffffffffffffffffffffffff1660001b61286a565b905092915050565b600081836000018054905011612814576040517f08c379a00000000000000000000000000000000000000000000000000000000081526004018080602001828103825260228152602001806129536022913960400191505060405180910390fd5b82600001828154811061282357fe5b9060005260206000200154905092915050565b600080836001016000848152602001908152602001600020541415905092915050565b600081600001805490509050919050565b6000808360010160008481526020019081526020016000205490506000811461294657600060018203905060006001866000018054905003905060008660000182815481106128b557fe5b90600052602060002001549050808760000184815481106128d257fe5b906000526020600020018190555060018301876001016000838152602001908152602001600020819055508660000180548061290a57fe5b6001900381819060005260206000200160009055905586600101600087815260200190815260200160002060009055600194505050505061294c565b60009150505b9291505056fe456e756d657261626c655365743a20696e646578206f7574206f6620626f756e64735370617469616c4173736574733a2073746f72616765206d75737420626520616c6c6f776564416363657373436f6e74726f6c3a2073656e646572206d75737420626520616e2061646d696e20746f206772616e745370617469616c4173736574733a2067656f4449444964206d757374206265206f776e6564206279206974732063726561746f725370617469616c4173736574733a206d75737420686176652061646d696e20726f6c6520746f206564697420616c6c6f776564206f6666636861696e2073746f72616765735370617469616c4173736574733a2047656f44494420646f6573206e6f742068617665206120706172656e7420746f2072656d6f76655370617469616c4173736574733a20706172656e7447656f4449444964206d7573742062652061626c6520746f20626520706172656e7420286120436f6c6c656374696f6e295370617469616c4173736574733a2067656f4449444964206d7573742062652061626c6520746f20626520706172656e7420286120436f6c6c656374696f6e295370617469616c4173736574733a2067656f444944496420616c726561647920686173206120706172656e745370617469616c4173736574733a20706172656e7447656f444944496420646f6573206e6f74206578697374416363657373436f6e74726f6c3a2073656e646572206d75737420626520616e2061646d696e20746f207265766f6b655370617469616c4173736574733a2047656f44494420746f2062652072656d6f76656420617320706172656e7420646f6573206e6f742065786973745370617469616c4173736574733a2073746f72616765206d757374206e6f7420626520616374697665207965745370617469616c4173736574733a2063616c6c6572206973206e6f74206f776e6572206f6620746865205370617469616c2041737365745370617469616c4173736574733a206964206d757374206e6f74206861766520616e206f776e6572207965745370617469616c4173736574733a206d7573742068617665206461746120737570706c69657220726f6c6520746f2072656769737465725370617469616c4173736574733a206d757374206e6f742068617665206120444154415f535550504c49455220726f6c6520796574416363657373436f6e74726f6c3a2063616e206f6e6c792072656e6f756e636520726f6c657320666f722073656c66a2646970667358221220746183d7e63769f15ab273a3271c5e350ee6d37d6ba57d1bbaaa489e166ce36d64736f6c634300060c0033",
  "immutableReferences": {},
  "source": "// SPDX-License-Identifier: APACHE OR MIT\npragma solidity ^0.6.0;\n\nimport \"@openzeppelin/contracts/access/AccessControl.sol\";\nimport \"@openzeppelin/contracts/GSN/Context.sol\";\n\n/**\n * @dev {SpatialAssets} registry\n * This contract uses {AccessControl} to lock permissioned functions using the\n * different roles - head to its documentation for details.\n *\n * The account that deploys the contract will be granted the 'DATA_SUPPLIER' as well as the default admin role, which will let it grant\n * 'DATA_SUPPLIER' roles to other accounts\n */\ncontract SpatialAssets is Context, AccessControl {\n    /**\n     * @dev Emitted when Spatial Assets of id `id` are transferred to `to``.\n     */\n    event SpatialAssetRegistered(address indexed to, uint256 indexed geoDIDId, uint256 indexed cid, bytes32 offChainStorage, uint256 root, bool canBeParent);\n\n    /**\n     * @dev Emitted when Spatial Assets of id `id` are deactivated.\n     */\n    event SpatialAssetDeactivated(uint256 indexed geoDIDId, uint256[] childrenToRemove);\n\n    /**\n     * @dev Emitted when a parent geodid is added to a node\n     */\n    event ParentAdded(uint256 indexed geoDIDId, uint256 indexed parentGeoDIDId);\n\n    /**\n     * @dev Emitted when a children geodid is added to a node\n     */\n    event ChildrenAdded(uint256 indexed geoDIDId, uint256 indexed childrenGeoDIDId);\n\n    /**\n     * @dev Emitted when a parent geodid is removed from a node\n     */\n    event ParentRemoved(uint256 indexed geoDIDId, uint256 indexed parentGeoDIDId);\n\n    /**\n     * @dev Emitted when a children geodid is removed from a node\n     */\n    event ChildrenRemoved(uint256 indexed geoDIDId, uint256 indexed childrenGeoDIDId);\n\n    bytes32 public constant DATA_SUPPLIER = keccak256(\"DATA_SUPPLIER\");\n\n    string private _uri;\n\n    // Mapping from GeodidID to registrant\n    mapping (uint256 => address) private _owners;\n    \n    // Mapping from GeodidID to Cid\n    mapping (uint256 => uint256) private _cids;\n\n    // Mapping from GeodidID to parenthood status\n    mapping (uint256 => bool) private _hasParent;\n\n    // Mapping from GeodidID to parenthood type\n    mapping (uint256 => bool) private _canBeParent;\n    \n    // Mapping from GeodidID to root GeoDID\n    mapping (uint256 => uint256) private _root;\n\n    // Mapping from id to spatial asset external storage\n    mapping (uint256 => bytes32) private _externalStorage;\n\n    // Allowed external storages signatures\n    mapping (bytes32 => bool) private _allowedStorages;\n\n\n    /**\n     * @dev Grants `DEFAULT_ADMIN_ROLE`, `DATA_SUPPLIER` to the account that\n     * deploys the contract.\n     */\n    constructor(string memory uri) public {\n        _setURI(uri);\n        _setupRole(DEFAULT_ADMIN_ROLE, _msgSender());\n        _setupRole(DATA_SUPPLIER, _msgSender());\n\n    }\n\n    /**\n     * @dev Registers a new user with the ability to register a spatial asset.\n     */\n    function registerRole() public {\n        require(!hasRole(DATA_SUPPLIER, _msgSender()), \"SpatialAssets: must not have a DATA_SUPPLIER role yet\");\n        _setupRole(DATA_SUPPLIER, _msgSender());\n    }\n\n    /**\n     * @dev Registers a new storage that can accept GeoDID document creation\n     */\n    function enableStorage(bytes32 offChainStorage) public {\n        require(hasRole(DEFAULT_ADMIN_ROLE, _msgSender()), \"SpatialAssets: must have admin role to edit allowed offchain storages\");\n        require(_allowedStorages[offChainStorage]== false, \"SpatialAssets: storage must not be active yet\");\n        _allowedStorages[offChainStorage] = true;\n    }\n\n    /**\n     * @dev Disables an existing storage\n     */\n    function disableStorage(bytes32 offChainStorage) public {\n        require(hasRole(DEFAULT_ADMIN_ROLE, _msgSender()), \"SpatialAssets: must have admin role to edit allowed offchain storages\");\n        _allowedStorages[offChainStorage] = false;\n    }\n\n\n    /**\n     * @dev Registers one spatial asset with external storage 'data' and assigns them to `account`.\n     *\n     * Emits a {SpatialAssetRegistered} event.\n     */\n    function registerSpatialAsset(address owner, uint256 geoDIDId, uint256 parentGeoDIDId , uint256[] memory childrenGeoDIDIds, uint256 cid, bytes32 offChainStorage, uint256 geoDIDtype) public {\n        require(hasRole(DATA_SUPPLIER, _msgSender()), \"SpatialAssets: must have data supplier role to register\");\n        require(allowedStorages(offChainStorage), \"SpatialAssets: storage must be allowed\");\n        require(_owners[geoDIDId] == address(0), \"SpatialAssets: id must not have an owner yet\");\n        require(geoDIDtype  == 0 || geoDIDtype == 1, \"Spatial Assets: wrong geodidtype\");\n\n        _cids[geoDIDId] =cid;\n        _owners[geoDIDId] = owner;\n        _externalStorage[geoDIDId] = offChainStorage;\n\n        if (geoDIDtype == 0) {\n            _canBeParent[geoDIDId] = true;\n        } else if (geoDIDtype == 1) {\n            _canBeParent[geoDIDId] = false;\n        }\n\n        if (parentGeoDIDId == 0) {\n            _hasParent[geoDIDId] = false;\n            _root[geoDIDId] = geoDIDId;\n        emit SpatialAssetRegistered(owner, geoDIDId, cid, offChainStorage, geoDIDId, _canBeParent[geoDIDId]);\n        } else {\n            _hasParent[geoDIDId] = true;\n            emit SpatialAssetRegistered(owner, geoDIDId, cid, offChainStorage, _root[parentGeoDIDId], _canBeParent[geoDIDId]);\n            emit ParentAdded(geoDIDId, parentGeoDIDId);\n        }\n\n        uint256 childrensLen = childrenGeoDIDIds.length;\n\n        if (childrensLen > 0 && _canBeParent[geoDIDId]){\n            for(uint256 j=0; j < childrensLen; j++) {\n                emit ChildrenAdded(geoDIDId, childrenGeoDIDIds[j]);\n            }\n        }\n    }\n\n\n    /**\n     * @dev Adds children GeoDIDs to an already existent geoDID\n     *\n     * Emits a {ChildrenAdded} event.\n     */\n    function addChildrenGeoDIDs(uint256 geoDIDId, uint256[] memory childrenGeoDIDIds) public {\n        require(hasRole(DATA_SUPPLIER, _msgSender()), \"SpatialAssets: must have data supplier role to register\");\n        require(_owners[geoDIDId] == _msgSender(), \"SpatialAssets: geoDIDId must be owned by its creator\");\n        require(_canBeParent[geoDIDId], \"SpatialAssets: geoDIDId must be able to be parent (a Collection)\");\n\n        uint256 childrensLen = childrenGeoDIDIds.length;\n\n        if (childrensLen > 0){\n            for(uint256 j=0; j < childrensLen; j++) {\n                uint256 childrenGeoDID = childrenGeoDIDIds[j];\n                if (_owners[childrenGeoDID] != address(0) && !_hasParent[childrenGeoDID]) {\n                    _hasParent[childrenGeoDID] = true;\n                    _root[childrenGeoDID] = _root[geoDIDId];\n                    emit ChildrenAdded(geoDIDId, childrenGeoDID);\n                }\n            }\n        }\n    }\n\n    /**\n     * @dev Adds a parent GeoDID to an already existent geoDID\n     *\n     * Emits a {ParentAdded} event.\n     */\n    function addParentGeoDID(uint256 geoDIDId, uint256 parentGeoDIDId) public {\n        require(hasRole(DATA_SUPPLIER, _msgSender()), \"SpatialAssets: must have data supplier role to register\");\n        require(_owners[geoDIDId] == _msgSender(), \"SpatialAssets: geoDIDId must be owned by its creator\");\n        require(_owners[parentGeoDIDId] != address(0), \"SpatialAssets: parentGeoDIDId does not exist\");\n        require(!_hasParent[geoDIDId], \"SpatialAssets: geoDIDId already has a parent\");\n        require(_canBeParent[parentGeoDIDId], \"SpatialAssets: parentGeoDIDId must be able to be parent (a Collection)\");\n\n        _hasParent[geoDIDId] = true;\n        _root[geoDIDId] = _root[parentGeoDIDId];\n        emit ParentAdded(geoDIDId, parentGeoDIDId);\n    }\n\n    \n    /**\n     * @dev Removes childrenGeoDIDs from a geoDID\n     *\n     * Emits a {ChildrenRemoved} event.\n     */\n    function removeChildrenGeoDIDs(uint256 geoDIDId, uint256[] memory childrenGeoDIDIds) public {\n        require(hasRole(DATA_SUPPLIER, _msgSender()), \"SpatialAssets: must have data supplier role to register\");\n        require(_owners[geoDIDId] == _msgSender(), \"SpatialAssets: id must not have an owner yet\");\n\n        uint256 childrensLen = childrenGeoDIDIds.length;\n\n        if (childrensLen > 0){\n            for(uint256 j=0; j < childrensLen; j++) {\n                uint256 childrenGeoDID = childrenGeoDIDIds[j];\n                if (_owners[childrenGeoDID] != address(0) && _hasParent[childrenGeoDID]) {\n                    _hasParent[childrenGeoDID] = false;\n                    _root[childrenGeoDID] = childrenGeoDID;\n                    emit ChildrenRemoved(geoDIDId, childrenGeoDID);\n                }\n            }\n        }\n    }\n\n\n     /**\n     * @dev Removes a parent GeoDID from an already existent geoDID\n     *\n     * Emits a {ParentAdded} event.\n     */\n    function removeParentGeoDID(uint256 geoDIDId, uint256 parentGeoDIDId) public {\n        require(hasRole(DATA_SUPPLIER, _msgSender()), \"SpatialAssets: must have data supplier role to register\");\n        require(_owners[geoDIDId] == _msgSender(), \"SpatialAssets: id must not have an owner yet\");\n        require(_owners[parentGeoDIDId] != address(0), \"SpatialAssets: GeoDID to be removed as parent does not exist\");\n        require(_hasParent[geoDIDId], \"SpatialAssets: GeoDID does not have a parent to remove\");\n\n        _hasParent[geoDIDId] = false;\n        _root[geoDIDId] = geoDIDId;\n        \n        emit ParentRemoved(geoDIDId, parentGeoDIDId);\n    }\n\n    /**\n     * @dev De-registers a spatial asset\n     */\n     function deactivateSpatialAsset(uint256 geoDIDId, uint256[] memory childrenToRemove) public {\n        require(\n            _owners[geoDIDId] == _msgSender(),\"SpatialAssets: caller is not owner of the Spatial Asset\"\n        );\n        _owners[geoDIDId] = address(0);\n        _externalStorage[geoDIDId] = \"\";\n        _cids[geoDIDId] = 0;\n        _hasParent[geoDIDId] = false;\n        _root[geoDIDId] = 0;\n\n        uint256 childrensLen = childrenToRemove.length;\n\n        if (childrensLen > 0){\n            for(uint256 j=0; j < childrensLen; j++) {\n                uint256 childrenGeoDID = childrenToRemove[j];\n                if (_owners[childrenGeoDID] != address(0) && _hasParent[childrenGeoDID]) {\n                    _root[childrenGeoDID] = childrenGeoDID;\n                    _hasParent[childrenGeoDID] = false;\n                }\n            }\n        }\n\n        emit SpatialAssetDeactivated(geoDIDId, childrenToRemove);\n    }\n  \n    /**\n     * @dev Sets a new URI for all the spatial asset types\n     */\n    function _setURI(string memory newuri) internal {\n        _uri = newuri;\n    }\n\n    function idToOwner(uint256 id) public view returns (address) {\n        return _owners[id];\n    }\n\n    function idToCid(uint256 id) public view returns (uint256) {\n        return _cids[id];\n    }\n\n    function idToCanBeParent(uint256 id) public view returns (bool) {\n        return _canBeParent[id];\n    }\n\n    function idToHasParent(uint256 id) public view returns (bool) {\n        return _hasParent[id];\n    }\n\n    function idToExternalStorage(uint256 id) public view returns (bytes32) {\n        return _externalStorage[id];\n    }\n\n    function allowedStorages(bytes32 offChainStorage) public view returns (bool) {\n        return _allowedStorages[offChainStorage];\n    }\n\n    function uri() public view returns (string memory) {\n        return _uri;\n    }\n}\n",
  "sourcePath": "/Users/jaredchilders/Astral/astralprotocol/packages/contracts/contracts/SpatialAssets.sol",
  "compiler": {
    "name": "solc",
    "version": "0.6.12+commit.27d51765.Emscripten.clang"
  },
  "schemaVersion": "3.3.2",
  "updatedAt": "2021-02-18T15:51:45.485Z",
  "networkType": "ethereum",
  "devdoc": {
    "details": "{SpatialAssets} registry This contract uses {AccessControl} to lock permissioned functions using the different roles - head to its documentation for details. The account that deploys the contract will be granted the 'DATA_SUPPLIER' as well as the default admin role, which will let it grant 'DATA_SUPPLIER' roles to other accounts",
    "events": {
      "ChildrenAdded(uint256,uint256)": {
        "details": "Emitted when a children geodid is added to a node"
      },
      "ChildrenRemoved(uint256,uint256)": {
        "details": "Emitted when a children geodid is removed from a node"
      },
      "ParentAdded(uint256,uint256)": {
        "details": "Emitted when a parent geodid is added to a node"
      },
      "ParentRemoved(uint256,uint256)": {
        "details": "Emitted when a parent geodid is removed from a node"
      },
      "SpatialAssetDeactivated(uint256,uint256[])": {
        "details": "Emitted when Spatial Assets of id `id` are deactivated."
      },
      "SpatialAssetRegistered(address,uint256,uint256,bytes32,uint256,bool)": {
        "details": "Emitted when Spatial Assets of id `id` are transferred to `to``."
      }
    },
    "kind": "dev",
    "methods": {
      "addChildrenGeoDIDs(uint256,uint256[])": {
        "details": "Adds children GeoDIDs to an already existent geoDID Emits a {ChildrenAdded} event."
      },
      "addParentGeoDID(uint256,uint256)": {
        "details": "Adds a parent GeoDID to an already existent geoDID Emits a {ParentAdded} event."
      },
      "constructor": {
        "details": "Grants `DEFAULT_ADMIN_ROLE`, `DATA_SUPPLIER` to the account that deploys the contract."
      },
      "deactivateSpatialAsset(uint256,uint256[])": {
        "details": "De-registers a spatial asset"
      },
      "disableStorage(bytes32)": {
        "details": "Disables an existing storage"
      },
      "enableStorage(bytes32)": {
        "details": "Registers a new storage that can accept GeoDID document creation"
      },
      "getRoleAdmin(bytes32)": {
        "details": "Returns the admin role that controls `role`. See {grantRole} and {revokeRole}. To change a role's admin, use {_setRoleAdmin}."
      },
      "getRoleMember(bytes32,uint256)": {
        "details": "Returns one of the accounts that have `role`. `index` must be a value between 0 and {getRoleMemberCount}, non-inclusive. Role bearers are not sorted in any particular way, and their ordering may change at any point. WARNING: When using {getRoleMember} and {getRoleMemberCount}, make sure you perform all queries on the same block. See the following https://forum.openzeppelin.com/t/iterating-over-elements-on-enumerableset-in-openzeppelin-contracts/2296[forum post] for more information."
      },
      "getRoleMemberCount(bytes32)": {
        "details": "Returns the number of accounts that have `role`. Can be used together with {getRoleMember} to enumerate all bearers of a role."
      },
      "grantRole(bytes32,address)": {
        "details": "Grants `role` to `account`. If `account` had not been already granted `role`, emits a {RoleGranted} event. Requirements: - the caller must have ``role``'s admin role."
      },
      "hasRole(bytes32,address)": {
        "details": "Returns `true` if `account` has been granted `role`."
      },
      "registerRole()": {
        "details": "Registers a new user with the ability to register a spatial asset."
      },
      "registerSpatialAsset(address,uint256,uint256,uint256[],uint256,bytes32,uint256)": {
        "details": "Registers one spatial asset with external storage 'data' and assigns them to `account`. Emits a {SpatialAssetRegistered} event."
      },
      "removeChildrenGeoDIDs(uint256,uint256[])": {
        "details": "Removes childrenGeoDIDs from a geoDID Emits a {ChildrenRemoved} event."
      },
      "removeParentGeoDID(uint256,uint256)": {
        "details": "Removes a parent GeoDID from an already existent geoDID Emits a {ParentAdded} event."
      },
      "renounceRole(bytes32,address)": {
        "details": "Revokes `role` from the calling account. Roles are often managed via {grantRole} and {revokeRole}: this function's purpose is to provide a mechanism for accounts to lose their privileges if they are compromised (such as when a trusted device is misplaced). If the calling account had been granted `role`, emits a {RoleRevoked} event. Requirements: - the caller must be `account`."
      },
      "revokeRole(bytes32,address)": {
        "details": "Revokes `role` from `account`. If `account` had been granted `role`, emits a {RoleRevoked} event. Requirements: - the caller must have ``role``'s admin role."
      }
    },
    "version": 1
  },
  "userdoc": {
    "kind": "user",
    "methods": {},
    "version": 1
  }
}