{
  "contractName": "SpatialAssets",
  "abi": [
    {
      "inputs": [
        {
          "internalType": "string",
          "name": "uri",
          "type": "string"
        }
      ],
      "stateMutability": "nonpayable",
      "type": "constructor"
    },
    {
      "anonymous": false,
      "inputs": [
        {
          "indexed": true,
          "internalType": "uint256",
          "name": "geoDIDId",
          "type": "uint256"
        },
        {
          "indexed": true,
          "internalType": "uint256",
          "name": "childrenGeoDIDId",
          "type": "uint256"
        }
      ],
      "name": "ChildrenAdded",
      "type": "event"
    },
    {
      "anonymous": false,
      "inputs": [
        {
          "indexed": true,
          "internalType": "uint256",
          "name": "geoDIDId",
          "type": "uint256"
        },
        {
          "indexed": true,
          "internalType": "uint256",
          "name": "childrenGeoDIDId",
          "type": "uint256"
        }
      ],
      "name": "ChildrenRemoved",
      "type": "event"
    },
    {
      "anonymous": false,
      "inputs": [
        {
          "indexed": true,
          "internalType": "uint256",
          "name": "geoDIDId",
          "type": "uint256"
        },
        {
          "indexed": true,
          "internalType": "uint256",
          "name": "parentGeoDIDId",
          "type": "uint256"
        }
      ],
      "name": "ParentAdded",
      "type": "event"
    },
    {
      "anonymous": false,
      "inputs": [
        {
          "indexed": true,
          "internalType": "uint256",
          "name": "geoDIDId",
          "type": "uint256"
        },
        {
          "indexed": true,
          "internalType": "uint256",
          "name": "parentGeoDIDId",
          "type": "uint256"
        }
      ],
      "name": "ParentRemoved",
      "type": "event"
    },
    {
      "anonymous": false,
      "inputs": [
        {
          "indexed": true,
          "internalType": "bytes32",
          "name": "role",
          "type": "bytes32"
        },
        {
          "indexed": true,
          "internalType": "bytes32",
          "name": "previousAdminRole",
          "type": "bytes32"
        },
        {
          "indexed": true,
          "internalType": "bytes32",
          "name": "newAdminRole",
          "type": "bytes32"
        }
      ],
      "name": "RoleAdminChanged",
      "type": "event"
    },
    {
      "anonymous": false,
      "inputs": [
        {
          "indexed": true,
          "internalType": "bytes32",
          "name": "role",
          "type": "bytes32"
        },
        {
          "indexed": true,
          "internalType": "address",
          "name": "account",
          "type": "address"
        },
        {
          "indexed": true,
          "internalType": "address",
          "name": "sender",
          "type": "address"
        }
      ],
      "name": "RoleGranted",
      "type": "event"
    },
    {
      "anonymous": false,
      "inputs": [
        {
          "indexed": true,
          "internalType": "bytes32",
          "name": "role",
          "type": "bytes32"
        },
        {
          "indexed": true,
          "internalType": "address",
          "name": "account",
          "type": "address"
        },
        {
          "indexed": true,
          "internalType": "address",
          "name": "sender",
          "type": "address"
        }
      ],
      "name": "RoleRevoked",
      "type": "event"
    },
    {
      "anonymous": false,
      "inputs": [
        {
          "indexed": true,
          "internalType": "uint256",
          "name": "geoDIDId",
          "type": "uint256"
        },
        {
          "indexed": false,
          "internalType": "uint256[]",
          "name": "childrenToRemove",
          "type": "uint256[]"
        }
      ],
      "name": "SpatialAssetDeactivated",
      "type": "event"
    },
    {
      "anonymous": false,
      "inputs": [
        {
          "indexed": true,
          "internalType": "address",
          "name": "to",
          "type": "address"
        },
        {
          "indexed": true,
          "internalType": "uint256",
          "name": "geoDIDId",
          "type": "uint256"
        },
        {
          "indexed": true,
          "internalType": "uint256",
          "name": "cid",
          "type": "uint256"
        },
        {
          "indexed": false,
          "internalType": "bytes32",
          "name": "offChainStorage",
          "type": "bytes32"
        },
        {
          "indexed": false,
          "internalType": "bool",
          "name": "root",
          "type": "bool"
        }
      ],
      "name": "SpatialAssetRegistered",
      "type": "event"
    },
    {
      "inputs": [],
      "name": "DATA_SUPPLIER",
      "outputs": [
        {
          "internalType": "bytes32",
          "name": "",
          "type": "bytes32"
        }
      ],
      "stateMutability": "view",
      "type": "function",
      "constant": true
    },
    {
      "inputs": [],
      "name": "DEFAULT_ADMIN_ROLE",
      "outputs": [
        {
          "internalType": "bytes32",
          "name": "",
          "type": "bytes32"
        }
      ],
      "stateMutability": "view",
      "type": "function",
      "constant": true
    },
    {
      "inputs": [
        {
          "internalType": "bytes32",
          "name": "role",
          "type": "bytes32"
        }
      ],
      "name": "getRoleAdmin",
      "outputs": [
        {
          "internalType": "bytes32",
          "name": "",
          "type": "bytes32"
        }
      ],
      "stateMutability": "view",
      "type": "function",
      "constant": true
    },
    {
      "inputs": [
        {
          "internalType": "bytes32",
          "name": "role",
          "type": "bytes32"
        },
        {
          "internalType": "uint256",
          "name": "index",
          "type": "uint256"
        }
      ],
      "name": "getRoleMember",
      "outputs": [
        {
          "internalType": "address",
          "name": "",
          "type": "address"
        }
      ],
      "stateMutability": "view",
      "type": "function",
      "constant": true
    },
    {
      "inputs": [
        {
          "internalType": "bytes32",
          "name": "role",
          "type": "bytes32"
        }
      ],
      "name": "getRoleMemberCount",
      "outputs": [
        {
          "internalType": "uint256",
          "name": "",
          "type": "uint256"
        }
      ],
      "stateMutability": "view",
      "type": "function",
      "constant": true
    },
    {
      "inputs": [
        {
          "internalType": "bytes32",
          "name": "role",
          "type": "bytes32"
        },
        {
          "internalType": "address",
          "name": "account",
          "type": "address"
        }
      ],
      "name": "grantRole",
      "outputs": [],
      "stateMutability": "nonpayable",
      "type": "function"
    },
    {
      "inputs": [
        {
          "internalType": "bytes32",
          "name": "role",
          "type": "bytes32"
        },
        {
          "internalType": "address",
          "name": "account",
          "type": "address"
        }
      ],
      "name": "hasRole",
      "outputs": [
        {
          "internalType": "bool",
          "name": "",
          "type": "bool"
        }
      ],
      "stateMutability": "view",
      "type": "function",
      "constant": true
    },
    {
      "inputs": [
        {
          "internalType": "bytes32",
          "name": "role",
          "type": "bytes32"
        },
        {
          "internalType": "address",
          "name": "account",
          "type": "address"
        }
      ],
      "name": "renounceRole",
      "outputs": [],
      "stateMutability": "nonpayable",
      "type": "function"
    },
    {
      "inputs": [
        {
          "internalType": "bytes32",
          "name": "role",
          "type": "bytes32"
        },
        {
          "internalType": "address",
          "name": "account",
          "type": "address"
        }
      ],
      "name": "revokeRole",
      "outputs": [],
      "stateMutability": "nonpayable",
      "type": "function"
    },
    {
      "inputs": [],
      "name": "registerRole",
      "outputs": [],
      "stateMutability": "nonpayable",
      "type": "function"
    },
    {
      "inputs": [
        {
          "internalType": "bytes32",
          "name": "offChainStorage",
          "type": "bytes32"
        }
      ],
      "name": "enableStorage",
      "outputs": [],
      "stateMutability": "nonpayable",
      "type": "function"
    },
    {
      "inputs": [
        {
          "internalType": "bytes32",
          "name": "offChainStorage",
          "type": "bytes32"
        }
      ],
      "name": "disableStorage",
      "outputs": [],
      "stateMutability": "nonpayable",
      "type": "function"
    },
    {
      "inputs": [
        {
          "internalType": "address",
          "name": "owner",
          "type": "address"
        },
        {
          "internalType": "uint256",
          "name": "geoDIDId",
          "type": "uint256"
        },
        {
          "internalType": "uint256",
          "name": "parentGeoDIDId",
          "type": "uint256"
        },
        {
          "internalType": "uint256[]",
          "name": "childrenGeoDIDIds",
          "type": "uint256[]"
        },
        {
          "internalType": "uint256",
          "name": "cid",
          "type": "uint256"
        },
        {
          "internalType": "bytes32",
          "name": "offChainStorage",
          "type": "bytes32"
        }
      ],
      "name": "registerSpatialAsset",
      "outputs": [],
      "stateMutability": "nonpayable",
      "type": "function"
    },
    {
      "inputs": [
        {
          "internalType": "uint256",
          "name": "geoDIDId",
          "type": "uint256"
        },
        {
          "internalType": "uint256[]",
          "name": "childrenGeoDIDIds",
          "type": "uint256[]"
        }
      ],
      "name": "addChildrenGeoDIDs",
      "outputs": [],
      "stateMutability": "nonpayable",
      "type": "function"
    },
    {
      "inputs": [
        {
          "internalType": "uint256",
          "name": "geoDIDId",
          "type": "uint256"
        },
        {
          "internalType": "uint256",
          "name": "parentGeoDIDId",
          "type": "uint256"
        }
      ],
      "name": "addParentGeoDID",
      "outputs": [],
      "stateMutability": "nonpayable",
      "type": "function"
    },
    {
      "inputs": [
        {
          "internalType": "uint256",
          "name": "geoDIDId",
          "type": "uint256"
        },
        {
          "internalType": "uint256[]",
          "name": "childrenGeoDIDIds",
          "type": "uint256[]"
        }
      ],
      "name": "removeChildrenGeoDIDs",
      "outputs": [],
      "stateMutability": "nonpayable",
      "type": "function"
    },
    {
      "inputs": [
        {
          "internalType": "uint256",
          "name": "geoDIDId",
          "type": "uint256"
        },
        {
          "internalType": "uint256",
          "name": "parentGeoDIDId",
          "type": "uint256"
        }
      ],
      "name": "removeParentGeoDID",
      "outputs": [],
      "stateMutability": "nonpayable",
      "type": "function"
    },
    {
      "inputs": [
        {
          "internalType": "uint256",
          "name": "geoDIDId",
          "type": "uint256"
        },
        {
          "internalType": "uint256[]",
          "name": "childrenToRemove",
          "type": "uint256[]"
        }
      ],
      "name": "deactivateSpatialAsset",
      "outputs": [],
      "stateMutability": "nonpayable",
      "type": "function"
    },
    {
      "inputs": [
        {
          "internalType": "uint256",
          "name": "id",
          "type": "uint256"
        }
      ],
      "name": "idToOwner",
      "outputs": [
        {
          "internalType": "address",
          "name": "",
          "type": "address"
        }
      ],
      "stateMutability": "view",
      "type": "function",
      "constant": true
    },
    {
      "inputs": [
        {
          "internalType": "uint256",
          "name": "id",
          "type": "uint256"
        }
      ],
      "name": "idToExternalStorage",
      "outputs": [
        {
          "internalType": "bytes32",
          "name": "",
          "type": "bytes32"
        }
      ],
      "stateMutability": "view",
      "type": "function",
      "constant": true
    },
    {
      "inputs": [
        {
          "internalType": "bytes32",
          "name": "offChainStorage",
          "type": "bytes32"
        }
      ],
      "name": "allowedStorages",
      "outputs": [
        {
          "internalType": "bool",
          "name": "",
          "type": "bool"
        }
      ],
      "stateMutability": "view",
      "type": "function",
      "constant": true
    },
    {
      "inputs": [],
      "name": "uri",
      "outputs": [
        {
          "internalType": "string",
          "name": "",
          "type": "string"
        }
      ],
      "stateMutability": "view",
      "type": "function",
      "constant": true
    }
  ],
  "bytecode": "0x60806040523480156200001157600080fd5b5060405162002a1938038062002a19833981810160405260208110156200003757600080fd5b81019080805160405193929190846401000000008211156200005857600080fd5b838201915060208201858111156200006f57600080fd5b82518660018202830111640100000000821117156200008d57600080fd5b8083526020830192505050908051906020019080838360005b83811015620000c3578082015181840152602081019050620000a6565b50505050905090810190601f168015620000f15780820380516001836020036101000a031916815260200191505b5060405250505062000109816200017560201b60201c565b6200012d6000801b620001216200019160201b60201c565b6200019960201b60201c565b6200016e7fb90ec3213bc54b34738ca7ad785b7e6275742931f3ddfa147171c27090643f3f620001626200019160201b60201c565b6200019960201b60201c565b50620003cd565b80600190805190602001906200018d92919062000327565b5050565b600033905090565b620001ab8282620001af60201b60201c565b5050565b620001dd816000808581526020019081526020016000206000016200025260201b62001f0f1790919060201c565b156200024e57620001f36200019160201b60201c565b73ffffffffffffffffffffffffffffffffffffffff168173ffffffffffffffffffffffffffffffffffffffff16837f2f8788117e7eff1d82e926ec794901d17c78024a50270940304540a733656f0d60405160405180910390a45b5050565b600062000282836000018373ffffffffffffffffffffffffffffffffffffffff1660001b6200028a60201b60201c565b905092915050565b60006200029e83836200030460201b60201c565b620002f9578260000182908060018154018082558091505060019003906000526020600020016000909190919091505582600001805490508360010160008481526020019081526020016000208190555060019050620002fe565b600090505b92915050565b600080836001016000848152602001908152602001600020541415905092915050565b828054600181600116156101000203166002900490600052602060002090601f016020900481019282601f106200036a57805160ff19168380011785556200039b565b828001600101855582156200039b579182015b828111156200039a5782518255916020019190600101906200037d565b5b509050620003aa9190620003ae565b5090565b5b80821115620003c9576000816000905550600101620003af565b5090565b61263c80620003dd6000396000f3fe608060405234801561001057600080fd5b50600436106101425760003560e01c80638d0a9bff116100b8578063bfc206ed1161007c578063bfc206ed14610791578063c44e96a0146107e9578063ca15c873146107f3578063d547741f14610835578063eac989f814610883578063fd52c0d51461090657610142565b80638d0a9bff1461064b5780639010d07c1461068f57806391d14854146106f15780639969879b14610755578063a217fddf1461077357610142565b8063315d44a51161010a578063315d44a51461039357806336568abe146103cb5780633d35eccb1461041957806342c1031a146104db57806365c55755146105db5780636e7a6f4b1461061d57610142565b806312963f64146101475780631caf28f714610209578063248a9ca3146102415780632f2ff15d146102835780632fa03ef7146102d1575b600080fd5b6102076004803603604081101561015d57600080fd5b81019080803590602001909291908035906020019064010000000081111561018457600080fd5b82018360208201111561019657600080fd5b803590602001918460208302840111640100000000831117156101b857600080fd5b919080806020026020016040519081016040528093929190818152602001838360200280828437600081840152601f19601f820116905080830192505050505050509192919290505050610934565b005b61023f6004803603604081101561021f57600080fd5b810190808035906020019092919080359060200190929190505050610b94565b005b61026d6004803603602081101561025757600080fd5b8101908080359060200190929190505050610e39565b6040518082815260200191505060405180910390f35b6102cf6004803603604081101561029957600080fd5b8101908080359060200190929190803573ffffffffffffffffffffffffffffffffffffffff169060200190929190505050610e58565b005b610391600480360360408110156102e757600080fd5b81019080803590602001909291908035906020019064010000000081111561030e57600080fd5b82018360208201111561032057600080fd5b8035906020019184602083028401116401000000008311171561034257600080fd5b919080806020026020016040519081016040528093929190818152602001838360200280828437600081840152601f19601f820116905080830192505050505050509192919290505050610ee1565b005b6103c9600480360360408110156103a957600080fd5b810190808035906020019092919080359060200190929190505050611141565b005b610417600480360360408110156103e157600080fd5b8101908080359060200190929190803573ffffffffffffffffffffffffffffffffffffffff1690602001909291905050506113e6565b005b6104d96004803603604081101561042f57600080fd5b81019080803590602001909291908035906020019064010000000081111561045657600080fd5b82018360208201111561046857600080fd5b8035906020019184602083028401116401000000008311171561048a57600080fd5b919080806020026020016040519081016040528093929190818152602001838360200280828437600081840152601f19601f82011690508083019250505050505050919291929050505061147f565b005b6105d9600480360360c08110156104f157600080fd5b81019080803573ffffffffffffffffffffffffffffffffffffffff16906020019092919080359060200190929190803590602001909291908035906020019064010000000081111561054257600080fd5b82018360208201111561055457600080fd5b8035906020019184602083028401116401000000008311171561057657600080fd5b919080806020026020016040519081016040528093929190818152602001838360200280828437600081840152601f19601f820116905080830192505050505050509192919290803590602001909291908035906020019092919050505061166b565b005b610607600480360360208110156105f157600080fd5b8101908080359060200190929190505050611a46565b6040518082815260200191505060405180910390f35b6106496004803603602081101561063357600080fd5b8101908080359060200190929190505050611a63565b005b6106776004803603602081101561066157600080fd5b8101908080359060200190929190505050611b78565b60405180821515815260200191505060405180910390f35b6106c5600480360360408110156106a557600080fd5b810190808035906020019092919080359060200190929190505050611ba2565b604051808273ffffffffffffffffffffffffffffffffffffffff16815260200191505060405180910390f35b61073d6004803603604081101561070757600080fd5b8101908080359060200190929190803573ffffffffffffffffffffffffffffffffffffffff169060200190929190505050611bd3565b60405180821515815260200191505060405180910390f35b61075d611c04565b6040518082815260200191505060405180910390f35b61077b611c28565b6040518082815260200191505060405180910390f35b6107bd600480360360208110156107a757600080fd5b8101908080359060200190929190505050611c2f565b604051808273ffffffffffffffffffffffffffffffffffffffff16815260200191505060405180910390f35b6107f1611c6c565b005b61081f6004803603602081101561080957600080fd5b8101908080359060200190929190505050611d26565b6040518082815260200191505060405180910390f35b6108816004803603604081101561084b57600080fd5b8101908080359060200190929190803573ffffffffffffffffffffffffffffffffffffffff169060200190929190505050611d4c565b005b61088b611dd5565b6040518080602001828103825283818151815260200191508051906020019080838360005b838110156108cb5780820151818401526020810190506108b0565b50505050905090810190601f1680156108f85780820380516001836020036101000a031916815260200191505b509250505060405180910390f35b6109326004803603602081101561091c57600080fd5b8101908080359060200190929190505050611e77565b005b6109657fb90ec3213bc54b34738ca7ad785b7e6275742931f3ddfa147171c27090643f3f610960611f3f565b611bd3565b6109ba576040517f08c379a000000000000000000000000000000000000000000000000000000000815260040180806020018281038252603781526020018061256c6037913960400191505060405180910390fd5b6109c2611f3f565b73ffffffffffffffffffffffffffffffffffffffff166002600084815260200190815260200160002060009054906101000a900473ffffffffffffffffffffffffffffffffffffffff1673ffffffffffffffffffffffffffffffffffffffff1614610a78576040517f08c379a000000000000000000000000000000000000000000000000000000000815260040180806020018281038252602c815260200180612540602c913960400191505060405180910390fd5b6000815190506000811115610b8f5760005b81811015610b8d576000838281518110610aa057fe5b60200260200101519050600073ffffffffffffffffffffffffffffffffffffffff166002600083815260200190815260200160002060009054906101000a900473ffffffffffffffffffffffffffffffffffffffff1673ffffffffffffffffffffffffffffffffffffffff1614158015610b3857506004600082815260200190815260200160002060009054906101000a900460ff16155b15610b7f57838281518110610b4957fe5b6020026020010151857f33974780998cd0a6a121380888197f6af20340bc338905596e0c8819ae461a7b60405160405180910390a35b508080600101915050610a8a565b505b505050565b610bc57fb90ec3213bc54b34738ca7ad785b7e6275742931f3ddfa147171c27090643f3f610bc0611f3f565b611bd3565b610c1a576040517f08c379a000000000000000000000000000000000000000000000000000000000815260040180806020018281038252603781526020018061256c6037913960400191505060405180910390fd5b610c22611f3f565b73ffffffffffffffffffffffffffffffffffffffff166002600084815260200190815260200160002060009054906101000a900473ffffffffffffffffffffffffffffffffffffffff1673ffffffffffffffffffffffffffffffffffffffff1614610cd8576040517f08c379a000000000000000000000000000000000000000000000000000000000815260040180806020018281038252602c815260200180612540602c913960400191505060405180910390fd5b600073ffffffffffffffffffffffffffffffffffffffff166002600083815260200190815260200160002060009054906101000a900473ffffffffffffffffffffffffffffffffffffffff1673ffffffffffffffffffffffffffffffffffffffff161415610d91576040517f08c379a000000000000000000000000000000000000000000000000000000000815260040180806020018281038252603a815260200180612391603a913960400191505060405180910390fd5b6004600083815260200190815260200160002060009054906101000a900460ff1615610e08576040517f08c379a000000000000000000000000000000000000000000000000000000000815260040180806020018281038252602a815260200180612446602a913960400191505060405180910390fd5b80827ea67c7413e7cbd6fa0dfd556b6bfb0844428500ee38687ae6c65ecf371df4e260405160405180910390a35050565b6000806000838152602001908152602001600020600201549050919050565b610e7e60008084815260200190815260200160002060020154610e79611f3f565b611bd3565b610ed3576040517f08c379a000000000000000000000000000000000000000000000000000000000815260040180806020018281038252602f815260200180612362602f913960400191505060405180910390fd5b610edd8282611f47565b5050565b610f127fb90ec3213bc54b34738ca7ad785b7e6275742931f3ddfa147171c27090643f3f610f0d611f3f565b611bd3565b610f67576040517f08c379a000000000000000000000000000000000000000000000000000000000815260040180806020018281038252603781526020018061256c6037913960400191505060405180910390fd5b610f6f611f3f565b73ffffffffffffffffffffffffffffffffffffffff166002600084815260200190815260200160002060009054906101000a900473ffffffffffffffffffffffffffffffffffffffff1673ffffffffffffffffffffffffffffffffffffffff1614611025576040517f08c379a000000000000000000000000000000000000000000000000000000000815260040180806020018281038252602c815260200180612540602c913960400191505060405180910390fd5b600081519050600081111561113c5760005b8181101561113a57600083828151811061104d57fe5b60200260200101519050600073ffffffffffffffffffffffffffffffffffffffff166002600083815260200190815260200160002060009054906101000a900473ffffffffffffffffffffffffffffffffffffffff1673ffffffffffffffffffffffffffffffffffffffff16141580156110e557506004600082815260200190815260200160002060009054906101000a900460ff16155b1561112c578382815181106110f657fe5b6020026020010151857fd9446a40bb30eb7c68d45f553a8344a460470e6120827bbaa22bb731e455c3ed60405160405180910390a35b508080600101915050611037565b505b505050565b6111727fb90ec3213bc54b34738ca7ad785b7e6275742931f3ddfa147171c27090643f3f61116d611f3f565b611bd3565b6111c7576040517f08c379a000000000000000000000000000000000000000000000000000000000815260040180806020018281038252603781526020018061256c6037913960400191505060405180910390fd5b6111cf611f3f565b73ffffffffffffffffffffffffffffffffffffffff166002600084815260200190815260200160002060009054906101000a900473ffffffffffffffffffffffffffffffffffffffff1673ffffffffffffffffffffffffffffffffffffffff1614611285576040517f08c379a000000000000000000000000000000000000000000000000000000000815260040180806020018281038252602c815260200180612540602c913960400191505060405180910390fd5b600073ffffffffffffffffffffffffffffffffffffffff166002600083815260200190815260200160002060009054906101000a900473ffffffffffffffffffffffffffffffffffffffff1673ffffffffffffffffffffffffffffffffffffffff16141561133e576040517f08c379a000000000000000000000000000000000000000000000000000000000815260040180806020018281038252603c8152602001806124a0603c913960400191505060405180910390fd5b6004600083815260200190815260200160002060009054906101000a900460ff166113b4576040517f08c379a00000000000000000000000000000000000000000000000000000000081526004018080602001828103825260368152602001806124106036913960400191505060405180910390fd5b80827f8b572be57bab095e1edbcb8666bc126bab7989981d0724d3a8d44966f02e658360405160405180910390a35050565b6113ee611f3f565b73ffffffffffffffffffffffffffffffffffffffff168173ffffffffffffffffffffffffffffffffffffffff1614611471576040517f08c379a000000000000000000000000000000000000000000000000000000000815260040180806020018281038252602f8152602001806125d8602f913960400191505060405180910390fd5b61147b8282611fda565b5050565b611487611f3f565b73ffffffffffffffffffffffffffffffffffffffff166002600084815260200190815260200160002060009054906101000a900473ffffffffffffffffffffffffffffffffffffffff1673ffffffffffffffffffffffffffffffffffffffff161461153d576040517f08c379a00000000000000000000000000000000000000000000000000000000081526004018080602001828103825260378152602001806125096037913960400191505060405180910390fd5b60006002600084815260200190815260200160002060006101000a81548173ffffffffffffffffffffffffffffffffffffffff021916908373ffffffffffffffffffffffffffffffffffffffff160217905550600060056000848152602001908152602001600020819055506000600360008481526020019081526020016000208190555060006004600084815260200190815260200160002060006101000a81548160ff021916908315150217905550817f6958d9a5b92b38869062a9e904dc1f2343e1f6b7cd07d5bee19a677b1f253bd2826040518080602001828103825283818151815260200191508051906020019060200280838360005b83811015611654578082015181840152602081019050611639565b505050509050019250505060405180910390a25050565b61169c7fb90ec3213bc54b34738ca7ad785b7e6275742931f3ddfa147171c27090643f3f611697611f3f565b611bd3565b6116f1576040517f08c379a000000000000000000000000000000000000000000000000000000000815260040180806020018281038252603781526020018061256c6037913960400191505060405180910390fd5b6116fa81611b78565b61174f576040517f08c379a000000000000000000000000000000000000000000000000000000000815260040180806020018281038252602681526020018061233c6026913960400191505060405180910390fd5b600073ffffffffffffffffffffffffffffffffffffffff166002600087815260200190815260200160002060009054906101000a900473ffffffffffffffffffffffffffffffffffffffff1673ffffffffffffffffffffffffffffffffffffffff1614611807576040517f08c379a000000000000000000000000000000000000000000000000000000000815260040180806020018281038252602c815260200180612540602c913960400191505060405180910390fd5b816003600087815260200190815260200160002081905550856002600087815260200190815260200160002060006101000a81548173ffffffffffffffffffffffffffffffffffffffff021916908373ffffffffffffffffffffffffffffffffffffffff160217905550806005600087815260200190815260200160002081905550600084141561191e5760006004600087815260200190815260200160002060006101000a81548160ff02191690831515021790555081858773ffffffffffffffffffffffffffffffffffffffff167ffacd7723c5f086c22b992e5f37de5ae73ad1f38829f0636b23d493040e1470b08460016040518083815260200182151581526020019250505060405180910390a46119d3565b60016004600087815260200190815260200160002060006101000a81548160ff02191690831515021790555081858773ffffffffffffffffffffffffffffffffffffffff167ffacd7723c5f086c22b992e5f37de5ae73ad1f38829f0636b23d493040e1470b08460006040518083815260200182151581526020019250505060405180910390a483857ea67c7413e7cbd6fa0dfd556b6bfb0844428500ee38687ae6c65ecf371df4e260405160405180910390a35b6000835190506000811115611a3d5760005b81811015611a3b578481815181106119f957fe5b6020026020010151877f33974780998cd0a6a121380888197f6af20340bc338905596e0c8819ae461a7b60405160405180910390a380806001019150506119e5565b505b50505050505050565b600060056000838152602001908152602001600020549050919050565b611a776000801b611a72611f3f565b611bd3565b611acc576040517f08c379a00000000000000000000000000000000000000000000000000000000081526004018080602001828103825260458152602001806123cb6045913960600191505060405180910390fd5b600015156006600083815260200190815260200160002060009054906101000a900460ff16151514611b49576040517f08c379a000000000000000000000000000000000000000000000000000000000815260040180806020018281038252602d8152602001806124dc602d913960400191505060405180910390fd5b60016006600083815260200190815260200160002060006101000a81548160ff02191690831515021790555050565b60006006600083815260200190815260200160002060009054906101000a900460ff169050919050565b6000611bcb8260008086815260200190815260200160002060000161206d90919063ffffffff16565b905092915050565b6000611bfc8260008086815260200190815260200160002060000161208790919063ffffffff16565b905092915050565b7fb90ec3213bc54b34738ca7ad785b7e6275742931f3ddfa147171c27090643f3f81565b6000801b81565b60006002600083815260200190815260200160002060009054906101000a900473ffffffffffffffffffffffffffffffffffffffff169050919050565b611c9d7fb90ec3213bc54b34738ca7ad785b7e6275742931f3ddfa147171c27090643f3f611c98611f3f565b611bd3565b15611cf3576040517f08c379a00000000000000000000000000000000000000000000000000000000081526004018080602001828103825260358152602001806125a36035913960400191505060405180910390fd5b611d247fb90ec3213bc54b34738ca7ad785b7e6275742931f3ddfa147171c27090643f3f611d1f611f3f565b6120b7565b565b6000611d456000808481526020019081526020016000206000016120c5565b9050919050565b611d7260008084815260200190815260200160002060020154611d6d611f3f565b611bd3565b611dc7576040517f08c379a00000000000000000000000000000000000000000000000000000000081526004018080602001828103825260308152602001806124706030913960400191505060405180910390fd5b611dd18282611fda565b5050565b606060018054600181600116156101000203166002900480601f016020809104026020016040519081016040528092919081815260200182805460018160011615610100020316600290048015611e6d5780601f10611e4257610100808354040283529160200191611e6d565b820191906000526020600020905b815481529060010190602001808311611e5057829003601f168201915b5050505050905090565b611e8b6000801b611e86611f3f565b611bd3565b611ee0576040517f08c379a00000000000000000000000000000000000000000000000000000000081526004018080602001828103825260458152602001806123cb6045913960600191505060405180910390fd5b60006006600083815260200190815260200160002060006101000a81548160ff02191690831515021790555050565b6000611f37836000018373ffffffffffffffffffffffffffffffffffffffff1660001b6120da565b905092915050565b600033905090565b611f6e81600080858152602001908152602001600020600001611f0f90919063ffffffff16565b15611fd657611f7b611f3f565b73ffffffffffffffffffffffffffffffffffffffff168173ffffffffffffffffffffffffffffffffffffffff16837f2f8788117e7eff1d82e926ec794901d17c78024a50270940304540a733656f0d60405160405180910390a45b5050565b6120018160008085815260200190815260200160002060000161214a90919063ffffffff16565b156120695761200e611f3f565b73ffffffffffffffffffffffffffffffffffffffff168173ffffffffffffffffffffffffffffffffffffffff16837ff6391f5c32d9c69d2a47ea670b442974b53935d1edc7fd64eb21e047a839171b60405160405180910390a45b5050565b600061207c836000018361217a565b60001c905092915050565b60006120af836000018373ffffffffffffffffffffffffffffffffffffffff1660001b6121fd565b905092915050565b6120c18282611f47565b5050565b60006120d382600001612220565b9050919050565b60006120e683836121fd565b61213f578260000182908060018154018082558091505060019003906000526020600020016000909190919091505582600001805490508360010160008481526020019081526020016000208190555060019050612144565b600090505b92915050565b6000612172836000018373ffffffffffffffffffffffffffffffffffffffff1660001b612231565b905092915050565b6000818360000180549050116121db576040517f08c379a000000000000000000000000000000000000000000000000000000000815260040180806020018281038252602281526020018061231a6022913960400191505060405180910390fd5b8260000182815481106121ea57fe5b9060005260206000200154905092915050565b600080836001016000848152602001908152602001600020541415905092915050565b600081600001805490509050919050565b6000808360010160008481526020019081526020016000205490506000811461230d576000600182039050600060018660000180549050039050600086600001828154811061227c57fe5b906000526020600020015490508087600001848154811061229957fe5b90600052602060002001819055506001830187600101600083815260200190815260200160002081905550866000018054806122d157fe5b60019003818190600052602060002001600090559055866001016000878152602001908152602001600020600090556001945050505050612313565b60009150505b9291505056fe456e756d657261626c655365743a20696e646578206f7574206f6620626f756e64735370617469616c4173736574733a2073746f72616765206d75737420626520616c6c6f776564416363657373436f6e74726f6c3a2073656e646572206d75737420626520616e2061646d696e20746f206772616e745370617469616c4173736574733a2047656f44494420746f20626520616464656420617320706172656e7420646f6573206e6f742065786973745370617469616c4173736574733a206d75737420686176652061646d696e20726f6c6520746f206564697420616c6c6f776564206f6666636861696e2073746f72616765735370617469616c4173736574733a2047656f44494420646f6573206e6f742068617665206120706172656e7420746f2072656d6f76655370617469616c4173736574733a2047656f44494420616c726561647920686173206120706172656e74416363657373436f6e74726f6c3a2073656e646572206d75737420626520616e2061646d696e20746f207265766f6b655370617469616c4173736574733a2047656f44494420746f2062652072656d6f76656420617320706172656e7420646f6573206e6f742065786973745370617469616c4173736574733a2073746f72616765206d757374206e6f7420626520616374697665207965745370617469616c4173736574733a2063616c6c6572206973206e6f74206f776e6572206f6620746865205370617469616c2041737365745370617469616c4173736574733a206964206d757374206e6f74206861766520616e206f776e6572207965745370617469616c4173736574733a206d7573742068617665206461746120737570706c69657220726f6c6520746f2072656769737465725370617469616c4173736574733a206d757374206e6f742068617665206120444154415f535550504c49455220726f6c6520796574416363657373436f6e74726f6c3a2063616e206f6e6c792072656e6f756e636520726f6c657320666f722073656c66a26469706673582212202bf847b02950d5fe76acf87e3e47aa3dae046fbb638a37bde12445e4e28d865b64736f6c634300060c0033",
  "immutableReferences": {},
  "source": "// SPDX-License-Identifier: APACHE OR MIT\npragma solidity ^0.6.0;\n\nimport \"@openzeppelin/contracts/access/AccessControl.sol\";\nimport \"@openzeppelin/contracts/GSN/Context.sol\";\n\n/**\n * @dev {SpatialAssets} registry\n * This contract uses {AccessControl} to lock permissioned functions using the\n * different roles - head to its documentation for details.\n *\n * The account that deploys the contract will be granted the 'DATA_SUPPLIER' as well as the default admin role, which will let it grant\n * 'DATA_SUPPLIER' roles to other accounts\n */\ncontract SpatialAssets is Context, AccessControl {\n    /**\n     * @dev Emitted when Spatial Assets of id `id` are transferred to `to``.\n     */\n    event SpatialAssetRegistered(address indexed to, uint256 indexed geoDIDId, uint256 indexed cid, bytes32 offChainStorage, bool root);\n\n    /**\n     * @dev Emitted when Spatial Assets of id `id` are deactivated.\n     */\n    event SpatialAssetDeactivated(uint256 indexed geoDIDId, uint256[] childrenToRemove);\n\n    /**\n     * @dev Emitted when a parent geodid is added to a node\n     */\n    event ParentAdded(uint256 indexed geoDIDId, uint256 indexed parentGeoDIDId);\n\n    /**\n     * @dev Emitted when a children geodid is added to a node\n     */\n    event ChildrenAdded(uint256 indexed geoDIDId, uint256 indexed childrenGeoDIDId);\n\n    /**\n     * @dev Emitted when a parent geodid is removed from a node\n     */\n    event ParentRemoved(uint256 indexed geoDIDId, uint256 indexed parentGeoDIDId);\n\n    /**\n     * @dev Emitted when a children geodid is removed from a node\n     */\n    event ChildrenRemoved(uint256 indexed geoDIDId, uint256 indexed childrenGeoDIDId);\n\n    bytes32 public constant DATA_SUPPLIER = keccak256(\"DATA_SUPPLIER\");\n\n    string private _uri;\n\n    // Mapping from GeodidID to registrant\n    mapping (uint256 => address) private _owners;\n    \n    // Mapping from GeodidID to Cid\n    mapping (uint256 => uint256) private _cids;\n\n    // Mapping from GeodidID to parenthood status\n    mapping (uint256 => bool) private _hasParent;\n/*\n    // Mapping from GeiDID id to Cids (for versioning - implement methods to create/update and fetch?)\n    mapping (uint256 => uint256[]) private _cids;\n\n\n    function updateCids (uint256[] geoDidIdsToChange, uint256[] _cidsToChange) {\n        for (...){\n\n        }\n    }\n*/\n    // Mapping from id to spatial asset external storage\n    mapping (uint256 => bytes32) private _externalStorage;\n\n    // Allowed external storages signatures\n    mapping (bytes32 => bool) private _allowedStorages;\n\n\n    /**\n     * @dev Grants `DEFAULT_ADMIN_ROLE`, `DATA_SUPPLIER` to the account that\n     * deploys the contract.\n     */\n    constructor(string memory uri) public {\n        _setURI(uri);\n        _setupRole(DEFAULT_ADMIN_ROLE, _msgSender());\n        _setupRole(DATA_SUPPLIER, _msgSender());\n\n    }\n\n    /**\n     * @dev Registers a new user with the ability to register a spatial asset.\n     */\n    function registerRole() public {\n        require(!hasRole(DATA_SUPPLIER, _msgSender()), \"SpatialAssets: must not have a DATA_SUPPLIER role yet\");\n        _setupRole(DATA_SUPPLIER, _msgSender());\n    }\n\n    /**\n     * @dev Registers a new user with the ability to register a spatial asset.\n     */\n    function enableStorage(bytes32 offChainStorage) public {\n        require(hasRole(DEFAULT_ADMIN_ROLE, _msgSender()), \"SpatialAssets: must have admin role to edit allowed offchain storages\");\n        require(_allowedStorages[offChainStorage]== false, \"SpatialAssets: storage must not be active yet\");\n        _allowedStorages[offChainStorage] = true;\n    }\n\n    /**\n     * @dev Registers a new user with the ability to register a spatial asset.\n     */\n    function disableStorage(bytes32 offChainStorage) public {\n        require(hasRole(DEFAULT_ADMIN_ROLE, _msgSender()), \"SpatialAssets: must have admin role to edit allowed offchain storages\");\n        _allowedStorages[offChainStorage] = false;\n    }\n\n\n    /**\n     * @dev Registers one spatial asset with external storage 'data' and assigns them to `account`.\n     *\n     * Emits a {SpatialAssetRegistered} event.\n     */\n    function registerSpatialAsset(address owner, uint256 geoDIDId, uint256 parentGeoDIDId , uint256[] memory childrenGeoDIDIds, uint256 cid, bytes32 offChainStorage) public {\n        require(hasRole(DATA_SUPPLIER, _msgSender()), \"SpatialAssets: must have data supplier role to register\");\n        require(allowedStorages(offChainStorage), \"SpatialAssets: storage must be allowed\");\n        require(_owners[geoDIDId] == address(0), \"SpatialAssets: id must not have an owner yet\");\n\n        _cids[geoDIDId] =cid;\n        _owners[geoDIDId] = owner;\n        _externalStorage[geoDIDId] = offChainStorage;\n\n        if (parentGeoDIDId == 0) {\n            _hasParent[geoDIDId] = false;\n        emit SpatialAssetRegistered(owner, geoDIDId, cid, offChainStorage, true);\n        } else {\n            _hasParent[geoDIDId] = true;\n            emit SpatialAssetRegistered(owner, geoDIDId, cid, offChainStorage, false);\n            emit ParentAdded(geoDIDId, parentGeoDIDId);\n        }\n\n        uint256 childrensLen = childrenGeoDIDIds.length;\n\n        if (childrensLen > 0){\n            for(uint256 j=0; j < childrensLen; j++) {\n                emit ChildrenAdded(geoDIDId, childrenGeoDIDIds[j]);\n            }\n        }\n    }\n\n\n    /**\n     * @dev Adds children GeoDIDs to an already existent geoDID\n     *\n     * Emits a {ChildrenAdded} event.\n     */\n    function addChildrenGeoDIDs(uint256 geoDIDId, uint256[] memory childrenGeoDIDIds) public {\n        require(hasRole(DATA_SUPPLIER, _msgSender()), \"SpatialAssets: must have data supplier role to register\");\n        require(_owners[geoDIDId] == _msgSender(), \"SpatialAssets: id must not have an owner yet\");\n\n        uint256 childrensLen = childrenGeoDIDIds.length;\n\n        if (childrensLen > 0){\n            for(uint256 j=0; j < childrensLen; j++) {\n                uint256 childrenGeoDID = childrenGeoDIDIds[j];\n                if (_owners[childrenGeoDID] != address(0) && !_hasParent[childrenGeoDID]) {\n                    emit ChildrenAdded(geoDIDId, childrenGeoDIDIds[j]);\n                }\n            }\n        }\n    }\n\n    /**\n     * @dev Adds a parent GeoDID to an already existent geoDID\n     *\n     * Emits a {ParentAdded} event.\n     */\n    function addParentGeoDID(uint256 geoDIDId, uint256 parentGeoDIDId) public {\n        require(hasRole(DATA_SUPPLIER, _msgSender()), \"SpatialAssets: must have data supplier role to register\");\n        require(_owners[geoDIDId] == _msgSender(), \"SpatialAssets: id must not have an owner yet\");\n        require(_owners[parentGeoDIDId] != address(0), \"SpatialAssets: GeoDID to be added as parent does not exist\");\n        require(!_hasParent[geoDIDId], \"SpatialAssets: GeoDID already has a parent\");\n\n        emit ParentAdded(geoDIDId, parentGeoDIDId);\n    }\n\n    \n    /**\n     * @dev Removes childrenGeoDIDs from a geoDID\n     *\n     * Emits a {ChildrenRemoved} event.\n     */\n    function removeChildrenGeoDIDs(uint256 geoDIDId, uint256[] memory childrenGeoDIDIds) public {\n        require(hasRole(DATA_SUPPLIER, _msgSender()), \"SpatialAssets: must have data supplier role to register\");\n        require(_owners[geoDIDId] == _msgSender(), \"SpatialAssets: id must not have an owner yet\");\n\n        uint256 childrensLen = childrenGeoDIDIds.length;\n\n        if (childrensLen > 0){\n            for(uint256 j=0; j < childrensLen; j++) {\n                uint256 childrenGeoDID = childrenGeoDIDIds[j];\n                if (_owners[childrenGeoDID] != address(0) && !_hasParent[childrenGeoDID]) {\n                    emit ChildrenRemoved(geoDIDId, childrenGeoDIDIds[j]);\n                }\n            }\n        }\n    }\n\n\n        /**\n     * @dev Removes a parent GeoDID from an already existent geoDID\n     *\n     * Emits a {ParentAdded} event.\n     */\n    function removeParentGeoDID(uint256 geoDIDId, uint256 parentGeoDIDId) public {\n        require(hasRole(DATA_SUPPLIER, _msgSender()), \"SpatialAssets: must have data supplier role to register\");\n        require(_owners[geoDIDId] == _msgSender(), \"SpatialAssets: id must not have an owner yet\");\n        require(_owners[parentGeoDIDId] != address(0), \"SpatialAssets: GeoDID to be removed as parent does not exist\");\n        require(_hasParent[geoDIDId], \"SpatialAssets: GeoDID does not have a parent to remove\");\n\n        emit ParentRemoved(geoDIDId, parentGeoDIDId);\n    }\n\n    /**\n     * @dev De-registers a spatial asset\n     */\n     function deactivateSpatialAsset(uint256 geoDIDId, uint256[] memory childrenToRemove) public {\n        require(\n            _owners[geoDIDId] == _msgSender(),\"SpatialAssets: caller is not owner of the Spatial Asset\"\n        );\n        _owners[geoDIDId] = address(0);\n        _externalStorage[geoDIDId] = \"\";\n        _cids[geoDIDId] = 0;\n        _hasParent[geoDIDId] = false;\n        emit SpatialAssetDeactivated(geoDIDId, childrenToRemove);\n    }\n  \n    /**\n     * @dev Sets a new URI for all the spatial asset types\n     */\n    function _setURI(string memory newuri) internal {\n        _uri = newuri;\n    }\n\n    function idToOwner(uint256 id) public view returns (address) {\n        return _owners[id];\n    }\n\n    function idToExternalStorage(uint256 id) public view returns (bytes32) {\n        return _externalStorage[id];\n    }\n\n    function allowedStorages(bytes32 offChainStorage) public view returns (bool) {\n        return _allowedStorages[offChainStorage];\n    }\n\n    function uri() public view returns (string memory) {\n        return _uri;\n    }\n}\n",
  "sourcePath": "/home/j-mars/astralprotocol/astralprotocol/packages/contracts/contracts/SpatialAssets.sol",
  "compiler": {
    "name": "solc",
    "version": "0.6.12+commit.27d51765.Emscripten.clang"
  },
  "schemaVersion": "3.3.2",
  "updatedAt": "2021-02-08T17:20:34.656Z",
  "networkType": "ethereum",
  "devdoc": {
    "details": "{SpatialAssets} registry This contract uses {AccessControl} to lock permissioned functions using the different roles - head to its documentation for details. The account that deploys the contract will be granted the 'DATA_SUPPLIER' as well as the default admin role, which will let it grant 'DATA_SUPPLIER' roles to other accounts",
    "events": {
      "ChildrenAdded(uint256,uint256)": {
        "details": "Emitted when a children geodid is added to a node"
      },
      "ChildrenRemoved(uint256,uint256)": {
        "details": "Emitted when a children geodid is removed from a node"
      },
      "ParentAdded(uint256,uint256)": {
        "details": "Emitted when a parent geodid is added to a node"
      },
      "ParentRemoved(uint256,uint256)": {
        "details": "Emitted when a parent geodid is removed from a node"
      },
      "SpatialAssetDeactivated(uint256,uint256[])": {
        "details": "Emitted when Spatial Assets of id `id` are deactivated."
      },
      "SpatialAssetRegistered(address,uint256,uint256,bytes32,bool)": {
        "details": "Emitted when Spatial Assets of id `id` are transferred to `to``."
      }
    },
    "kind": "dev",
    "methods": {
      "addChildrenGeoDIDs(uint256,uint256[])": {
        "details": "Adds children GeoDIDs to an already existent geoDID Emits a {ChildrenAdded} event."
      },
      "addParentGeoDID(uint256,uint256)": {
        "details": "Adds a parent GeoDID to an already existent geoDID Emits a {ParentAdded} event."
      },
      "constructor": {
        "details": "Grants `DEFAULT_ADMIN_ROLE`, `DATA_SUPPLIER` to the account that deploys the contract."
      },
      "deactivateSpatialAsset(uint256,uint256[])": {
        "details": "De-registers a spatial asset"
      },
      "disableStorage(bytes32)": {
        "details": "Registers a new user with the ability to register a spatial asset."
      },
      "enableStorage(bytes32)": {
        "details": "Registers a new user with the ability to register a spatial asset."
      },
      "getRoleAdmin(bytes32)": {
        "details": "Returns the admin role that controls `role`. See {grantRole} and {revokeRole}. To change a role's admin, use {_setRoleAdmin}."
      },
      "getRoleMember(bytes32,uint256)": {
        "details": "Returns one of the accounts that have `role`. `index` must be a value between 0 and {getRoleMemberCount}, non-inclusive. Role bearers are not sorted in any particular way, and their ordering may change at any point. WARNING: When using {getRoleMember} and {getRoleMemberCount}, make sure you perform all queries on the same block. See the following https://forum.openzeppelin.com/t/iterating-over-elements-on-enumerableset-in-openzeppelin-contracts/2296[forum post] for more information."
      },
      "getRoleMemberCount(bytes32)": {
        "details": "Returns the number of accounts that have `role`. Can be used together with {getRoleMember} to enumerate all bearers of a role."
      },
      "grantRole(bytes32,address)": {
        "details": "Grants `role` to `account`. If `account` had not been already granted `role`, emits a {RoleGranted} event. Requirements: - the caller must have ``role``'s admin role."
      },
      "hasRole(bytes32,address)": {
        "details": "Returns `true` if `account` has been granted `role`."
      },
      "registerRole()": {
        "details": "Registers a new user with the ability to register a spatial asset."
      },
      "registerSpatialAsset(address,uint256,uint256,uint256[],uint256,bytes32)": {
        "details": "Registers one spatial asset with external storage 'data' and assigns them to `account`. Emits a {SpatialAssetRegistered} event."
      },
      "removeChildrenGeoDIDs(uint256,uint256[])": {
        "details": "Removes childrenGeoDIDs from a geoDID Emits a {ChildrenRemoved} event."
      },
      "removeParentGeoDID(uint256,uint256)": {
        "details": "Removes a parent GeoDID from an already existent geoDID Emits a {ParentAdded} event."
      },
      "renounceRole(bytes32,address)": {
        "details": "Revokes `role` from the calling account. Roles are often managed via {grantRole} and {revokeRole}: this function's purpose is to provide a mechanism for accounts to lose their privileges if they are compromised (such as when a trusted device is misplaced). If the calling account had been granted `role`, emits a {RoleRevoked} event. Requirements: - the caller must be `account`."
      },
      "revokeRole(bytes32,address)": {
        "details": "Revokes `role` from `account`. If `account` had been granted `role`, emits a {RoleRevoked} event. Requirements: - the caller must have ``role``'s admin role."
      }
    },
    "version": 1
  },
  "userdoc": {
    "kind": "user",
    "methods": {},
    "version": 1
  }
}