{
  "contractName": "SpatialAssets",
  "abi": [
    {
      "inputs": [
        {
          "internalType": "string",
          "name": "uri",
          "type": "string"
        }
      ],
      "stateMutability": "nonpayable",
      "type": "constructor"
    },
    {
      "anonymous": false,
      "inputs": [
        {
          "indexed": true,
          "internalType": "bytes32",
          "name": "geoDIDId",
          "type": "bytes32"
        },
        {
          "indexed": true,
          "internalType": "bytes32",
          "name": "childrenGeoDIDId",
          "type": "bytes32"
        }
      ],
      "name": "ChildrenAdded",
      "type": "event"
    },
    {
      "anonymous": false,
      "inputs": [
        {
          "indexed": true,
          "internalType": "bytes32",
          "name": "geoDIDId",
          "type": "bytes32"
        },
        {
          "indexed": true,
          "internalType": "bytes32",
          "name": "childrenGeoDIDId",
          "type": "bytes32"
        }
      ],
      "name": "ChildrenRemoved",
      "type": "event"
    },
    {
      "anonymous": false,
      "inputs": [
        {
          "indexed": true,
          "internalType": "bytes32",
          "name": "geoDIDId",
          "type": "bytes32"
        },
        {
          "indexed": true,
          "internalType": "bytes32",
          "name": "parentGeoDIDId",
          "type": "bytes32"
        }
      ],
      "name": "ParentAdded",
      "type": "event"
    },
    {
      "anonymous": false,
      "inputs": [
        {
          "indexed": true,
          "internalType": "bytes32",
          "name": "geoDIDId",
          "type": "bytes32"
        },
        {
          "indexed": true,
          "internalType": "bytes32",
          "name": "parentGeoDIDId",
          "type": "bytes32"
        }
      ],
      "name": "ParentRemoved",
      "type": "event"
    },
    {
      "anonymous": false,
      "inputs": [
        {
          "indexed": true,
          "internalType": "bytes32",
          "name": "role",
          "type": "bytes32"
        },
        {
          "indexed": true,
          "internalType": "bytes32",
          "name": "previousAdminRole",
          "type": "bytes32"
        },
        {
          "indexed": true,
          "internalType": "bytes32",
          "name": "newAdminRole",
          "type": "bytes32"
        }
      ],
      "name": "RoleAdminChanged",
      "type": "event"
    },
    {
      "anonymous": false,
      "inputs": [
        {
          "indexed": true,
          "internalType": "bytes32",
          "name": "role",
          "type": "bytes32"
        },
        {
          "indexed": true,
          "internalType": "address",
          "name": "account",
          "type": "address"
        },
        {
          "indexed": true,
          "internalType": "address",
          "name": "sender",
          "type": "address"
        }
      ],
      "name": "RoleGranted",
      "type": "event"
    },
    {
      "anonymous": false,
      "inputs": [
        {
          "indexed": true,
          "internalType": "bytes32",
          "name": "role",
          "type": "bytes32"
        },
        {
          "indexed": true,
          "internalType": "address",
          "name": "account",
          "type": "address"
        },
        {
          "indexed": true,
          "internalType": "address",
          "name": "sender",
          "type": "address"
        }
      ],
      "name": "RoleRevoked",
      "type": "event"
    },
    {
      "anonymous": false,
      "inputs": [
        {
          "indexed": true,
          "internalType": "bytes32",
          "name": "geoDIDId",
          "type": "bytes32"
        },
        {
          "indexed": false,
          "internalType": "bytes32[]",
          "name": "childrenToRemove",
          "type": "bytes32[]"
        }
      ],
      "name": "SpatialAssetDeactivated",
      "type": "event"
    },
    {
      "anonymous": false,
      "inputs": [
        {
          "indexed": true,
          "internalType": "address",
          "name": "to",
          "type": "address"
        },
        {
          "indexed": true,
          "internalType": "bytes32",
          "name": "geoDIDId",
          "type": "bytes32"
        },
        {
          "indexed": true,
          "internalType": "bytes32",
          "name": "cid",
          "type": "bytes32"
        },
        {
          "indexed": false,
          "internalType": "bytes32",
          "name": "offChainStorage",
          "type": "bytes32"
        },
        {
          "indexed": false,
          "internalType": "bytes32",
          "name": "root",
          "type": "bytes32"
        },
        {
          "indexed": false,
          "internalType": "bool",
          "name": "canBeParent",
          "type": "bool"
        }
      ],
      "name": "SpatialAssetRegistered",
      "type": "event"
    },
    {
      "inputs": [],
      "name": "DATA_SUPPLIER",
      "outputs": [
        {
          "internalType": "bytes32",
          "name": "",
          "type": "bytes32"
        }
      ],
      "stateMutability": "view",
      "type": "function",
      "constant": true
    },
    {
      "inputs": [],
      "name": "DEFAULT_ADMIN_ROLE",
      "outputs": [
        {
          "internalType": "bytes32",
          "name": "",
          "type": "bytes32"
        }
      ],
      "stateMutability": "view",
      "type": "function",
      "constant": true
    },
    {
      "inputs": [
        {
          "internalType": "bytes32",
          "name": "role",
          "type": "bytes32"
        }
      ],
      "name": "getRoleAdmin",
      "outputs": [
        {
          "internalType": "bytes32",
          "name": "",
          "type": "bytes32"
        }
      ],
      "stateMutability": "view",
      "type": "function",
      "constant": true
    },
    {
      "inputs": [
        {
          "internalType": "bytes32",
          "name": "role",
          "type": "bytes32"
        },
        {
          "internalType": "uint256",
          "name": "index",
          "type": "uint256"
        }
      ],
      "name": "getRoleMember",
      "outputs": [
        {
          "internalType": "address",
          "name": "",
          "type": "address"
        }
      ],
      "stateMutability": "view",
      "type": "function",
      "constant": true
    },
    {
      "inputs": [
        {
          "internalType": "bytes32",
          "name": "role",
          "type": "bytes32"
        }
      ],
      "name": "getRoleMemberCount",
      "outputs": [
        {
          "internalType": "uint256",
          "name": "",
          "type": "uint256"
        }
      ],
      "stateMutability": "view",
      "type": "function",
      "constant": true
    },
    {
      "inputs": [
        {
          "internalType": "bytes32",
          "name": "role",
          "type": "bytes32"
        },
        {
          "internalType": "address",
          "name": "account",
          "type": "address"
        }
      ],
      "name": "grantRole",
      "outputs": [],
      "stateMutability": "nonpayable",
      "type": "function"
    },
    {
      "inputs": [
        {
          "internalType": "bytes32",
          "name": "role",
          "type": "bytes32"
        },
        {
          "internalType": "address",
          "name": "account",
          "type": "address"
        }
      ],
      "name": "hasRole",
      "outputs": [
        {
          "internalType": "bool",
          "name": "",
          "type": "bool"
        }
      ],
      "stateMutability": "view",
      "type": "function",
      "constant": true
    },
    {
      "inputs": [
        {
          "internalType": "bytes32",
          "name": "role",
          "type": "bytes32"
        },
        {
          "internalType": "address",
          "name": "account",
          "type": "address"
        }
      ],
      "name": "renounceRole",
      "outputs": [],
      "stateMutability": "nonpayable",
      "type": "function"
    },
    {
      "inputs": [
        {
          "internalType": "bytes32",
          "name": "role",
          "type": "bytes32"
        },
        {
          "internalType": "address",
          "name": "account",
          "type": "address"
        }
      ],
      "name": "revokeRole",
      "outputs": [],
      "stateMutability": "nonpayable",
      "type": "function"
    },
    {
      "inputs": [],
      "name": "registerRole",
      "outputs": [],
      "stateMutability": "nonpayable",
      "type": "function"
    },
    {
      "inputs": [
        {
          "internalType": "bytes32",
          "name": "offChainStorage",
          "type": "bytes32"
        }
      ],
      "name": "enableStorage",
      "outputs": [],
      "stateMutability": "nonpayable",
      "type": "function"
    },
    {
      "inputs": [
        {
          "internalType": "bytes32",
          "name": "offChainStorage",
          "type": "bytes32"
        }
      ],
      "name": "disableStorage",
      "outputs": [],
      "stateMutability": "nonpayable",
      "type": "function"
    },
    {
      "inputs": [
        {
          "internalType": "address",
          "name": "owner",
          "type": "address"
        },
        {
          "internalType": "bytes32",
          "name": "geoDIDId",
          "type": "bytes32"
        },
        {
          "internalType": "bytes32",
          "name": "parentGeoDIDId",
          "type": "bytes32"
        },
        {
          "internalType": "bytes32[]",
          "name": "childrenGeoDIDIds",
          "type": "bytes32[]"
        },
        {
          "internalType": "bytes32",
          "name": "cid",
          "type": "bytes32"
        },
        {
          "internalType": "bytes32",
          "name": "offChainStorage",
          "type": "bytes32"
        },
        {
          "internalType": "uint256",
          "name": "geoDIDtype",
          "type": "uint256"
        }
      ],
      "name": "registerSpatialAsset",
      "outputs": [],
      "stateMutability": "nonpayable",
      "type": "function"
    },
    {
      "inputs": [
        {
          "internalType": "bytes32",
          "name": "geoDIDId",
          "type": "bytes32"
        },
        {
          "internalType": "bytes32[]",
          "name": "childrenGeoDIDIds",
          "type": "bytes32[]"
        }
      ],
      "name": "addChildrenGeoDIDs",
      "outputs": [],
      "stateMutability": "nonpayable",
      "type": "function"
    },
    {
      "inputs": [
        {
          "internalType": "bytes32",
          "name": "geoDIDId",
          "type": "bytes32"
        },
        {
          "internalType": "bytes32",
          "name": "parentGeoDIDId",
          "type": "bytes32"
        }
      ],
      "name": "addParentGeoDID",
      "outputs": [],
      "stateMutability": "nonpayable",
      "type": "function"
    },
    {
      "inputs": [
        {
          "internalType": "bytes32",
          "name": "geoDIDId",
          "type": "bytes32"
        },
        {
          "internalType": "bytes32[]",
          "name": "childrenGeoDIDIds",
          "type": "bytes32[]"
        }
      ],
      "name": "removeChildrenGeoDIDs",
      "outputs": [],
      "stateMutability": "nonpayable",
      "type": "function"
    },
    {
      "inputs": [
        {
          "internalType": "bytes32",
          "name": "geoDIDId",
          "type": "bytes32"
        },
        {
          "internalType": "bytes32",
          "name": "parentGeoDIDId",
          "type": "bytes32"
        }
      ],
      "name": "removeParentGeoDID",
      "outputs": [],
      "stateMutability": "nonpayable",
      "type": "function"
    },
    {
      "inputs": [
        {
          "internalType": "bytes32",
          "name": "geoDIDId",
          "type": "bytes32"
        },
        {
          "internalType": "bytes32[]",
          "name": "childrenToRemove",
          "type": "bytes32[]"
        }
      ],
      "name": "deactivateSpatialAsset",
      "outputs": [],
      "stateMutability": "nonpayable",
      "type": "function"
    },
    {
      "inputs": [
        {
          "internalType": "bytes32",
          "name": "id",
          "type": "bytes32"
        }
      ],
      "name": "idToOwner",
      "outputs": [
        {
          "internalType": "address",
          "name": "",
          "type": "address"
        }
      ],
      "stateMutability": "view",
      "type": "function",
      "constant": true
    },
    {
      "inputs": [
        {
          "internalType": "bytes32",
          "name": "id",
          "type": "bytes32"
        }
      ],
      "name": "idToCid",
      "outputs": [
        {
          "internalType": "bytes32",
          "name": "",
          "type": "bytes32"
        }
      ],
      "stateMutability": "view",
      "type": "function",
      "constant": true
    },
    {
      "inputs": [
        {
          "internalType": "bytes32",
          "name": "id",
          "type": "bytes32"
        }
      ],
      "name": "idToCanBeParent",
      "outputs": [
        {
          "internalType": "bool",
          "name": "",
          "type": "bool"
        }
      ],
      "stateMutability": "view",
      "type": "function",
      "constant": true
    },
    {
      "inputs": [
        {
          "internalType": "bytes32",
          "name": "id",
          "type": "bytes32"
        }
      ],
      "name": "idToHasParent",
      "outputs": [
        {
          "internalType": "bool",
          "name": "",
          "type": "bool"
        }
      ],
      "stateMutability": "view",
      "type": "function",
      "constant": true
    },
    {
      "inputs": [
        {
          "internalType": "bytes32",
          "name": "id",
          "type": "bytes32"
        }
      ],
      "name": "idToExternalStorage",
      "outputs": [
        {
          "internalType": "bytes32",
          "name": "",
          "type": "bytes32"
        }
      ],
      "stateMutability": "view",
      "type": "function",
      "constant": true
    },
    {
      "inputs": [
        {
          "internalType": "bytes32",
          "name": "offChainStorage",
          "type": "bytes32"
        }
      ],
      "name": "allowedStorages",
      "outputs": [
        {
          "internalType": "bool",
          "name": "",
          "type": "bool"
        }
      ],
      "stateMutability": "view",
      "type": "function",
      "constant": true
    },
    {
      "inputs": [],
      "name": "uri",
      "outputs": [
        {
          "internalType": "string",
          "name": "",
          "type": "string"
        }
      ],
      "stateMutability": "view",
      "type": "function",
      "constant": true
    }
  ],
  "bytecode": "0x60806040523480156200001157600080fd5b506040516200313638038062003136833981810160405260208110156200003757600080fd5b81019080805160405193929190846401000000008211156200005857600080fd5b838201915060208201858111156200006f57600080fd5b82518660018202830111640100000000821117156200008d57600080fd5b8083526020830192505050908051906020019080838360005b83811015620000c3578082015181840152602081019050620000a6565b50505050905090810190601f168015620000f15780820380516001836020036101000a031916815260200191505b5060405250505062000109816200017560201b60201c565b6200012d6000801b620001216200019160201b60201c565b6200019960201b60201c565b6200016e7fb90ec3213bc54b34738ca7ad785b7e6275742931f3ddfa147171c27090643f3f620001626200019160201b60201c565b6200019960201b60201c565b50620003cd565b80600190805190602001906200018d92919062000327565b5050565b600033905090565b620001ab8282620001af60201b60201c565b5050565b620001dd816000808581526020019081526020016000206000016200025260201b6200257e1790919060201c565b156200024e57620001f36200019160201b60201c565b73ffffffffffffffffffffffffffffffffffffffff168173ffffffffffffffffffffffffffffffffffffffff16837f2f8788117e7eff1d82e926ec794901d17c78024a50270940304540a733656f0d60405160405180910390a45b5050565b600062000282836000018373ffffffffffffffffffffffffffffffffffffffff1660001b6200028a60201b60201c565b905092915050565b60006200029e83836200030460201b60201c565b620002f9578260000182908060018154018082558091505060019003906000526020600020016000909190919091505582600001805490508360010160008481526020019081526020016000208190555060019050620002fe565b600090505b92915050565b600080836001016000848152602001908152602001600020541415905092915050565b828054600181600116156101000203166002900490600052602060002090601f016020900481019282601f106200036a57805160ff19168380011785556200039b565b828001600101855582156200039b579182015b828111156200039a5782518255916020019190600101906200037d565b5b509050620003aa9190620003ae565b5090565b5b80821115620003c9576000816000905550600101620003af565b5090565b612d5980620003dd6000396000f3fe608060405234801561001057600080fd5b50600436106101735760003560e01c806391d14854116100de578063c44e96a011610097578063d547741f11610071578063d547741f14610902578063eac989f814610950578063f999be89146109d3578063fd52c0d514610a0b57610173565b8063c44e96a014610874578063c66f70cc1461087e578063ca15c873146108c057610173565b806391d14854146105465780639969879b146105aa578063a217fddf146105c8578063a8f904b5146105e6578063b22de880146106a8578063bdabcf63146107b257610173565b806336568abe1161013057806336568abe146103aa5780636e7a6f4b146103f85780637c1c6c271461042657806384f429121461045e5780638d0a9bff146104a05780639010d07c146104e457610173565b8063092e9f25146101785780630bfa194d146101bc5780630e437b1c146102005780631dc2a7b0146102c2578063248a9ca31461031a5780632f2ff15d1461035c575b600080fd5b6101a46004803603602081101561018e57600080fd5b8101908080359060200190929190505050610a39565b60405180821515815260200191505060405180910390f35b6101e8600480360360208110156101d257600080fd5b8101908080359060200190929190505050610a63565b60405180821515815260200191505060405180910390f35b6102c06004803603604081101561021657600080fd5b81019080803590602001909291908035906020019064010000000081111561023d57600080fd5b82018360208201111561024f57600080fd5b8035906020019184602083028401116401000000008311171561027157600080fd5b919080806020026020016040519081016040528093929190818152602001838360200280828437600081840152601f19601f820116905080830192505050505050509192919290505050610a8d565b005b6102ee600480360360208110156102d857600080fd5b8101908080359060200190929190505050610dac565b604051808273ffffffffffffffffffffffffffffffffffffffff16815260200191505060405180910390f35b6103466004803603602081101561033057600080fd5b8101908080359060200190929190505050610de9565b6040518082815260200191505060405180910390f35b6103a86004803603604081101561037257600080fd5b8101908080359060200190929190803573ffffffffffffffffffffffffffffffffffffffff169060200190929190505050610e08565b005b6103f6600480360360408110156103c057600080fd5b8101908080359060200190929190803573ffffffffffffffffffffffffffffffffffffffff169060200190929190505050610e91565b005b6104246004803603602081101561040e57600080fd5b8101908080359060200190929190505050610f2a565b005b61045c6004803603604081101561043c57600080fd5b81019080803590602001909291908035906020019092919050505061103f565b005b61048a6004803603602081101561047457600080fd5b8101908080359060200190929190505050611328565b6040518082815260200191505060405180910390f35b6104cc600480360360208110156104b657600080fd5b8101908080359060200190929190505050611345565b60405180821515815260200191505060405180910390f35b61051a600480360360408110156104fa57600080fd5b81019080803590602001909291908035906020019092919050505061136f565b604051808273ffffffffffffffffffffffffffffffffffffffff16815260200191505060405180910390f35b6105926004803603604081101561055c57600080fd5b8101908080359060200190929190803573ffffffffffffffffffffffffffffffffffffffff1690602001909291905050506113a0565b60405180821515815260200191505060405180910390f35b6105b26113d1565b6040518082815260200191505060405180910390f35b6105d06113f5565b6040518082815260200191505060405180910390f35b6106a6600480360360408110156105fc57600080fd5b81019080803590602001909291908035906020019064010000000081111561062357600080fd5b82018360208201111561063557600080fd5b8035906020019184602083028401116401000000008311171561065757600080fd5b919080806020026020016040519081016040528093929190818152602001838360200280828437600081840152601f19601f8201169050808301925050505050505091929192905050506113fc565b005b6107b0600480360360e08110156106be57600080fd5b81019080803573ffffffffffffffffffffffffffffffffffffffff16906020019092919080359060200190929190803590602001909291908035906020019064010000000081111561070f57600080fd5b82018360208201111561072157600080fd5b8035906020019184602083028401116401000000008311171561074357600080fd5b919080806020026020016040519081016040528093929190818152602001838360200280828437600081840152601f19601f82011690508083019250505050505050919291929080359060200190929190803590602001909291908035906020019092919050505061168c565b005b610872600480360360408110156107c857600080fd5b8101908080359060200190929190803590602001906401000000008111156107ef57600080fd5b82018360208201111561080157600080fd5b8035906020019184602083028401116401000000008311171561082357600080fd5b919080806020026020016040519081016040528093929190818152602001838360200280828437600081840152601f19601f820116905080830192505050505050509192919290505050611c31565b005b61087c611f4b565b005b6108aa6004803603602081101561089457600080fd5b8101908080359060200190929190505050612005565b6040518082815260200191505060405180910390f35b6108ec600480360360208110156108d657600080fd5b8101908080359060200190929190505050612022565b6040518082815260200191505060405180910390f35b61094e6004803603604081101561091857600080fd5b8101908080359060200190929190803573ffffffffffffffffffffffffffffffffffffffff169060200190929190505050612048565b005b6109586120d1565b6040518080602001828103825283818151815260200191508051906020019080838360005b8381101561099857808201518184015260208101905061097d565b50505050905090810190601f1680156109c55780820380516001836020036101000a031916815260200191505b509250505060405180910390f35b610a09600480360360408110156109e957600080fd5b810190808035906020019092919080359060200190929190505050612173565b005b610a3760048036036020811015610a2157600080fd5b81019080803590602001909291905050506124e6565b005b60006004600083815260200190815260200160002060009054906101000a900460ff169050919050565b60006005600083815260200190815260200160002060009054906101000a900460ff169050919050565b610a956125ae565b73ffffffffffffffffffffffffffffffffffffffff166002600084815260200190815260200160002060009054906101000a900473ffffffffffffffffffffffffffffffffffffffff1673ffffffffffffffffffffffffffffffffffffffff1614610b4b576040517f08c379a0000000000000000000000000000000000000000000000000000000008152600401808060200182810382526037815260200180612c266037913960400191505060405180910390fd5b60006002600084815260200190815260200160002060006101000a81548173ffffffffffffffffffffffffffffffffffffffff021916908373ffffffffffffffffffffffffffffffffffffffff160217905550600060076000848152602001908152602001600020819055506000600360008481526020019081526020016000208190555060006004600084815260200190815260200160002060006101000a81548160ff021916908315150217905550600060066000848152602001908152602001600020819055506000815190506000811115610d2e5760005b81811015610d2c576000838281518110610c3d57fe5b60200260200101519050600073ffffffffffffffffffffffffffffffffffffffff166002600083815260200190815260200160002060009054906101000a900473ffffffffffffffffffffffffffffffffffffffff1673ffffffffffffffffffffffffffffffffffffffff1614158015610cd457506004600082815260200190815260200160002060009054906101000a900460ff165b15610d1e5780600660008381526020019081526020016000208190555060006004600083815260200190815260200160002060006101000a81548160ff0219169083151502179055505b508080600101915050610c27565b505b827ffca200adc1021dfcfba93d50e56819ff7cd406f40d8fb784caf11d8c114a78fd836040518080602001828103825283818151815260200191508051906020019060200280838360005b83811015610d94578082015181840152602081019050610d79565b505050509050019250505060405180910390a2505050565b60006002600083815260200190815260200160002060009054906101000a900473ffffffffffffffffffffffffffffffffffffffff169050919050565b6000806000838152602001908152602001600020600201549050919050565b610e2e60008084815260200190815260200160002060020154610e296125ae565b6113a0565b610e83576040517f08c379a000000000000000000000000000000000000000000000000000000000815260040180806020018281038252602f8152602001806129d1602f913960400191505060405180910390fd5b610e8d82826125b6565b5050565b610e996125ae565b73ffffffffffffffffffffffffffffffffffffffff168173ffffffffffffffffffffffffffffffffffffffff1614610f1c576040517f08c379a000000000000000000000000000000000000000000000000000000000815260040180806020018281038252602f815260200180612cf5602f913960400191505060405180910390fd5b610f268282612649565b5050565b610f3e6000801b610f396125ae565b6113a0565b610f93576040517f08c379a0000000000000000000000000000000000000000000000000000000008152600401808060200182810382526045815260200180612a346045913960600191505060405180910390fd5b600015156008600083815260200190815260200160002060009054906101000a900460ff16151514611010576040517f08c379a000000000000000000000000000000000000000000000000000000000815260040180806020018281038252602d815260200180612bf9602d913960400191505060405180910390fd5b60016008600083815260200190815260200160002060006101000a81548160ff02191690831515021790555050565b6110707fb90ec3213bc54b34738ca7ad785b7e6275742931f3ddfa147171c27090643f3f61106b6125ae565b6113a0565b6110c5576040517f08c379a0000000000000000000000000000000000000000000000000000000008152600401808060200182810382526037815260200180612c896037913960400191505060405180910390fd5b6110cd6125ae565b73ffffffffffffffffffffffffffffffffffffffff166002600084815260200190815260200160002060009054906101000a900473ffffffffffffffffffffffffffffffffffffffff1673ffffffffffffffffffffffffffffffffffffffff1614611183576040517f08c379a000000000000000000000000000000000000000000000000000000000815260040180806020018281038252602c815260200180612c5d602c913960400191505060405180910390fd5b600073ffffffffffffffffffffffffffffffffffffffff166002600083815260200190815260200160002060009054906101000a900473ffffffffffffffffffffffffffffffffffffffff1673ffffffffffffffffffffffffffffffffffffffff16141561123c576040517f08c379a000000000000000000000000000000000000000000000000000000000815260040180806020018281038252603c815260200180612bbd603c913960400191505060405180910390fd5b6004600083815260200190815260200160002060009054906101000a900460ff166112b2576040517f08c379a0000000000000000000000000000000000000000000000000000000008152600401808060200182810382526036815260200180612a796036913960400191505060405180910390fd5b60006004600084815260200190815260200160002060006101000a81548160ff02191690831515021790555081600660008481526020019081526020016000208190555080827f09ba4d5138fa8cb519e6a82fc3d9fe09a800f44f4b25ecea405424f82ffcaca960405160405180910390a35050565b600060076000838152602001908152602001600020549050919050565b60006008600083815260200190815260200160002060009054906101000a900460ff169050919050565b6000611398826000808681526020019081526020016000206000016126dc90919063ffffffff16565b905092915050565b60006113c9826000808681526020019081526020016000206000016126f690919063ffffffff16565b905092915050565b7fb90ec3213bc54b34738ca7ad785b7e6275742931f3ddfa147171c27090643f3f81565b6000801b81565b61142d7fb90ec3213bc54b34738ca7ad785b7e6275742931f3ddfa147171c27090643f3f6114286125ae565b6113a0565b611482576040517f08c379a0000000000000000000000000000000000000000000000000000000008152600401808060200182810382526037815260200180612c896037913960400191505060405180910390fd5b61148a6125ae565b73ffffffffffffffffffffffffffffffffffffffff166002600084815260200190815260200160002060009054906101000a900473ffffffffffffffffffffffffffffffffffffffff1673ffffffffffffffffffffffffffffffffffffffff1614611540576040517f08c379a000000000000000000000000000000000000000000000000000000000815260040180806020018281038252602c815260200180612c5d602c913960400191505060405180910390fd5b60008151905060008111156116875760005b8181101561168557600083828151811061156857fe5b60200260200101519050600073ffffffffffffffffffffffffffffffffffffffff166002600083815260200190815260200160002060009054906101000a900473ffffffffffffffffffffffffffffffffffffffff1673ffffffffffffffffffffffffffffffffffffffff16141580156115ff57506004600082815260200190815260200160002060009054906101000a900460ff165b156116775760006004600083815260200190815260200160002060006101000a81548160ff02191690831515021790555080600660008381526020019081526020016000208190555080857f64cd8d5daa1351ab7ef481cd86ebc8d199e153d85b6442711dbaa6ee68989eee60405160405180910390a35b508080600101915050611552565b505b505050565b6116bd7fb90ec3213bc54b34738ca7ad785b7e6275742931f3ddfa147171c27090643f3f6116b86125ae565b6113a0565b611712576040517f08c379a0000000000000000000000000000000000000000000000000000000008152600401808060200182810382526037815260200180612c896037913960400191505060405180910390fd5b61171b82611345565b611770576040517f08c379a00000000000000000000000000000000000000000000000000000000081526004018080602001828103825260268152602001806129ab6026913960400191505060405180910390fd5b600073ffffffffffffffffffffffffffffffffffffffff166002600088815260200190815260200160002060009054906101000a900473ffffffffffffffffffffffffffffffffffffffff1673ffffffffffffffffffffffffffffffffffffffff1614611828576040517f08c379a000000000000000000000000000000000000000000000000000000000815260040180806020018281038252602c815260200180612c5d602c913960400191505060405180910390fd5b60008114806118375750600181145b6118a9576040517f08c379a00000000000000000000000000000000000000000000000000000000081526004018080602001828103825260208152602001807f5370617469616c204173736574733a2077726f6e672067656f6469647479706581525060200191505060405180910390fd5b826003600088815260200190815260200160002081905550866002600088815260200190815260200160002060006101000a81548173ffffffffffffffffffffffffffffffffffffffff021916908373ffffffffffffffffffffffffffffffffffffffff16021790555081600760008881526020019081526020016000208190555060008114156119655760016005600088815260200190815260200160002060006101000a81548160ff02191690831515021790555061199c565b600181141561199b5760006005600088815260200190815260200160002060006101000a81548160ff0219169083151502179055505b5b6000801b851415611a725760006004600088815260200190815260200160002060006101000a81548160ff02191690831515021790555085600660008881526020019081526020016000208190555082868873ffffffffffffffffffffffffffffffffffffffff167f63b20be522ec742d63054a358a08806c3d3645cddc76f3ffcd2e5a66697a47a2858a600560008d815260200190815260200160002060009054906101000a900460ff16604051808481526020018381526020018215158152602001935050505060405180910390a4611b62565b60016004600088815260200190815260200160002060006101000a81548160ff02191690831515021790555082868873ffffffffffffffffffffffffffffffffffffffff167f63b20be522ec742d63054a358a08806c3d3645cddc76f3ffcd2e5a66697a47a285600660008b815260200190815260200160002054600560008d815260200190815260200160002060009054906101000a900460ff16604051808481526020018381526020018215158152602001935050505060405180910390a484867fe4dc822b14b51bcb0daee9b2a47ad5cfe785b97988c9ba9fb18a008fa74d8d0660405160405180910390a35b600084519050600081118015611b9557506005600088815260200190815260200160002060009054906101000a900460ff165b15611c275760005b81811015611c25576000868281518110611bb357fe5b6020026020010151905060016004600083815260200190815260200160002060006101000a81548160ff02191690831515021790555080897fc5188e1ad025cd9b14f9b77496a121bb77c2aca1c221401a1e92288a93ad143d60405160405180910390a3508080600101915050611b9d565b505b5050505050505050565b611c627fb90ec3213bc54b34738ca7ad785b7e6275742931f3ddfa147171c27090643f3f611c5d6125ae565b6113a0565b611cb7576040517f08c379a0000000000000000000000000000000000000000000000000000000008152600401808060200182810382526037815260200180612c896037913960400191505060405180910390fd5b611cbf6125ae565b73ffffffffffffffffffffffffffffffffffffffff166002600084815260200190815260200160002060009054906101000a900473ffffffffffffffffffffffffffffffffffffffff1673ffffffffffffffffffffffffffffffffffffffff1614611d75576040517f08c379a0000000000000000000000000000000000000000000000000000000008152600401808060200182810382526034815260200180612a006034913960400191505060405180910390fd5b6005600083815260200190815260200160002060009054906101000a900460ff16611deb576040517f08c379a0000000000000000000000000000000000000000000000000000000008152600401808060200182810382526040815260200180612af56040913960400191505060405180910390fd5b6000815190506000811115611f465760005b81811015611f44576000838281518110611e1357fe5b60200260200101519050600073ffffffffffffffffffffffffffffffffffffffff166002600083815260200190815260200160002060009054906101000a900473ffffffffffffffffffffffffffffffffffffffff1673ffffffffffffffffffffffffffffffffffffffff1614158015611eab57506004600082815260200190815260200160002060009054906101000a900460ff16155b15611f365760016004600083815260200190815260200160002060006101000a81548160ff0219169083151502179055506006600086815260200190815260200160002054600660008381526020019081526020016000208190555080857fc5188e1ad025cd9b14f9b77496a121bb77c2aca1c221401a1e92288a93ad143d60405160405180910390a35b508080600101915050611dfd565b505b505050565b611f7c7fb90ec3213bc54b34738ca7ad785b7e6275742931f3ddfa147171c27090643f3f611f776125ae565b6113a0565b15611fd2576040517f08c379a0000000000000000000000000000000000000000000000000000000008152600401808060200182810382526035815260200180612cc06035913960400191505060405180910390fd5b6120037fb90ec3213bc54b34738ca7ad785b7e6275742931f3ddfa147171c27090643f3f611ffe6125ae565b612726565b565b600060036000838152602001908152602001600020549050919050565b6000612041600080848152602001908152602001600020600001612734565b9050919050565b61206e600080848152602001908152602001600020600201546120696125ae565b6113a0565b6120c3576040517f08c379a0000000000000000000000000000000000000000000000000000000008152600401808060200182810382526030815260200180612b8d6030913960400191505060405180910390fd5b6120cd8282612649565b5050565b606060018054600181600116156101000203166002900480601f0160208091040260200160405190810160405280929190818152602001828054600181600116156101000203166002900480156121695780601f1061213e57610100808354040283529160200191612169565b820191906000526020600020905b81548152906001019060200180831161214c57829003601f168201915b5050505050905090565b6121a47fb90ec3213bc54b34738ca7ad785b7e6275742931f3ddfa147171c27090643f3f61219f6125ae565b6113a0565b6121f9576040517f08c379a0000000000000000000000000000000000000000000000000000000008152600401808060200182810382526037815260200180612c896037913960400191505060405180910390fd5b6122016125ae565b73ffffffffffffffffffffffffffffffffffffffff166002600084815260200190815260200160002060009054906101000a900473ffffffffffffffffffffffffffffffffffffffff1673ffffffffffffffffffffffffffffffffffffffff16146122b7576040517f08c379a0000000000000000000000000000000000000000000000000000000008152600401808060200182810382526034815260200180612a006034913960400191505060405180910390fd5b600073ffffffffffffffffffffffffffffffffffffffff166002600083815260200190815260200160002060009054906101000a900473ffffffffffffffffffffffffffffffffffffffff1673ffffffffffffffffffffffffffffffffffffffff161415612370576040517f08c379a000000000000000000000000000000000000000000000000000000000815260040180806020018281038252602c815260200180612b61602c913960400191505060405180910390fd5b6004600083815260200190815260200160002060009054906101000a900460ff16156123e7576040517f08c379a000000000000000000000000000000000000000000000000000000000815260040180806020018281038252602c815260200180612b35602c913960400191505060405180910390fd5b6005600082815260200190815260200160002060009054906101000a900460ff1661245d576040517f08c379a0000000000000000000000000000000000000000000000000000000008152600401808060200182810382526046815260200180612aaf6046913960600191505060405180910390fd5b60016004600084815260200190815260200160002060006101000a81548160ff0219169083151502179055506006600082815260200190815260200160002054600660008481526020019081526020016000208190555080827fe4dc822b14b51bcb0daee9b2a47ad5cfe785b97988c9ba9fb18a008fa74d8d0660405160405180910390a35050565b6124fa6000801b6124f56125ae565b6113a0565b61254f576040517f08c379a0000000000000000000000000000000000000000000000000000000008152600401808060200182810382526045815260200180612a346045913960600191505060405180910390fd5b60006008600083815260200190815260200160002060006101000a81548160ff02191690831515021790555050565b60006125a6836000018373ffffffffffffffffffffffffffffffffffffffff1660001b612749565b905092915050565b600033905090565b6125dd8160008085815260200190815260200160002060000161257e90919063ffffffff16565b15612645576125ea6125ae565b73ffffffffffffffffffffffffffffffffffffffff168173ffffffffffffffffffffffffffffffffffffffff16837f2f8788117e7eff1d82e926ec794901d17c78024a50270940304540a733656f0d60405160405180910390a45b5050565b612670816000808581526020019081526020016000206000016127b990919063ffffffff16565b156126d85761267d6125ae565b73ffffffffffffffffffffffffffffffffffffffff168173ffffffffffffffffffffffffffffffffffffffff16837ff6391f5c32d9c69d2a47ea670b442974b53935d1edc7fd64eb21e047a839171b60405160405180910390a45b5050565b60006126eb83600001836127e9565b60001c905092915050565b600061271e836000018373ffffffffffffffffffffffffffffffffffffffff1660001b61286c565b905092915050565b61273082826125b6565b5050565b60006127428260000161288f565b9050919050565b6000612755838361286c565b6127ae5782600001829080600181540180825580915050600190039060005260206000200160009091909190915055826000018054905083600101600084815260200190815260200160002081905550600190506127b3565b600090505b92915050565b60006127e1836000018373ffffffffffffffffffffffffffffffffffffffff1660001b6128a0565b905092915050565b60008183600001805490501161284a576040517f08c379a00000000000000000000000000000000000000000000000000000000081526004018080602001828103825260228152602001806129896022913960400191505060405180910390fd5b82600001828154811061285957fe5b9060005260206000200154905092915050565b600080836001016000848152602001908152602001600020541415905092915050565b600081600001805490509050919050565b6000808360010160008481526020019081526020016000205490506000811461297c57600060018203905060006001866000018054905003905060008660000182815481106128eb57fe5b906000526020600020015490508087600001848154811061290857fe5b906000526020600020018190555060018301876001016000838152602001908152602001600020819055508660000180548061294057fe5b60019003818190600052602060002001600090559055866001016000878152602001908152602001600020600090556001945050505050612982565b60009150505b9291505056fe456e756d657261626c655365743a20696e646578206f7574206f6620626f756e64735370617469616c4173736574733a2073746f72616765206d75737420626520616c6c6f776564416363657373436f6e74726f6c3a2073656e646572206d75737420626520616e2061646d696e20746f206772616e745370617469616c4173736574733a2067656f4449444964206d757374206265206f776e6564206279206974732063726561746f725370617469616c4173736574733a206d75737420686176652061646d696e20726f6c6520746f206564697420616c6c6f776564206f6666636861696e2073746f72616765735370617469616c4173736574733a2047656f44494420646f6573206e6f742068617665206120706172656e7420746f2072656d6f76655370617469616c4173736574733a20706172656e7447656f4449444964206d7573742062652061626c6520746f20626520706172656e7420286120436f6c6c656374696f6e295370617469616c4173736574733a2067656f4449444964206d7573742062652061626c6520746f20626520706172656e7420286120436f6c6c656374696f6e295370617469616c4173736574733a2067656f444944496420616c726561647920686173206120706172656e745370617469616c4173736574733a20706172656e7447656f444944496420646f6573206e6f74206578697374416363657373436f6e74726f6c3a2073656e646572206d75737420626520616e2061646d696e20746f207265766f6b655370617469616c4173736574733a2047656f44494420746f2062652072656d6f76656420617320706172656e7420646f6573206e6f742065786973745370617469616c4173736574733a2073746f72616765206d757374206e6f7420626520616374697665207965745370617469616c4173736574733a2063616c6c6572206973206e6f74206f776e6572206f6620746865205370617469616c2041737365745370617469616c4173736574733a206964206d757374206e6f74206861766520616e206f776e6572207965745370617469616c4173736574733a206d7573742068617665206461746120737570706c69657220726f6c6520746f2072656769737465725370617469616c4173736574733a206d757374206e6f742068617665206120444154415f535550504c49455220726f6c6520796574416363657373436f6e74726f6c3a2063616e206f6e6c792072656e6f756e636520726f6c657320666f722073656c66a264697066735822122005739b90067e7e6d227588ca3391c105bc3037e6c2578b619182622ea3555fef64736f6c634300060c0033",
  "immutableReferences": {},
  "source": "// SPDX-License-Identifier: APACHE OR MIT\npragma solidity ^0.6.0;\n\nimport \"@openzeppelin/contracts/access/AccessControl.sol\";\nimport \"@openzeppelin/contracts/GSN/Context.sol\";\n\n/**\n * @dev {SpatialAssets} registry\n * This contract uses {AccessControl} to lock permissioned functions using the\n * different roles - head to its documentation for details.\n *\n * The account that deploys the contract will be granted the 'DATA_SUPPLIER' as well as the default admin role, which will let it grant\n * 'DATA_SUPPLIER' roles to other accounts\n */\ncontract SpatialAssets is Context, AccessControl {\n    /**\n     * @dev Emitted when Spatial Assets of id `id` are transferred to `to``.\n     */\n    event SpatialAssetRegistered(address indexed to, bytes32 indexed geoDIDId, bytes32 indexed cid, bytes32 offChainStorage, bytes32 root, bool canBeParent);\n\n    /**\n     * @dev Emitted when Spatial Assets of id `id` are deactivated.\n     */\n    event SpatialAssetDeactivated(bytes32 indexed geoDIDId, bytes32[] childrenToRemove);\n\n    /**\n     * @dev Emitted when a parent geodid is added to a node\n     */\n    event ParentAdded(bytes32 indexed geoDIDId, bytes32 indexed parentGeoDIDId);\n\n    /**\n     * @dev Emitted when a children geodid is added to a node\n     */\n    event ChildrenAdded(bytes32 indexed geoDIDId, bytes32 indexed childrenGeoDIDId);\n\n    /**\n     * @dev Emitted when a parent geodid is removed from a node\n     */\n    event ParentRemoved(bytes32 indexed geoDIDId, bytes32 indexed parentGeoDIDId);\n\n    /**\n     * @dev Emitted when a children geodid is removed from a node\n     */\n    event ChildrenRemoved(bytes32 indexed geoDIDId, bytes32 indexed childrenGeoDIDId);\n\n    bytes32 public constant DATA_SUPPLIER = keccak256(\"DATA_SUPPLIER\");\n\n    string private _uri;\n\n    // Mapping from GeodidID to registrant\n    mapping (bytes32 => address) private _owners;\n    \n    // Mapping from GeodidID to Cid\n    mapping (bytes32 => bytes32) private _cids;\n\n    // Mapping from GeodidID to parenthood status\n    mapping (bytes32 => bool) private _hasParent;\n\n    // Mapping from GeodidID to parenthood type\n    mapping (bytes32 => bool) private _canBeParent;\n    \n    // Mapping from GeodidID to root GeoDID\n    mapping (bytes32 => bytes32) private _root;\n\n    // Mapping from id to spatial asset external storage\n    mapping (bytes32 => bytes32) private _externalStorage;\n\n    // Allowed external storages signatures\n    mapping (bytes32 => bool) private _allowedStorages;\n\n\n    /**\n     * @dev Grants `DEFAULT_ADMIN_ROLE`, `DATA_SUPPLIER` to the account that\n     * deploys the contract.\n     */\n    constructor(string memory uri) public {\n        _setURI(uri);\n        _setupRole(DEFAULT_ADMIN_ROLE, _msgSender());\n        _setupRole(DATA_SUPPLIER, _msgSender());\n\n    }\n\n    /**\n     * @dev Registers a new user with the ability to register a spatial asset.\n     */\n    function registerRole() public {\n        require(!hasRole(DATA_SUPPLIER, _msgSender()), \"SpatialAssets: must not have a DATA_SUPPLIER role yet\");\n        _setupRole(DATA_SUPPLIER, _msgSender());\n    }\n\n    /**\n     * @dev Registers a new storage that can accept GeoDID document creation\n     */\n    function enableStorage(bytes32 offChainStorage) public {\n        require(hasRole(DEFAULT_ADMIN_ROLE, _msgSender()), \"SpatialAssets: must have admin role to edit allowed offchain storages\");\n        require(_allowedStorages[offChainStorage]== false, \"SpatialAssets: storage must not be active yet\");\n        _allowedStorages[offChainStorage] = true;\n    }\n\n    /**\n     * @dev Disables an existing storage\n     */\n    function disableStorage(bytes32 offChainStorage) public {\n        require(hasRole(DEFAULT_ADMIN_ROLE, _msgSender()), \"SpatialAssets: must have admin role to edit allowed offchain storages\");\n        _allowedStorages[offChainStorage] = false;\n    }\n\n\n    /**\n     * @dev Registers one spatial asset with external storage 'data' and assigns them to `account`.\n     *\n     * Emits a {SpatialAssetRegistered} event.\n     */\n    function registerSpatialAsset(address owner, bytes32 geoDIDId, bytes32 parentGeoDIDId , bytes32[] memory childrenGeoDIDIds, bytes32 cid, bytes32 offChainStorage, uint256 geoDIDtype) public {\n        require(hasRole(DATA_SUPPLIER, _msgSender()), \"SpatialAssets: must have data supplier role to register\");\n        require(allowedStorages(offChainStorage), \"SpatialAssets: storage must be allowed\");\n        require(_owners[geoDIDId] == address(0), \"SpatialAssets: id must not have an owner yet\");\n        require(geoDIDtype  == 0 || geoDIDtype == 1, \"Spatial Assets: wrong geodidtype\");\n\n        _cids[geoDIDId] =cid;\n        _owners[geoDIDId] = owner;\n        _externalStorage[geoDIDId] = offChainStorage;\n\n        if (geoDIDtype == 0) {\n            _canBeParent[geoDIDId] = true;\n        } else if (geoDIDtype == 1) {\n            _canBeParent[geoDIDId] = false;\n        }\n\n        if (parentGeoDIDId == bytes32(0)) {\n            _hasParent[geoDIDId] = false;\n            _root[geoDIDId] = geoDIDId;\n        emit SpatialAssetRegistered(owner, geoDIDId, cid, offChainStorage, geoDIDId, _canBeParent[geoDIDId]);\n        } else {\n            _hasParent[geoDIDId] = true;\n            emit SpatialAssetRegistered(owner, geoDIDId, cid, offChainStorage, _root[parentGeoDIDId], _canBeParent[geoDIDId]);\n            emit ParentAdded(geoDIDId, parentGeoDIDId);\n        }\n\n        uint256 childrensLen = childrenGeoDIDIds.length;\n\n        if (childrensLen > 0 && _canBeParent[geoDIDId]){\n            for(uint256 j=0; j < childrensLen; j++) {\n                bytes32 childrenGeoDID = childrenGeoDIDIds[j];\n                _hasParent[childrenGeoDID] = true;\n                emit ChildrenAdded(geoDIDId, childrenGeoDID);\n            }\n        }\n    }\n\n\n    /**\n     * @dev Adds children GeoDIDs to an already existent geoDID\n     *\n     * Emits a {ChildrenAdded} event.\n     */\n    function addChildrenGeoDIDs(bytes32 geoDIDId, bytes32[] memory childrenGeoDIDIds) public {\n        require(hasRole(DATA_SUPPLIER, _msgSender()), \"SpatialAssets: must have data supplier role to register\");\n        require(_owners[geoDIDId] == _msgSender(), \"SpatialAssets: geoDIDId must be owned by its creator\");\n        require(_canBeParent[geoDIDId], \"SpatialAssets: geoDIDId must be able to be parent (a Collection)\");\n\n        uint256 childrensLen = childrenGeoDIDIds.length;\n\n        if (childrensLen > 0){\n            for(uint256 j=0; j < childrensLen; j++) {\n                bytes32 childrenGeoDID = childrenGeoDIDIds[j];\n                if (_owners[childrenGeoDID] != address(0) && !_hasParent[childrenGeoDID]) {\n                    _hasParent[childrenGeoDID] = true;\n                    _root[childrenGeoDID] = _root[geoDIDId];\n                    emit ChildrenAdded(geoDIDId, childrenGeoDID);\n                }\n            }\n        }\n    }\n\n    /**\n     * @dev Adds a parent GeoDID to an already existent geoDID\n     *\n     * Emits a {ParentAdded} event.\n     */\n    function addParentGeoDID(bytes32 geoDIDId, bytes32 parentGeoDIDId) public {\n        require(hasRole(DATA_SUPPLIER, _msgSender()), \"SpatialAssets: must have data supplier role to register\");\n        require(_owners[geoDIDId] == _msgSender(), \"SpatialAssets: geoDIDId must be owned by its creator\");\n        require(_owners[parentGeoDIDId] != address(0), \"SpatialAssets: parentGeoDIDId does not exist\");\n        require(!_hasParent[geoDIDId], \"SpatialAssets: geoDIDId already has a parent\");\n        require(_canBeParent[parentGeoDIDId], \"SpatialAssets: parentGeoDIDId must be able to be parent (a Collection)\");\n\n        _hasParent[geoDIDId] = true;\n        _root[geoDIDId] = _root[parentGeoDIDId];\n        emit ParentAdded(geoDIDId, parentGeoDIDId);\n    }\n\n    \n    /**\n     * @dev Removes childrenGeoDIDs from a geoDID\n     *\n     * Emits a {ChildrenRemoved} event.\n     */\n    function removeChildrenGeoDIDs(bytes32 geoDIDId, bytes32[] memory childrenGeoDIDIds) public {\n        require(hasRole(DATA_SUPPLIER, _msgSender()), \"SpatialAssets: must have data supplier role to register\");\n        require(_owners[geoDIDId] == _msgSender(), \"SpatialAssets: id must not have an owner yet\");\n\n        uint256 childrensLen = childrenGeoDIDIds.length;\n\n        if (childrensLen > 0){\n            for(uint256 j=0; j < childrensLen; j++) {\n                bytes32 childrenGeoDID = childrenGeoDIDIds[j];\n                if (_owners[childrenGeoDID] != address(0) && _hasParent[childrenGeoDID]) {\n                    _hasParent[childrenGeoDID] = false;\n                    _root[childrenGeoDID] = childrenGeoDID;\n                    emit ChildrenRemoved(geoDIDId, childrenGeoDID);\n                }\n            }\n        }\n    }\n\n\n     /**\n     * @dev Removes a parent GeoDID from an already existent geoDID\n     *\n     * Emits a {ParentAdded} event.\n     */\n    function removeParentGeoDID(bytes32 geoDIDId, bytes32 parentGeoDIDId) public {\n        require(hasRole(DATA_SUPPLIER, _msgSender()), \"SpatialAssets: must have data supplier role to register\");\n        require(_owners[geoDIDId] == _msgSender(), \"SpatialAssets: id must not have an owner yet\");\n        require(_owners[parentGeoDIDId] != address(0), \"SpatialAssets: GeoDID to be removed as parent does not exist\");\n        require(_hasParent[geoDIDId], \"SpatialAssets: GeoDID does not have a parent to remove\");\n\n        _hasParent[geoDIDId] = false;\n        _root[geoDIDId] = geoDIDId;\n        \n        emit ParentRemoved(geoDIDId, parentGeoDIDId);\n    }\n\n    /**\n     * @dev De-registers a spatial asset\n     */\n     function deactivateSpatialAsset(bytes32 geoDIDId, bytes32[] memory childrenToRemove) public {\n        require(\n            _owners[geoDIDId] == _msgSender(),\"SpatialAssets: caller is not owner of the Spatial Asset\"\n        );\n        _owners[geoDIDId] = address(0);\n        _externalStorage[geoDIDId] = \"\";\n        _cids[geoDIDId] = \"\";\n        _hasParent[geoDIDId] = false;\n        _root[geoDIDId] = \"\";\n\n        uint256 childrensLen = childrenToRemove.length;\n\n        if (childrensLen > 0){\n            for(uint256 j=0; j < childrensLen; j++) {\n                bytes32 childrenGeoDID = childrenToRemove[j];\n                if (_owners[childrenGeoDID] != address(0) && _hasParent[childrenGeoDID]) {\n                    _root[childrenGeoDID] = childrenGeoDID;\n                    _hasParent[childrenGeoDID] = false;\n                }\n            }\n        }\n\n        emit SpatialAssetDeactivated(geoDIDId, childrenToRemove);\n    }\n  \n    /**\n     * @dev Sets a new URI for all the spatial asset types\n     */\n    function _setURI(string memory newuri) internal {\n        _uri = newuri;\n    }\n\n    function idToOwner(bytes32 id) public view returns (address) {\n        return _owners[id];\n    }\n\n    function idToCid(bytes32 id) public view returns (bytes32) {\n        return _cids[id];\n    }\n\n    function idToCanBeParent(bytes32 id) public view returns (bool) {\n        return _canBeParent[id];\n    }\n\n    function idToHasParent(bytes32 id) public view returns (bool) {\n        return _hasParent[id];\n    }\n\n    function idToExternalStorage(bytes32 id) public view returns (bytes32) {\n        return _externalStorage[id];\n    }\n\n    function allowedStorages(bytes32 offChainStorage) public view returns (bool) {\n        return _allowedStorages[offChainStorage];\n    }\n\n    function uri() public view returns (string memory) {\n        return _uri;\n    }\n}\n",
  "sourcePath": "/home/j-mars/astralprotocol/astralprotocol/packages/contracts/contracts/SpatialAssets.sol",
  "compiler": {
    "name": "solc",
    "version": "0.6.12+commit.27d51765.Emscripten.clang"
  },
  "schemaVersion": "3.3.4",
  "updatedAt": "2021-02-24T14:46:12.253Z",
  "networkType": "ethereum",
  "devdoc": {
    "details": "{SpatialAssets} registry This contract uses {AccessControl} to lock permissioned functions using the different roles - head to its documentation for details. The account that deploys the contract will be granted the 'DATA_SUPPLIER' as well as the default admin role, which will let it grant 'DATA_SUPPLIER' roles to other accounts",
    "events": {
      "ChildrenAdded(bytes32,bytes32)": {
        "details": "Emitted when a children geodid is added to a node"
      },
      "ChildrenRemoved(bytes32,bytes32)": {
        "details": "Emitted when a children geodid is removed from a node"
      },
      "ParentAdded(bytes32,bytes32)": {
        "details": "Emitted when a parent geodid is added to a node"
      },
      "ParentRemoved(bytes32,bytes32)": {
        "details": "Emitted when a parent geodid is removed from a node"
      },
      "SpatialAssetDeactivated(bytes32,bytes32[])": {
        "details": "Emitted when Spatial Assets of id `id` are deactivated."
      },
      "SpatialAssetRegistered(address,bytes32,bytes32,bytes32,bytes32,bool)": {
        "details": "Emitted when Spatial Assets of id `id` are transferred to `to``."
      }
    },
    "kind": "dev",
    "methods": {
      "addChildrenGeoDIDs(bytes32,bytes32[])": {
        "details": "Adds children GeoDIDs to an already existent geoDID Emits a {ChildrenAdded} event."
      },
      "addParentGeoDID(bytes32,bytes32)": {
        "details": "Adds a parent GeoDID to an already existent geoDID Emits a {ParentAdded} event."
      },
      "constructor": {
        "details": "Grants `DEFAULT_ADMIN_ROLE`, `DATA_SUPPLIER` to the account that deploys the contract."
      },
      "deactivateSpatialAsset(bytes32,bytes32[])": {
        "details": "De-registers a spatial asset"
      },
      "disableStorage(bytes32)": {
        "details": "Disables an existing storage"
      },
      "enableStorage(bytes32)": {
        "details": "Registers a new storage that can accept GeoDID document creation"
      },
      "getRoleAdmin(bytes32)": {
        "details": "Returns the admin role that controls `role`. See {grantRole} and {revokeRole}. To change a role's admin, use {_setRoleAdmin}."
      },
      "getRoleMember(bytes32,uint256)": {
        "details": "Returns one of the accounts that have `role`. `index` must be a value between 0 and {getRoleMemberCount}, non-inclusive. Role bearers are not sorted in any particular way, and their ordering may change at any point. WARNING: When using {getRoleMember} and {getRoleMemberCount}, make sure you perform all queries on the same block. See the following https://forum.openzeppelin.com/t/iterating-over-elements-on-enumerableset-in-openzeppelin-contracts/2296[forum post] for more information."
      },
      "getRoleMemberCount(bytes32)": {
        "details": "Returns the number of accounts that have `role`. Can be used together with {getRoleMember} to enumerate all bearers of a role."
      },
      "grantRole(bytes32,address)": {
        "details": "Grants `role` to `account`. If `account` had not been already granted `role`, emits a {RoleGranted} event. Requirements: - the caller must have ``role``'s admin role."
      },
      "hasRole(bytes32,address)": {
        "details": "Returns `true` if `account` has been granted `role`."
      },
      "registerRole()": {
        "details": "Registers a new user with the ability to register a spatial asset."
      },
      "registerSpatialAsset(address,bytes32,bytes32,bytes32[],bytes32,bytes32,uint256)": {
        "details": "Registers one spatial asset with external storage 'data' and assigns them to `account`. Emits a {SpatialAssetRegistered} event."
      },
      "removeChildrenGeoDIDs(bytes32,bytes32[])": {
        "details": "Removes childrenGeoDIDs from a geoDID Emits a {ChildrenRemoved} event."
      },
      "removeParentGeoDID(bytes32,bytes32)": {
        "details": "Removes a parent GeoDID from an already existent geoDID Emits a {ParentAdded} event."
      },
      "renounceRole(bytes32,address)": {
        "details": "Revokes `role` from the calling account. Roles are often managed via {grantRole} and {revokeRole}: this function's purpose is to provide a mechanism for accounts to lose their privileges if they are compromised (such as when a trusted device is misplaced). If the calling account had been granted `role`, emits a {RoleRevoked} event. Requirements: - the caller must be `account`."
      },
      "revokeRole(bytes32,address)": {
        "details": "Revokes `role` from `account`. If `account` had been granted `role`, emits a {RoleRevoked} event. Requirements: - the caller must have ``role``'s admin role."
      }
    },
    "version": 1
  },
  "userdoc": {
    "kind": "user",
    "methods": {},
    "version": 1
  }
}