{
  "contractName": "SpatialAssets",
  "abi": [
    {
      "inputs": [
        {
          "internalType": "string",
          "name": "uri",
          "type": "string"
        }
      ],
      "stateMutability": "nonpayable",
      "type": "constructor"
    },
    {
      "anonymous": false,
      "inputs": [
        {
          "indexed": true,
          "internalType": "bytes32",
          "name": "geoDIDId",
          "type": "bytes32"
        },
        {
          "indexed": true,
          "internalType": "bytes32",
          "name": "childrenGeoDIDId",
          "type": "bytes32"
        }
      ],
      "name": "ChildrenAdded",
      "type": "event"
    },
    {
      "anonymous": false,
      "inputs": [
        {
          "indexed": true,
          "internalType": "bytes32",
          "name": "geoDIDId",
          "type": "bytes32"
        },
        {
          "indexed": true,
          "internalType": "bytes32",
          "name": "childrenGeoDIDId",
          "type": "bytes32"
        }
      ],
      "name": "ChildrenErrorHasParent",
      "type": "event"
    },
    {
      "anonymous": false,
      "inputs": [
        {
          "indexed": true,
          "internalType": "bytes32",
          "name": "geoDIDId",
          "type": "bytes32"
        },
        {
          "indexed": true,
          "internalType": "bytes32",
          "name": "childrenGeoDIDId",
          "type": "bytes32"
        }
      ],
      "name": "ChildrenErrorNoExistence",
      "type": "event"
    },
    {
      "anonymous": false,
      "inputs": [
        {
          "indexed": true,
          "internalType": "bytes32",
          "name": "geoDIDId",
          "type": "bytes32"
        },
        {
          "indexed": true,
          "internalType": "bytes32",
          "name": "childrenGeoDIDId",
          "type": "bytes32"
        }
      ],
      "name": "ChildrenErrorNoParent",
      "type": "event"
    },
    {
      "anonymous": false,
      "inputs": [
        {
          "indexed": true,
          "internalType": "bytes32",
          "name": "geoDIDId",
          "type": "bytes32"
        },
        {
          "indexed": true,
          "internalType": "bytes32",
          "name": "childrenGeoDIDId",
          "type": "bytes32"
        }
      ],
      "name": "ChildrenRemoved",
      "type": "event"
    },
    {
      "anonymous": false,
      "inputs": [
        {
          "indexed": true,
          "internalType": "bytes32",
          "name": "geoDIDId",
          "type": "bytes32"
        },
        {
          "indexed": true,
          "internalType": "bytes32",
          "name": "parentGeoDIDId",
          "type": "bytes32"
        }
      ],
      "name": "ParentAdded",
      "type": "event"
    },
    {
      "anonymous": false,
      "inputs": [
        {
          "indexed": true,
          "internalType": "bytes32",
          "name": "geoDIDId",
          "type": "bytes32"
        },
        {
          "indexed": true,
          "internalType": "bytes32",
          "name": "parentGeoDIDId",
          "type": "bytes32"
        }
      ],
      "name": "ParentRemoved",
      "type": "event"
    },
    {
      "anonymous": false,
      "inputs": [
        {
          "indexed": true,
          "internalType": "bytes32",
          "name": "role",
          "type": "bytes32"
        },
        {
          "indexed": true,
          "internalType": "bytes32",
          "name": "previousAdminRole",
          "type": "bytes32"
        },
        {
          "indexed": true,
          "internalType": "bytes32",
          "name": "newAdminRole",
          "type": "bytes32"
        }
      ],
      "name": "RoleAdminChanged",
      "type": "event"
    },
    {
      "anonymous": false,
      "inputs": [
        {
          "indexed": true,
          "internalType": "bytes32",
          "name": "role",
          "type": "bytes32"
        },
        {
          "indexed": true,
          "internalType": "address",
          "name": "account",
          "type": "address"
        },
        {
          "indexed": true,
          "internalType": "address",
          "name": "sender",
          "type": "address"
        }
      ],
      "name": "RoleGranted",
      "type": "event"
    },
    {
      "anonymous": false,
      "inputs": [
        {
          "indexed": true,
          "internalType": "bytes32",
          "name": "role",
          "type": "bytes32"
        },
        {
          "indexed": true,
          "internalType": "address",
          "name": "account",
          "type": "address"
        },
        {
          "indexed": true,
          "internalType": "address",
          "name": "sender",
          "type": "address"
        }
      ],
      "name": "RoleRevoked",
      "type": "event"
    },
    {
      "anonymous": false,
      "inputs": [
        {
          "indexed": true,
          "internalType": "bytes32",
          "name": "geoDIDId",
          "type": "bytes32"
        }
      ],
      "name": "SpatialAssetDeactivated",
      "type": "event"
    },
    {
      "anonymous": false,
      "inputs": [
        {
          "indexed": true,
          "internalType": "address",
          "name": "to",
          "type": "address"
        },
        {
          "indexed": true,
          "internalType": "bytes32",
          "name": "geoDIDId",
          "type": "bytes32"
        },
        {
          "indexed": true,
          "internalType": "bytes32",
          "name": "cid",
          "type": "bytes32"
        },
        {
          "indexed": false,
          "internalType": "bytes32",
          "name": "offChainStorage",
          "type": "bytes32"
        },
        {
          "indexed": false,
          "internalType": "bytes32",
          "name": "root",
          "type": "bytes32"
        },
        {
          "indexed": false,
          "internalType": "bool",
          "name": "canBeParent",
          "type": "bool"
        }
      ],
      "name": "SpatialAssetRegistered",
      "type": "event"
    },
    {
      "inputs": [],
      "name": "DATA_SUPPLIER",
      "outputs": [
        {
          "internalType": "bytes32",
          "name": "",
          "type": "bytes32"
        }
      ],
      "stateMutability": "view",
      "type": "function",
      "constant": true
    },
    {
      "inputs": [],
      "name": "DEFAULT_ADMIN_ROLE",
      "outputs": [
        {
          "internalType": "bytes32",
          "name": "",
          "type": "bytes32"
        }
      ],
      "stateMutability": "view",
      "type": "function",
      "constant": true
    },
    {
      "inputs": [
        {
          "internalType": "bytes32",
          "name": "role",
          "type": "bytes32"
        }
      ],
      "name": "getRoleAdmin",
      "outputs": [
        {
          "internalType": "bytes32",
          "name": "",
          "type": "bytes32"
        }
      ],
      "stateMutability": "view",
      "type": "function",
      "constant": true
    },
    {
      "inputs": [
        {
          "internalType": "bytes32",
          "name": "role",
          "type": "bytes32"
        },
        {
          "internalType": "uint256",
          "name": "index",
          "type": "uint256"
        }
      ],
      "name": "getRoleMember",
      "outputs": [
        {
          "internalType": "address",
          "name": "",
          "type": "address"
        }
      ],
      "stateMutability": "view",
      "type": "function",
      "constant": true
    },
    {
      "inputs": [
        {
          "internalType": "bytes32",
          "name": "role",
          "type": "bytes32"
        }
      ],
      "name": "getRoleMemberCount",
      "outputs": [
        {
          "internalType": "uint256",
          "name": "",
          "type": "uint256"
        }
      ],
      "stateMutability": "view",
      "type": "function",
      "constant": true
    },
    {
      "inputs": [
        {
          "internalType": "bytes32",
          "name": "role",
          "type": "bytes32"
        },
        {
          "internalType": "address",
          "name": "account",
          "type": "address"
        }
      ],
      "name": "grantRole",
      "outputs": [],
      "stateMutability": "nonpayable",
      "type": "function"
    },
    {
      "inputs": [
        {
          "internalType": "bytes32",
          "name": "role",
          "type": "bytes32"
        },
        {
          "internalType": "address",
          "name": "account",
          "type": "address"
        }
      ],
      "name": "hasRole",
      "outputs": [
        {
          "internalType": "bool",
          "name": "",
          "type": "bool"
        }
      ],
      "stateMutability": "view",
      "type": "function",
      "constant": true
    },
    {
      "inputs": [
        {
          "internalType": "bytes32",
          "name": "role",
          "type": "bytes32"
        },
        {
          "internalType": "address",
          "name": "account",
          "type": "address"
        }
      ],
      "name": "renounceRole",
      "outputs": [],
      "stateMutability": "nonpayable",
      "type": "function"
    },
    {
      "inputs": [
        {
          "internalType": "bytes32",
          "name": "role",
          "type": "bytes32"
        },
        {
          "internalType": "address",
          "name": "account",
          "type": "address"
        }
      ],
      "name": "revokeRole",
      "outputs": [],
      "stateMutability": "nonpayable",
      "type": "function"
    },
    {
      "inputs": [],
      "name": "registerRole",
      "outputs": [],
      "stateMutability": "nonpayable",
      "type": "function"
    },
    {
      "inputs": [
        {
          "internalType": "bytes32",
          "name": "offChainStorage",
          "type": "bytes32"
        }
      ],
      "name": "enableStorage",
      "outputs": [],
      "stateMutability": "nonpayable",
      "type": "function"
    },
    {
      "inputs": [
        {
          "internalType": "bytes32",
          "name": "offChainStorage",
          "type": "bytes32"
        }
      ],
      "name": "disableStorage",
      "outputs": [],
      "stateMutability": "nonpayable",
      "type": "function"
    },
    {
      "inputs": [
        {
          "internalType": "address",
          "name": "owner",
          "type": "address"
        },
        {
          "internalType": "bytes32",
          "name": "geoDIDId",
          "type": "bytes32"
        },
        {
          "internalType": "bytes32",
          "name": "parentGeoDIDId",
          "type": "bytes32"
        },
        {
          "internalType": "bytes32[]",
          "name": "childrenGeoDIDIds",
          "type": "bytes32[]"
        },
        {
          "internalType": "bytes32",
          "name": "cid",
          "type": "bytes32"
        },
        {
          "internalType": "bytes32",
          "name": "offChainStorage",
          "type": "bytes32"
        },
        {
          "internalType": "uint256",
          "name": "geoDIDtype",
          "type": "uint256"
        }
      ],
      "name": "registerSpatialAsset",
      "outputs": [],
      "stateMutability": "nonpayable",
      "type": "function"
    },
    {
      "inputs": [
        {
          "internalType": "bytes32",
          "name": "geoDIDId",
          "type": "bytes32"
        },
        {
          "internalType": "bytes32[]",
          "name": "childrenGeoDIDIds",
          "type": "bytes32[]"
        }
      ],
      "name": "addChildrenGeoDIDs",
      "outputs": [],
      "stateMutability": "nonpayable",
      "type": "function"
    },
    {
      "inputs": [
        {
          "internalType": "bytes32",
          "name": "geoDIDId",
          "type": "bytes32"
        },
        {
          "internalType": "bytes32",
          "name": "parentGeoDIDId",
          "type": "bytes32"
        }
      ],
      "name": "addParentGeoDID",
      "outputs": [],
      "stateMutability": "nonpayable",
      "type": "function"
    },
    {
      "inputs": [
        {
          "internalType": "bytes32",
          "name": "geoDIDId",
          "type": "bytes32"
        },
        {
          "internalType": "bytes32[]",
          "name": "childrenGeoDIDIds",
          "type": "bytes32[]"
        }
      ],
      "name": "removeChildrenGeoDIDs",
      "outputs": [],
      "stateMutability": "nonpayable",
      "type": "function"
    },
    {
      "inputs": [
        {
          "internalType": "bytes32",
          "name": "geoDIDId",
          "type": "bytes32"
        },
        {
          "internalType": "bytes32",
          "name": "parentGeoDIDId",
          "type": "bytes32"
        }
      ],
      "name": "removeParentGeoDID",
      "outputs": [],
      "stateMutability": "nonpayable",
      "type": "function"
    },
    {
      "inputs": [
        {
          "internalType": "bytes32",
          "name": "geoDIDId",
          "type": "bytes32"
        },
        {
          "internalType": "bytes32[]",
          "name": "childrenToRemove",
          "type": "bytes32[]"
        }
      ],
      "name": "deactivateSpatialAsset",
      "outputs": [],
      "stateMutability": "nonpayable",
      "type": "function"
    },
    {
      "inputs": [
        {
          "internalType": "bytes32",
          "name": "id",
          "type": "bytes32"
        }
      ],
      "name": "idToOwner",
      "outputs": [
        {
          "internalType": "address",
          "name": "",
          "type": "address"
        }
      ],
      "stateMutability": "view",
      "type": "function",
      "constant": true
    },
    {
      "inputs": [
        {
          "internalType": "bytes32",
          "name": "id",
          "type": "bytes32"
        }
      ],
      "name": "idToCid",
      "outputs": [
        {
          "internalType": "bytes32",
          "name": "",
          "type": "bytes32"
        }
      ],
      "stateMutability": "view",
      "type": "function",
      "constant": true
    },
    {
      "inputs": [
        {
          "internalType": "bytes32",
          "name": "id",
          "type": "bytes32"
        }
      ],
      "name": "idToCanBeParent",
      "outputs": [
        {
          "internalType": "bool",
          "name": "",
          "type": "bool"
        }
      ],
      "stateMutability": "view",
      "type": "function",
      "constant": true
    },
    {
      "inputs": [
        {
          "internalType": "bytes32",
          "name": "id",
          "type": "bytes32"
        }
      ],
      "name": "idToHasParent",
      "outputs": [
        {
          "internalType": "bool",
          "name": "",
          "type": "bool"
        }
      ],
      "stateMutability": "view",
      "type": "function",
      "constant": true
    },
    {
      "inputs": [
        {
          "internalType": "bytes32",
          "name": "id",
          "type": "bytes32"
        }
      ],
      "name": "idToExternalStorage",
      "outputs": [
        {
          "internalType": "bytes32",
          "name": "",
          "type": "bytes32"
        }
      ],
      "stateMutability": "view",
      "type": "function",
      "constant": true
    },
    {
      "inputs": [
        {
          "internalType": "bytes32",
          "name": "offChainStorage",
          "type": "bytes32"
        }
      ],
      "name": "allowedStorages",
      "outputs": [
        {
          "internalType": "bool",
          "name": "",
          "type": "bool"
        }
      ],
      "stateMutability": "view",
      "type": "function",
      "constant": true
    },
    {
      "inputs": [],
      "name": "uri",
      "outputs": [
        {
          "internalType": "string",
          "name": "",
          "type": "string"
        }
      ],
      "stateMutability": "view",
      "type": "function",
      "constant": true
    }
  ],
  "bytecode": "0x60806040523480156200001157600080fd5b506040516200236138038062002361833981810160405260208110156200003757600080fd5b81019080805160405193929190846401000000008211156200005857600080fd5b9083019060208201858111156200006e57600080fd5b82516401000000008111828201881017156200008957600080fd5b82525081516020918201929091019080838360005b83811015620000b85781810151838201526020016200009e565b50505050905090810190601f168015620000e65780820380516001836020036101000a031916815260200191505b50604052505050620000fe816200014a60201b60201c565b6200011460006200010e62000163565b62000167565b620001437fb90ec3213bc54b34738ca7ad785b7e6275742931f3ddfa147171c27090643f3f6200010e62000163565b5062000309565b80516200015f9060019060208401906200026d565b5050565b3390565b6200015f8282600082815260208181526040909120620001929183906200199b620001e6821b17901c565b156200015f57620001a262000163565b6001600160a01b0316816001600160a01b0316837f2f8788117e7eff1d82e926ec794901d17c78024a50270940304540a733656f0d60405160405180910390a45050565b6000620001fd836001600160a01b03841662000206565b90505b92915050565b600062000214838362000255565b6200024c5750815460018181018455600084815260208082209093018490558454848252828601909352604090209190915562000200565b50600062000200565b60009081526001919091016020526040902054151590565b828054600181600116156101000203166002900490600052602060002090601f016020900481019282601f10620002b057805160ff1916838001178555620002e0565b82800160010185558215620002e0579182015b82811115620002e0578251825591602001919060010190620002c3565b50620002ee929150620002f2565b5090565b5b80821115620002ee5760008155600101620002f3565b61204880620003196000396000f3fe608060405234801561001057600080fd5b50600436106101735760003560e01c806391d14854116100de578063c44e96a011610097578063d547741f11610071578063d547741f14610663578063eac989f81461068f578063f999be891461070c578063fd52c0d51461072f57610173565b8063c44e96a014610621578063c66f70cc14610629578063ca15c8731461064657610173565b806391d14854146103cd5780639969879b146103f9578063a217fddf14610401578063a8f904b514610409578063b22de880146104b1578063bdabcf631461057957610173565b806336568abe1161013057806336568abe146103045780636e7a6f4b146103305780637c1c6c271461034d57806384f42912146103705780638d0a9bff1461038d5780639010d07c146103aa57610173565b8063092e9f25146101785780630bfa194d146101a95780630e437b1c146101c65780631dc2a7b014610270578063248a9ca3146102a95780632f2ff15d146102d8575b600080fd5b6101956004803603602081101561018e57600080fd5b503561074c565b604080519115158252519081900360200190f35b610195600480360360208110156101bf57600080fd5b5035610761565b61026e600480360360408110156101dc57600080fd5b81359190810190604081016020820135600160201b8111156101fd57600080fd5b82018360208201111561020f57600080fd5b803590602001918460208302840111600160201b8311171561023057600080fd5b919080806020026020016040519081016040528093929190818152602001838360200280828437600092019190915250929550610776945050505050565b005b61028d6004803603602081101561028657600080fd5b50356109b1565b604080516001600160a01b039092168252519081900360200190f35b6102c6600480360360208110156102bf57600080fd5b50356109cc565b60408051918252519081900360200190f35b61026e600480360360408110156102ee57600080fd5b50803590602001356001600160a01b03166109e1565b61026e6004803603604081101561031a57600080fd5b50803590602001356001600160a01b0316610a4d565b61026e6004803603602081101561034657600080fd5b5035610aae565b61026e6004803603604081101561036357600080fd5b5080359060200135610b5f565b6102c66004803603602081101561038657600080fd5b5035610d05565b610195600480360360208110156103a357600080fd5b5035610d17565b61028d600480360360408110156103c057600080fd5b5080359060200135610d2c565b610195600480360360408110156103e357600080fd5b50803590602001356001600160a01b0316610d4d565b6102c6610d65565b6102c6610d77565b61026e6004803603604081101561041f57600080fd5b81359190810190604081016020820135600160201b81111561044057600080fd5b82018360208201111561045257600080fd5b803590602001918460208302840111600160201b8311171561047357600080fd5b919080806020026020016040519081016040528093929190818152602001838360200280828437600092019190915250929550610d7c945050505050565b61026e600480360360e08110156104c757600080fd5b6001600160a01b038235169160208101359160408201359190810190608081016060820135600160201b8111156104fd57600080fd5b82018360208201111561050f57600080fd5b803590602001918460208302840111600160201b8311171561053057600080fd5b9190808060200260200160405190810160405280939291908181526020018383602002808284376000920191909152509295505082359350505060208101359060400135610f97565b61026e6004803603604081101561058f57600080fd5b81359190810190604081016020820135600160201b8111156105b057600080fd5b8201836020820111156105c257600080fd5b803590602001918460208302840111600160201b831117156105e357600080fd5b919080806020026020016040519081016040528093929190818152602001838360200280828437600092019190915250929550611342945050505050565b61026e6115ae565b6102c66004803603602081101561063f57600080fd5b5035611625565b6102c66004803603602081101561065c57600080fd5b5035611637565b61026e6004803603604081101561067957600080fd5b50803590602001356001600160a01b031661164e565b6106976116a7565b6040805160208082528351818301528351919283929083019185019080838360005b838110156106d15781810151838201526020016106b9565b50505050905090810190601f1680156106fe5780820380516001836020036101000a031916815260200191505b509250505060405180910390f35b61026e6004803603604081101561072257600080fd5b508035906020013561173c565b61026e6004803603602081101561074557600080fd5b503561193b565b60009081526004602052604090205460ff1690565b60009081526005602052604090205460ff1690565b61077e6119b0565b6000838152600260205260409020546001600160a01b039081169116146107d65760405162461bcd60e51b8152600401808060200182810382526037815260200180611ef56037913960400191505060405180910390fd5b600082815260026020908152604080832080546001600160a01b0319169055600782528083208390556003825280832083905560048252808320805460ff191690556006909152812055805180156109815760005b8181101561097f57600083828151811061084157fe5b602090810291909101810151600081815260029092526040909120549091506001600160a01b031615801590610885575060008181526004602052604090205460ff165b156108dc576000818152600460209081526040808320805460ff19169055600690915280822083905551829187917f64cd8d5daa1351ab7ef481cd86ebc8d199e153d85b6442711dbaa6ee68989eee9190a3610976565b6000818152600260205260409020546001600160a01b031615801590610911575060008181526004602052604090205460ff16155b1561094857604051819086907f69081739e741291d0f0ca163bc158eaa3775c02069512953c69e7ae7e7a1970c90600090a3610976565b604051819086907f9fd08a31a95521d410b6d20008384ec9a65bff57159bb95ad8ba86c03fda046690600090a35b5060010161082b565b505b60405183907ff02d29e4850d2beddb5886160b76b29bd18836de50f35dde5b1ce3e11ec43bb890600090a2505050565b6000908152600260205260409020546001600160a01b031690565b60009081526020819052604090206002015490565b600082815260208190526040902060020154610a04906109ff6119b0565b610d4d565b610a3f5760405162461bcd60e51b815260040180806020018281038252602f815260200180611ca0602f913960400191505060405180910390fd5b610a4982826119b4565b5050565b610a556119b0565b6001600160a01b0316816001600160a01b031614610aa45760405162461bcd60e51b815260040180806020018281038252602f815260200180611fe4602f913960400191505060405180910390fd5b610a498282611a1d565b610abb60006109ff6119b0565b610af65760405162461bcd60e51b8152600401808060200182810382526045815260200180611d036045913960600191505060405180910390fd5b60008181526008602052604090205460ff1615610b445760405162461bcd60e51b815260040180806020018281038252602d815260200180611ec8602d913960400191505060405180910390fd5b6000908152600860205260409020805460ff19166001179055565b610b79600080516020611fc48339815191526109ff6119b0565b610bb45760405162461bcd60e51b8152600401808060200182810382526037815260200180611f586037913960400191505060405180910390fd5b610bbc6119b0565b6000838152600260205260409020546001600160a01b03908116911614610c145760405162461bcd60e51b815260040180806020018281038252602c815260200180611f2c602c913960400191505060405180910390fd5b6000818152600260205260409020546001600160a01b0316610c675760405162461bcd60e51b815260040180806020018281038252603c815260200180611e8c603c913960400191505060405180910390fd5b60008281526004602052604090205460ff16610cb45760405162461bcd60e51b8152600401808060200182810382526036815260200180611d486036913960400191505060405180910390fd5b6000828152600460209081526040808320805460ff19169055600690915280822084905551829184917f09ba4d5138fa8cb519e6a82fc3d9fe09a800f44f4b25ecea405424f82ffcaca99190a35050565b60009081526007602052604090205490565b60009081526008602052604090205460ff1690565b6000828152602081905260408120610d449083611a86565b90505b92915050565b6000828152602081905260408120610d449083611a92565b600080516020611fc483398151915281565b600081565b610d96600080516020611fc48339815191526109ff6119b0565b610dd15760405162461bcd60e51b8152600401808060200182810382526037815260200180611f586037913960400191505060405180910390fd5b610dd96119b0565b6000838152600260205260409020546001600160a01b03908116911614610e315760405162461bcd60e51b815260040180806020018281038252602c815260200180611f2c602c913960400191505060405180910390fd5b80518015610f925760005b81811015610f90576000838281518110610e5257fe5b602090810291909101810151600081815260029092526040909120549091506001600160a01b031615801590610e96575060008181526004602052604090205460ff165b15610eed576000818152600460209081526040808320805460ff19169055600690915280822083905551829187917f64cd8d5daa1351ab7ef481cd86ebc8d199e153d85b6442711dbaa6ee68989eee9190a3610f87565b6000818152600260205260409020546001600160a01b031615801590610f22575060008181526004602052604090205460ff16155b15610f5957604051819086907f69081739e741291d0f0ca163bc158eaa3775c02069512953c69e7ae7e7a1970c90600090a3610f87565b604051819086907f9fd08a31a95521d410b6d20008384ec9a65bff57159bb95ad8ba86c03fda046690600090a35b50600101610e3c565b505b505050565b610fb1600080516020611fc48339815191526109ff6119b0565b610fec5760405162461bcd60e51b8152600401808060200182810382526037815260200180611f586037913960400191505060405180910390fd5b610ff582610d17565b6110305760405162461bcd60e51b8152600401808060200182810382526026815260200180611c7a6026913960400191505060405180910390fd5b6000868152600260205260409020546001600160a01b0316156110845760405162461bcd60e51b815260040180806020018281038252602c815260200180611f2c602c913960400191505060405180910390fd5b8015806110915750806001145b6110e2576040805162461bcd60e51b815260206004820181905260248201527f5370617469616c204173736574733a2077726f6e672067656f64696474797065604482015290519081900360640190fd5b60008681526003602090815260408083208690556002825280832080546001600160a01b0319166001600160a01b038c161790556007909152902082905580611143576000868152600560205260409020805460ff19166001179055611163565b8060011415611163576000868152600560205260409020805460ff191690555b846111e9576000868152600460209081526040808320805460ff1916905560068252808320899055600582529182902054825185815291820189905260ff161515818301529051849188916001600160a01b038b16917f63b20be522ec742d63054a358a08806c3d3645cddc76f3ffcd2e5a66697a47a2919081900360600190a461129e565b6000868152600460209081526040808320805460ff19166001179055878352600682528083205489845260058352928190205481518681529283019390935260ff929092161515818301529051849188916001600160a01b038b16917f63b20be522ec742d63054a358a08806c3d3645cddc76f3ffcd2e5a66697a47a2919081900360600190a4604051859087907fe4dc822b14b51bcb0daee9b2a47ad5cfe785b97988c9ba9fb18a008fa74d8d0690600090a35b835180158015906112bd575060008781526005602052604090205460ff165b156113385760005b818110156113365760008682815181106112db57fe5b602090810291909101810151600081815260049092526040808320805460ff191660011790555190925082918b917fc5188e1ad025cd9b14f9b77496a121bb77c2aca1c221401a1e92288a93ad143d9190a3506001016112c5565b505b5050505050505050565b61135c600080516020611fc48339815191526109ff6119b0565b6113975760405162461bcd60e51b8152600401808060200182810382526037815260200180611f586037913960400191505060405180910390fd5b61139f6119b0565b6000838152600260205260409020546001600160a01b039081169116146113f75760405162461bcd60e51b8152600401808060200182810382526034815260200180611ccf6034913960400191505060405180910390fd5b60008281526005602052604090205460ff166114445760405162461bcd60e51b8152600401808060200182810382526040815260200180611dc46040913960400191505060405180910390fd5b80518015610f925760005b81811015610f9057600083828151811061146557fe5b602090810291909101810151600081815260029092526040909120549091506001600160a01b0316158015906114aa575060008181526004602052604090205460ff16155b1561150c576000818152600460209081526040808320805460ff191660011790558783526006909152808220548383528183205551829187917fc5188e1ad025cd9b14f9b77496a121bb77c2aca1c221401a1e92288a93ad143d9190a36115a5565b6000818152600260205260409020546001600160a01b031615801590611540575060008181526004602052604090205460ff165b1561157757604051819086907fc2fbe5202fa3aef19d26284e739c3305170f8c2e9acf77122fc10277a492ac6b90600090a36115a5565b604051819086907f9fd08a31a95521d410b6d20008384ec9a65bff57159bb95ad8ba86c03fda046690600090a35b5060010161144f565b6115c8600080516020611fc48339815191526109ff6119b0565b156116045760405162461bcd60e51b8152600401808060200182810382526035815260200180611f8f6035913960400191505060405180910390fd5b611623600080516020611fc483398151915261161e6119b0565b610a3f565b565b60009081526003602052604090205490565b6000818152602081905260408120610d4790611aa7565b60008281526020819052604090206002015461166c906109ff6119b0565b610aa45760405162461bcd60e51b8152600401808060200182810382526030815260200180611e5c6030913960400191505060405180910390fd5b60018054604080516020601f600260001961010087891615020190951694909404938401819004810282018101909252828152606093909290918301828280156117325780601f1061170757610100808354040283529160200191611732565b820191906000526020600020905b81548152906001019060200180831161171557829003601f168201915b5050505050905090565b611756600080516020611fc48339815191526109ff6119b0565b6117915760405162461bcd60e51b8152600401808060200182810382526037815260200180611f586037913960400191505060405180910390fd5b6117996119b0565b6000838152600260205260409020546001600160a01b039081169116146117f15760405162461bcd60e51b8152600401808060200182810382526034815260200180611ccf6034913960400191505060405180910390fd5b6000818152600260205260409020546001600160a01b03166118445760405162461bcd60e51b815260040180806020018281038252602c815260200180611e30602c913960400191505060405180910390fd5b60008281526004602052604090205460ff16156118925760405162461bcd60e51b815260040180806020018281038252602c815260200180611e04602c913960400191505060405180910390fd5b60008181526005602052604090205460ff166118df5760405162461bcd60e51b8152600401808060200182810382526046815260200180611d7e6046913960600191505060405180910390fd5b6000828152600460209081526040808320805460ff191660011790558383526006909152808220548483528183205551829184917fe4dc822b14b51bcb0daee9b2a47ad5cfe785b97988c9ba9fb18a008fa74d8d069190a35050565b61194860006109ff6119b0565b6119835760405162461bcd60e51b8152600401808060200182810382526045815260200180611d036045913960600191505060405180910390fd5b6000908152600860205260409020805460ff19169055565b6000610d44836001600160a01b038416611ab2565b3390565b60008281526020819052604090206119cc908261199b565b15610a49576119d96119b0565b6001600160a01b0316816001600160a01b0316837f2f8788117e7eff1d82e926ec794901d17c78024a50270940304540a733656f0d60405160405180910390a45050565b6000828152602081905260409020611a359082611afc565b15610a4957611a426119b0565b6001600160a01b0316816001600160a01b0316837ff6391f5c32d9c69d2a47ea670b442974b53935d1edc7fd64eb21e047a839171b60405160405180910390a45050565b6000610d448383611b11565b6000610d44836001600160a01b038416611b75565b6000610d4782611b8d565b6000611abe8383611b75565b611af457508154600181810184556000848152602080822090930184905584548482528286019093526040902091909155610d47565b506000610d47565b6000610d44836001600160a01b038416611b91565b81546000908210611b535760405162461bcd60e51b8152600401808060200182810382526022815260200180611c586022913960400191505060405180910390fd5b826000018281548110611b6257fe5b9060005260206000200154905092915050565b60009081526001919091016020526040902054151590565b5490565b60008181526001830160205260408120548015611c4d5783546000198083019190810190600090879083908110611bc457fe5b9060005260206000200154905080876000018481548110611be157fe5b600091825260208083209091019290925582815260018981019092526040902090840190558654879080611c1157fe5b60019003818190600052602060002001600090559055866001016000878152602001908152602001600020600090556001945050505050610d47565b6000915050610d4756fe456e756d657261626c655365743a20696e646578206f7574206f6620626f756e64735370617469616c4173736574733a2073746f72616765206d75737420626520616c6c6f776564416363657373436f6e74726f6c3a2073656e646572206d75737420626520616e2061646d696e20746f206772616e745370617469616c4173736574733a2067656f4449444964206d757374206265206f776e6564206279206974732063726561746f725370617469616c4173736574733a206d75737420686176652061646d696e20726f6c6520746f206564697420616c6c6f776564206f6666636861696e2073746f72616765735370617469616c4173736574733a2047656f44494420646f6573206e6f742068617665206120706172656e7420746f2072656d6f76655370617469616c4173736574733a20706172656e7447656f4449444964206d7573742062652061626c6520746f20626520706172656e7420286120436f6c6c656374696f6e295370617469616c4173736574733a2067656f4449444964206d7573742062652061626c6520746f20626520706172656e7420286120436f6c6c656374696f6e295370617469616c4173736574733a2067656f444944496420616c726561647920686173206120706172656e745370617469616c4173736574733a20706172656e7447656f444944496420646f6573206e6f74206578697374416363657373436f6e74726f6c3a2073656e646572206d75737420626520616e2061646d696e20746f207265766f6b655370617469616c4173736574733a2047656f44494420746f2062652072656d6f76656420617320706172656e7420646f6573206e6f742065786973745370617469616c4173736574733a2073746f72616765206d757374206e6f7420626520616374697665207965745370617469616c4173736574733a2063616c6c6572206973206e6f74206f776e6572206f6620746865205370617469616c2041737365745370617469616c4173736574733a206964206d757374206e6f74206861766520616e206f776e6572207965745370617469616c4173736574733a206d7573742068617665206461746120737570706c69657220726f6c6520746f2072656769737465725370617469616c4173736574733a206d757374206e6f742068617665206120444154415f535550504c49455220726f6c6520796574b90ec3213bc54b34738ca7ad785b7e6275742931f3ddfa147171c27090643f3f416363657373436f6e74726f6c3a2063616e206f6e6c792072656e6f756e636520726f6c657320666f722073656c66a264697066735822122075a3c767a43da6cedee6be985e248c81d3ed55e4ae21f3ffc0ccafcbafda363a64736f6c634300060c0033",
  "immutableReferences": {},
  "source": "// SPDX-License-Identifier: APACHE OR MIT\npragma solidity ^0.6.0;\n\nimport \"@openzeppelin/contracts/access/AccessControl.sol\";\nimport \"@openzeppelin/contracts/GSN/Context.sol\";\n\n/**\n * @dev {SpatialAssets} registry\n * This contract uses {AccessControl} to lock permissioned functions using the\n * different roles - head to its documentation for details.\n *\n * The account that deploys the contract will be granted the 'DATA_SUPPLIER' as well as the default admin role, which will let it grant\n * 'DATA_SUPPLIER' roles to other accounts\n */\ncontract SpatialAssets is Context, AccessControl {\n    /**\n     * @dev Emitted when Spatial Assets of id `id` are transferred to `to``.\n     */\n    event SpatialAssetRegistered(address indexed to, bytes32 indexed geoDIDId, bytes32 indexed cid, bytes32 offChainStorage, bytes32 root, bool canBeParent);\n\n    /**\n     * @dev Emitted when Spatial Assets of id `id` are deactivated.\n     */\n    event SpatialAssetDeactivated(bytes32 indexed geoDIDId);\n\n    /**\n     * @dev Emitted when a parent geodid is added to a node\n     */\n    event ParentAdded(bytes32 indexed geoDIDId, bytes32 indexed parentGeoDIDId);\n\n    /**\n     * @dev Emitted when a children geodid is added to a node\n     */\n    event ChildrenAdded(bytes32 indexed geoDIDId, bytes32 indexed childrenGeoDIDId);\n\n    /**\n     * @dev Emitted when a parent geodid is removed from a node\n     */\n    event ParentRemoved(bytes32 indexed geoDIDId, bytes32 indexed parentGeoDIDId);\n\n    /**\n     * @dev Emitted when a children geodid is removed from a node\n     */\n    event ChildrenRemoved(bytes32 indexed geoDIDId, bytes32 indexed childrenGeoDIDId);\n\n    \n    /**\n     * @dev Emitted when a children geodid does not have a parent when trying to remove it from a parent\n     */\n    event ChildrenErrorNoParent(bytes32 indexed geoDIDId, bytes32 indexed childrenGeoDIDId);\n\n    \n    /**\n     * @dev Emitted when a children geodid does not exist\n     */\n    event ChildrenErrorNoExistence(bytes32 indexed geoDIDId, bytes32 indexed childrenGeoDIDId);\n\n    \n    /**\n     * @dev Emitted when a children geodid already has a parent but shouldn't have\n     */\n    event ChildrenErrorHasParent(bytes32 indexed geoDIDId, bytes32 indexed childrenGeoDIDId);\n\n\n    bytes32 public constant DATA_SUPPLIER = keccak256(\"DATA_SUPPLIER\");\n\n    string private _uri;\n\n    // Mapping from GeodidID to registrant\n    mapping (bytes32 => address) private _owners;\n    \n    // Mapping from GeodidID to Cid\n    mapping (bytes32 => bytes32) private _cids;\n\n    // Mapping from GeodidID to parenthood status\n    mapping (bytes32 => bool) private _hasParent;\n\n    // Mapping from GeodidID to parenthood type\n    mapping (bytes32 => bool) private _canBeParent;\n    \n    // Mapping from GeodidID to root GeoDID\n    mapping (bytes32 => bytes32) private _root;\n\n    // Mapping from id to spatial asset external storage\n    mapping (bytes32 => bytes32) private _externalStorage;\n\n    // Allowed external storages signatures\n    mapping (bytes32 => bool) private _allowedStorages;\n\n\n    /**\n     * @dev Grants `DEFAULT_ADMIN_ROLE`, `DATA_SUPPLIER` to the account that\n     * deploys the contract.\n     */\n    constructor(string memory uri) public {\n        _setURI(uri);\n        _setupRole(DEFAULT_ADMIN_ROLE, _msgSender());\n        _setupRole(DATA_SUPPLIER, _msgSender());\n\n    }\n\n    /**\n     * @dev Registers a new user with the ability to register a spatial asset.\n     */\n    function registerRole() public {\n        require(!hasRole(DATA_SUPPLIER, _msgSender()), \"SpatialAssets: must not have a DATA_SUPPLIER role yet\");\n        _setupRole(DATA_SUPPLIER, _msgSender());\n    }\n\n    /**\n     * @dev Registers a new storage that can accept GeoDID document creation\n     */\n    function enableStorage(bytes32 offChainStorage) public {\n        require(hasRole(DEFAULT_ADMIN_ROLE, _msgSender()), \"SpatialAssets: must have admin role to edit allowed offchain storages\");\n        require(_allowedStorages[offChainStorage]== false, \"SpatialAssets: storage must not be active yet\");\n        _allowedStorages[offChainStorage] = true;\n    }\n\n    /**\n     * @dev Disables an existing storage\n     */\n    function disableStorage(bytes32 offChainStorage) public {\n        require(hasRole(DEFAULT_ADMIN_ROLE, _msgSender()), \"SpatialAssets: must have admin role to edit allowed offchain storages\");\n        _allowedStorages[offChainStorage] = false;\n    }\n\n\n    /**\n     * @dev Registers one spatial asset with external storage 'data' and assigns them to `account`.\n     *\n     * Emits a {SpatialAssetRegistered} event.\n     */\n    function registerSpatialAsset(address owner, bytes32 geoDIDId, bytes32 parentGeoDIDId , bytes32[] memory childrenGeoDIDIds, bytes32 cid, bytes32 offChainStorage, uint256 geoDIDtype) public {\n        require(hasRole(DATA_SUPPLIER, _msgSender()), \"SpatialAssets: must have data supplier role to register\");\n        require(allowedStorages(offChainStorage), \"SpatialAssets: storage must be allowed\");\n        require(_owners[geoDIDId] == address(0), \"SpatialAssets: id must not have an owner yet\");\n        require(geoDIDtype  == 0 || geoDIDtype == 1, \"Spatial Assets: wrong geodidtype\");\n\n        _cids[geoDIDId] =cid;\n        _owners[geoDIDId] = owner;\n        _externalStorage[geoDIDId] = offChainStorage;\n\n        if (geoDIDtype == 0) {\n            _canBeParent[geoDIDId] = true;\n        } else if (geoDIDtype == 1) {\n            _canBeParent[geoDIDId] = false;\n        }\n\n        if (parentGeoDIDId == bytes32(0)) {\n            _hasParent[geoDIDId] = false;\n            _root[geoDIDId] = geoDIDId;\n        emit SpatialAssetRegistered(owner, geoDIDId, cid, offChainStorage, geoDIDId, _canBeParent[geoDIDId]);\n        } else {\n            _hasParent[geoDIDId] = true;\n            emit SpatialAssetRegistered(owner, geoDIDId, cid, offChainStorage, _root[parentGeoDIDId], _canBeParent[geoDIDId]);\n            emit ParentAdded(geoDIDId, parentGeoDIDId);\n        }\n\n        uint256 childrensLen = childrenGeoDIDIds.length;\n\n        if (childrensLen > 0 && _canBeParent[geoDIDId]){\n            for(uint256 j=0; j < childrensLen; j++) {\n                bytes32 childrenGeoDID = childrenGeoDIDIds[j];\n                _hasParent[childrenGeoDID] = true;\n                emit ChildrenAdded(geoDIDId, childrenGeoDID);\n            }\n        }\n    }\n\n\n    /**\n     * @dev Adds children GeoDIDs to an already existent geoDID\n     *\n     * Emits a {ChildrenAdded} event.\n     */\n    function addChildrenGeoDIDs(bytes32 geoDIDId, bytes32[] memory childrenGeoDIDIds) public {\n        require(hasRole(DATA_SUPPLIER, _msgSender()), \"SpatialAssets: must have data supplier role to register\");\n        require(_owners[geoDIDId] == _msgSender(), \"SpatialAssets: geoDIDId must be owned by its creator\");\n        require(_canBeParent[geoDIDId], \"SpatialAssets: geoDIDId must be able to be parent (a Collection)\");\n\n        uint256 childrensLen = childrenGeoDIDIds.length;\n\n        if (childrensLen > 0){\n            for(uint256 j=0; j < childrensLen; j++) {\n                bytes32 childrenGeoDID = childrenGeoDIDIds[j];\n                if (_owners[childrenGeoDID] != address(0) && !_hasParent[childrenGeoDID]) {\n                    _hasParent[childrenGeoDID] = true;\n                    _root[childrenGeoDID] = _root[geoDIDId];\n                    emit ChildrenAdded(geoDIDId, childrenGeoDID);\n                } else if (_owners[childrenGeoDID] != address(0) && _hasParent[childrenGeoDID]){\n                    emit ChildrenErrorHasParent(geoDIDId, childrenGeoDID);\n                } else {\n                    emit ChildrenErrorNoExistence(geoDIDId, childrenGeoDID);\n                }\n            }\n        }\n    }\n\n    /**\n     * @dev Adds a parent GeoDID to an already existent geoDID\n     *\n     * Emits a {ParentAdded} event.\n     */\n    function addParentGeoDID(bytes32 geoDIDId, bytes32 parentGeoDIDId) public {\n        require(hasRole(DATA_SUPPLIER, _msgSender()), \"SpatialAssets: must have data supplier role to register\");\n        require(_owners[geoDIDId] == _msgSender(), \"SpatialAssets: geoDIDId must be owned by its creator\");\n        require(_owners[parentGeoDIDId] != address(0), \"SpatialAssets: parentGeoDIDId does not exist\");\n        require(!_hasParent[geoDIDId], \"SpatialAssets: geoDIDId already has a parent\");\n        require(_canBeParent[parentGeoDIDId], \"SpatialAssets: parentGeoDIDId must be able to be parent (a Collection)\");\n\n        _hasParent[geoDIDId] = true;\n        _root[geoDIDId] = _root[parentGeoDIDId];\n        emit ParentAdded(geoDIDId, parentGeoDIDId);\n    }\n\n    \n    /**\n     * @dev Removes childrenGeoDIDs from a geoDID\n     *\n     * Emits a {ChildrenRemoved} event.\n     */\n    function removeChildrenGeoDIDs(bytes32 geoDIDId, bytes32[] memory childrenGeoDIDIds) public {\n        require(hasRole(DATA_SUPPLIER, _msgSender()), \"SpatialAssets: must have data supplier role to register\");\n        require(_owners[geoDIDId] == _msgSender(), \"SpatialAssets: id must not have an owner yet\");\n\n        uint256 childrensLen = childrenGeoDIDIds.length;\n\n        if (childrensLen > 0){\n            for(uint256 j=0; j < childrensLen; j++) {\n                bytes32 childrenGeoDID = childrenGeoDIDIds[j];\n                if (_owners[childrenGeoDID] != address(0) && _hasParent[childrenGeoDID]) {\n                    _hasParent[childrenGeoDID] = false;\n                    _root[childrenGeoDID] = childrenGeoDID;\n                    emit ChildrenRemoved(geoDIDId, childrenGeoDID);\n                } else if (_owners[childrenGeoDID] != address(0) && !_hasParent[childrenGeoDID]){\n                    emit ChildrenErrorNoParent(geoDIDId, childrenGeoDID);\n                } else {\n                    emit ChildrenErrorNoExistence(geoDIDId, childrenGeoDID);\n                }\n            }\n        }\n    }\n\n\n     /**\n     * @dev Removes a parent GeoDID from an already existent geoDID\n     *\n     * Emits a {ParentAdded} event.\n     */\n    function removeParentGeoDID(bytes32 geoDIDId, bytes32 parentGeoDIDId) public {\n        require(hasRole(DATA_SUPPLIER, _msgSender()), \"SpatialAssets: must have data supplier role to register\");\n        require(_owners[geoDIDId] == _msgSender(), \"SpatialAssets: id must not have an owner yet\");\n        require(_owners[parentGeoDIDId] != address(0), \"SpatialAssets: GeoDID to be removed as parent does not exist\");\n        require(_hasParent[geoDIDId], \"SpatialAssets: GeoDID does not have a parent to remove\");\n\n        _hasParent[geoDIDId] = false;\n        _root[geoDIDId] = geoDIDId;\n        \n        emit ParentRemoved(geoDIDId, parentGeoDIDId);\n    }\n\n    /**\n     * @dev De-registers a spatial asset\n     */\n     function deactivateSpatialAsset(bytes32 geoDIDId, bytes32[] memory childrenToRemove) public {\n        require(\n            _owners[geoDIDId] == _msgSender(),\"SpatialAssets: caller is not owner of the Spatial Asset\"\n        );\n        _owners[geoDIDId] = address(0);\n        _externalStorage[geoDIDId] = \"\";\n        _cids[geoDIDId] = \"\";\n        _hasParent[geoDIDId] = false;\n        _root[geoDIDId] = \"\";\n\n        uint256 childrensLen = childrenToRemove.length;\n\n        if (childrensLen > 0){\n            for(uint256 j=0; j < childrensLen; j++) {\n                bytes32 childrenGeoDID = childrenToRemove[j];\n                if (_owners[childrenGeoDID] != address(0) && _hasParent[childrenGeoDID]) {\n                    _hasParent[childrenGeoDID] = false;\n                    _root[childrenGeoDID] = childrenGeoDID;\n                    emit ChildrenRemoved(geoDIDId, childrenGeoDID);\n                }  else if (_owners[childrenGeoDID] != address(0) && !_hasParent[childrenGeoDID]){\n                    emit ChildrenErrorNoParent(geoDIDId, childrenGeoDID);\n                } else {\n                    emit ChildrenErrorNoExistence(geoDIDId, childrenGeoDID);\n                }\n            }\n        }\n\n        emit SpatialAssetDeactivated(geoDIDId);\n    }\n  \n    /**\n     * @dev Sets a new URI for all the spatial asset types\n     */\n    function _setURI(string memory newuri) internal {\n        _uri = newuri;\n    }\n\n    function idToOwner(bytes32 id) public view returns (address) {\n        return _owners[id];\n    }\n\n    function idToCid(bytes32 id) public view returns (bytes32) {\n        return _cids[id];\n    }\n\n    function idToCanBeParent(bytes32 id) public view returns (bool) {\n        return _canBeParent[id];\n    }\n\n    function idToHasParent(bytes32 id) public view returns (bool) {\n        return _hasParent[id];\n    }\n\n    function idToExternalStorage(bytes32 id) public view returns (bytes32) {\n        return _externalStorage[id];\n    }\n\n    function allowedStorages(bytes32 offChainStorage) public view returns (bool) {\n        return _allowedStorages[offChainStorage];\n    }\n\n    function uri() public view returns (string memory) {\n        return _uri;\n    }\n}\n",
  "sourcePath": "/home/j-mars/astralprotocol/astralprotocol/packages/contracts/contracts/SpatialAssets.sol",
  "compiler": {
    "name": "solc",
    "version": "0.6.12+commit.27d51765.Emscripten.clang"
  },
  "schemaVersion": "3.3.4",
  "updatedAt": "2021-03-28T17:58:11.968Z",
  "networkType": "ethereum",
  "devdoc": {
    "details": "{SpatialAssets} registry This contract uses {AccessControl} to lock permissioned functions using the different roles - head to its documentation for details. The account that deploys the contract will be granted the 'DATA_SUPPLIER' as well as the default admin role, which will let it grant 'DATA_SUPPLIER' roles to other accounts",
    "events": {
      "ChildrenAdded(bytes32,bytes32)": {
        "details": "Emitted when a children geodid is added to a node"
      },
      "ChildrenErrorHasParent(bytes32,bytes32)": {
        "details": "Emitted when a children geodid already has a parent but shouldn't have"
      },
      "ChildrenErrorNoExistence(bytes32,bytes32)": {
        "details": "Emitted when a children geodid does not exist"
      },
      "ChildrenErrorNoParent(bytes32,bytes32)": {
        "details": "Emitted when a children geodid does not have a parent when trying to remove it from a parent"
      },
      "ChildrenRemoved(bytes32,bytes32)": {
        "details": "Emitted when a children geodid is removed from a node"
      },
      "ParentAdded(bytes32,bytes32)": {
        "details": "Emitted when a parent geodid is added to a node"
      },
      "ParentRemoved(bytes32,bytes32)": {
        "details": "Emitted when a parent geodid is removed from a node"
      },
      "SpatialAssetDeactivated(bytes32)": {
        "details": "Emitted when Spatial Assets of id `id` are deactivated."
      },
      "SpatialAssetRegistered(address,bytes32,bytes32,bytes32,bytes32,bool)": {
        "details": "Emitted when Spatial Assets of id `id` are transferred to `to``."
      }
    },
    "kind": "dev",
    "methods": {
      "addChildrenGeoDIDs(bytes32,bytes32[])": {
        "details": "Adds children GeoDIDs to an already existent geoDID Emits a {ChildrenAdded} event."
      },
      "addParentGeoDID(bytes32,bytes32)": {
        "details": "Adds a parent GeoDID to an already existent geoDID Emits a {ParentAdded} event."
      },
      "constructor": {
        "details": "Grants `DEFAULT_ADMIN_ROLE`, `DATA_SUPPLIER` to the account that deploys the contract."
      },
      "deactivateSpatialAsset(bytes32,bytes32[])": {
        "details": "De-registers a spatial asset"
      },
      "disableStorage(bytes32)": {
        "details": "Disables an existing storage"
      },
      "enableStorage(bytes32)": {
        "details": "Registers a new storage that can accept GeoDID document creation"
      },
      "getRoleAdmin(bytes32)": {
        "details": "Returns the admin role that controls `role`. See {grantRole} and {revokeRole}. To change a role's admin, use {_setRoleAdmin}."
      },
      "getRoleMember(bytes32,uint256)": {
        "details": "Returns one of the accounts that have `role`. `index` must be a value between 0 and {getRoleMemberCount}, non-inclusive. Role bearers are not sorted in any particular way, and their ordering may change at any point. WARNING: When using {getRoleMember} and {getRoleMemberCount}, make sure you perform all queries on the same block. See the following https://forum.openzeppelin.com/t/iterating-over-elements-on-enumerableset-in-openzeppelin-contracts/2296[forum post] for more information."
      },
      "getRoleMemberCount(bytes32)": {
        "details": "Returns the number of accounts that have `role`. Can be used together with {getRoleMember} to enumerate all bearers of a role."
      },
      "grantRole(bytes32,address)": {
        "details": "Grants `role` to `account`. If `account` had not been already granted `role`, emits a {RoleGranted} event. Requirements: - the caller must have ``role``'s admin role."
      },
      "hasRole(bytes32,address)": {
        "details": "Returns `true` if `account` has been granted `role`."
      },
      "registerRole()": {
        "details": "Registers a new user with the ability to register a spatial asset."
      },
      "registerSpatialAsset(address,bytes32,bytes32,bytes32[],bytes32,bytes32,uint256)": {
        "details": "Registers one spatial asset with external storage 'data' and assigns them to `account`. Emits a {SpatialAssetRegistered} event."
      },
      "removeChildrenGeoDIDs(bytes32,bytes32[])": {
        "details": "Removes childrenGeoDIDs from a geoDID Emits a {ChildrenRemoved} event."
      },
      "removeParentGeoDID(bytes32,bytes32)": {
        "details": "Removes a parent GeoDID from an already existent geoDID Emits a {ParentAdded} event."
      },
      "renounceRole(bytes32,address)": {
        "details": "Revokes `role` from the calling account. Roles are often managed via {grantRole} and {revokeRole}: this function's purpose is to provide a mechanism for accounts to lose their privileges if they are compromised (such as when a trusted device is misplaced). If the calling account had been granted `role`, emits a {RoleRevoked} event. Requirements: - the caller must be `account`."
      },
      "revokeRole(bytes32,address)": {
        "details": "Revokes `role` from `account`. If `account` had been granted `role`, emits a {RoleRevoked} event. Requirements: - the caller must have ``role``'s admin role."
      }
    },
    "version": 1
  },
  "userdoc": {
    "kind": "user",
    "methods": {},
    "version": 1
  }
}