{
  "contractName": "SpatialAssets",
  "abi": [
    {
      "inputs": [],
      "stateMutability": "nonpayable",
      "type": "constructor"
    },
    {
      "anonymous": false,
      "inputs": [
        {
          "indexed": true,
          "internalType": "address",
          "name": "account",
          "type": "address"
        },
        {
          "indexed": true,
          "internalType": "address",
          "name": "operator",
          "type": "address"
        },
        {
          "indexed": false,
          "internalType": "bool",
          "name": "approved",
          "type": "bool"
        }
      ],
      "name": "ApprovalForAll",
      "type": "event"
    },
    {
      "anonymous": false,
      "inputs": [
        {
          "indexed": true,
          "internalType": "bytes32",
          "name": "role",
          "type": "bytes32"
        },
        {
          "indexed": true,
          "internalType": "bytes32",
          "name": "previousAdminRole",
          "type": "bytes32"
        },
        {
          "indexed": true,
          "internalType": "bytes32",
          "name": "newAdminRole",
          "type": "bytes32"
        }
      ],
      "name": "RoleAdminChanged",
      "type": "event"
    },
    {
      "anonymous": false,
      "inputs": [
        {
          "indexed": true,
          "internalType": "bytes32",
          "name": "role",
          "type": "bytes32"
        },
        {
          "indexed": true,
          "internalType": "address",
          "name": "account",
          "type": "address"
        },
        {
          "indexed": true,
          "internalType": "address",
          "name": "sender",
          "type": "address"
        }
      ],
      "name": "RoleGranted",
      "type": "event"
    },
    {
      "anonymous": false,
      "inputs": [
        {
          "indexed": true,
          "internalType": "bytes32",
          "name": "role",
          "type": "bytes32"
        },
        {
          "indexed": true,
          "internalType": "address",
          "name": "account",
          "type": "address"
        },
        {
          "indexed": true,
          "internalType": "address",
          "name": "sender",
          "type": "address"
        }
      ],
      "name": "RoleRevoked",
      "type": "event"
    },
    {
      "anonymous": false,
      "inputs": [
        {
          "indexed": true,
          "internalType": "address",
          "name": "operator",
          "type": "address"
        },
        {
          "indexed": true,
          "internalType": "address",
          "name": "from",
          "type": "address"
        },
        {
          "indexed": true,
          "internalType": "address",
          "name": "to",
          "type": "address"
        },
        {
          "indexed": false,
          "internalType": "uint256[]",
          "name": "ids",
          "type": "uint256[]"
        },
        {
          "indexed": false,
          "internalType": "uint256[]",
          "name": "values",
          "type": "uint256[]"
        }
      ],
      "name": "TransferBatch",
      "type": "event"
    },
    {
      "anonymous": false,
      "inputs": [
        {
          "indexed": true,
          "internalType": "address",
          "name": "operator",
          "type": "address"
        },
        {
          "indexed": true,
          "internalType": "address",
          "name": "from",
          "type": "address"
        },
        {
          "indexed": true,
          "internalType": "address",
          "name": "to",
          "type": "address"
        },
        {
          "indexed": false,
          "internalType": "uint256",
          "name": "id",
          "type": "uint256"
        },
        {
          "indexed": false,
          "internalType": "uint256",
          "name": "value",
          "type": "uint256"
        }
      ],
      "name": "TransferSingle",
      "type": "event"
    },
    {
      "anonymous": false,
      "inputs": [
        {
          "indexed": false,
          "internalType": "string",
          "name": "value",
          "type": "string"
        },
        {
          "indexed": true,
          "internalType": "uint256",
          "name": "id",
          "type": "uint256"
        }
      ],
      "name": "URI",
      "type": "event"
    },
    {
      "inputs": [],
      "name": "DEFAULT_ADMIN_ROLE",
      "outputs": [
        {
          "internalType": "bytes32",
          "name": "",
          "type": "bytes32"
        }
      ],
      "stateMutability": "view",
      "type": "function",
      "constant": true
    },
    {
      "inputs": [],
      "name": "MINTER_ROLE",
      "outputs": [
        {
          "internalType": "bytes32",
          "name": "",
          "type": "bytes32"
        }
      ],
      "stateMutability": "view",
      "type": "function",
      "constant": true
    },
    {
      "inputs": [
        {
          "internalType": "address",
          "name": "account",
          "type": "address"
        },
        {
          "internalType": "uint256",
          "name": "id",
          "type": "uint256"
        }
      ],
      "name": "balanceOf",
      "outputs": [
        {
          "internalType": "uint256",
          "name": "",
          "type": "uint256"
        }
      ],
      "stateMutability": "view",
      "type": "function",
      "constant": true
    },
    {
      "inputs": [
        {
          "internalType": "address[]",
          "name": "accounts",
          "type": "address[]"
        },
        {
          "internalType": "uint256[]",
          "name": "ids",
          "type": "uint256[]"
        }
      ],
      "name": "balanceOfBatch",
      "outputs": [
        {
          "internalType": "uint256[]",
          "name": "",
          "type": "uint256[]"
        }
      ],
      "stateMutability": "view",
      "type": "function",
      "constant": true
    },
    {
      "inputs": [
        {
          "internalType": "bytes32",
          "name": "role",
          "type": "bytes32"
        }
      ],
      "name": "getRoleAdmin",
      "outputs": [
        {
          "internalType": "bytes32",
          "name": "",
          "type": "bytes32"
        }
      ],
      "stateMutability": "view",
      "type": "function",
      "constant": true
    },
    {
      "inputs": [
        {
          "internalType": "bytes32",
          "name": "role",
          "type": "bytes32"
        },
        {
          "internalType": "uint256",
          "name": "index",
          "type": "uint256"
        }
      ],
      "name": "getRoleMember",
      "outputs": [
        {
          "internalType": "address",
          "name": "",
          "type": "address"
        }
      ],
      "stateMutability": "view",
      "type": "function",
      "constant": true
    },
    {
      "inputs": [
        {
          "internalType": "bytes32",
          "name": "role",
          "type": "bytes32"
        }
      ],
      "name": "getRoleMemberCount",
      "outputs": [
        {
          "internalType": "uint256",
          "name": "",
          "type": "uint256"
        }
      ],
      "stateMutability": "view",
      "type": "function",
      "constant": true
    },
    {
      "inputs": [
        {
          "internalType": "bytes32",
          "name": "role",
          "type": "bytes32"
        },
        {
          "internalType": "address",
          "name": "account",
          "type": "address"
        }
      ],
      "name": "grantRole",
      "outputs": [],
      "stateMutability": "nonpayable",
      "type": "function"
    },
    {
      "inputs": [
        {
          "internalType": "bytes32",
          "name": "role",
          "type": "bytes32"
        },
        {
          "internalType": "address",
          "name": "account",
          "type": "address"
        }
      ],
      "name": "hasRole",
      "outputs": [
        {
          "internalType": "bool",
          "name": "",
          "type": "bool"
        }
      ],
      "stateMutability": "view",
      "type": "function",
      "constant": true
    },
    {
      "inputs": [
        {
          "internalType": "address",
          "name": "account",
          "type": "address"
        },
        {
          "internalType": "address",
          "name": "operator",
          "type": "address"
        }
      ],
      "name": "isApprovedForAll",
      "outputs": [
        {
          "internalType": "bool",
          "name": "",
          "type": "bool"
        }
      ],
      "stateMutability": "view",
      "type": "function",
      "constant": true
    },
    {
      "inputs": [
        {
          "internalType": "bytes32",
          "name": "role",
          "type": "bytes32"
        },
        {
          "internalType": "address",
          "name": "account",
          "type": "address"
        }
      ],
      "name": "renounceRole",
      "outputs": [],
      "stateMutability": "nonpayable",
      "type": "function"
    },
    {
      "inputs": [
        {
          "internalType": "bytes32",
          "name": "role",
          "type": "bytes32"
        },
        {
          "internalType": "address",
          "name": "account",
          "type": "address"
        }
      ],
      "name": "revokeRole",
      "outputs": [],
      "stateMutability": "nonpayable",
      "type": "function"
    },
    {
      "inputs": [
        {
          "internalType": "address",
          "name": "from",
          "type": "address"
        },
        {
          "internalType": "address",
          "name": "to",
          "type": "address"
        },
        {
          "internalType": "uint256[]",
          "name": "ids",
          "type": "uint256[]"
        },
        {
          "internalType": "uint256[]",
          "name": "amounts",
          "type": "uint256[]"
        },
        {
          "internalType": "bytes",
          "name": "data",
          "type": "bytes"
        }
      ],
      "name": "safeBatchTransferFrom",
      "outputs": [],
      "stateMutability": "nonpayable",
      "type": "function"
    },
    {
      "inputs": [
        {
          "internalType": "address",
          "name": "from",
          "type": "address"
        },
        {
          "internalType": "address",
          "name": "to",
          "type": "address"
        },
        {
          "internalType": "uint256",
          "name": "id",
          "type": "uint256"
        },
        {
          "internalType": "uint256",
          "name": "amount",
          "type": "uint256"
        },
        {
          "internalType": "bytes",
          "name": "data",
          "type": "bytes"
        }
      ],
      "name": "safeTransferFrom",
      "outputs": [],
      "stateMutability": "nonpayable",
      "type": "function"
    },
    {
      "inputs": [
        {
          "internalType": "address",
          "name": "operator",
          "type": "address"
        },
        {
          "internalType": "bool",
          "name": "approved",
          "type": "bool"
        }
      ],
      "name": "setApprovalForAll",
      "outputs": [],
      "stateMutability": "nonpayable",
      "type": "function"
    },
    {
      "inputs": [
        {
          "internalType": "bytes4",
          "name": "interfaceId",
          "type": "bytes4"
        }
      ],
      "name": "supportsInterface",
      "outputs": [
        {
          "internalType": "bool",
          "name": "",
          "type": "bool"
        }
      ],
      "stateMutability": "view",
      "type": "function",
      "constant": true
    },
    {
      "inputs": [
        {
          "internalType": "uint256",
          "name": "",
          "type": "uint256"
        }
      ],
      "name": "uri",
      "outputs": [
        {
          "internalType": "string",
          "name": "",
          "type": "string"
        }
      ],
      "stateMutability": "view",
      "type": "function",
      "constant": true
    },
    {
      "inputs": [],
      "name": "register",
      "outputs": [],
      "stateMutability": "nonpayable",
      "type": "function"
    },
    {
      "inputs": [
        {
          "internalType": "address",
          "name": "to",
          "type": "address"
        },
        {
          "internalType": "uint256",
          "name": "id",
          "type": "uint256"
        },
        {
          "internalType": "uint256",
          "name": "amount",
          "type": "uint256"
        },
        {
          "internalType": "bytes",
          "name": "data",
          "type": "bytes"
        }
      ],
      "name": "mint",
      "outputs": [],
      "stateMutability": "nonpayable",
      "type": "function"
    },
    {
      "inputs": [
        {
          "internalType": "address",
          "name": "account",
          "type": "address"
        },
        {
          "internalType": "uint256",
          "name": "id",
          "type": "uint256"
        },
        {
          "internalType": "uint256",
          "name": "value",
          "type": "uint256"
        }
      ],
      "name": "burn",
      "outputs": [],
      "stateMutability": "nonpayable",
      "type": "function"
    },
    {
      "inputs": [
        {
          "internalType": "uint256",
          "name": "id",
          "type": "uint256"
        }
      ],
      "name": "idStatus",
      "outputs": [
        {
          "internalType": "bool",
          "name": "",
          "type": "bool"
        }
      ],
      "stateMutability": "view",
      "type": "function",
      "constant": true
    }
  ],
  "bytecode": "0x60806040523480156200001157600080fd5b506040518060400160405280600c81526020017f6469643a67656f3a7b69647d0000000000000000000000000000000000000000815250620000606301ffc9a760e01b6200010d60201b60201c565b62000071816200021660201b60201c565b6200008963d9b67a2660e01b6200010d60201b60201c565b620000a1630e89341c60e01b6200010d60201b60201c565b50620000c66000801b620000ba6200023260201b60201c565b6200023a60201b60201c565b620001077f9f2df0fed2c77648de5860a4cc508cd0818c85b8b8a1ab4ceeef8d981c8956a6620000fb6200023260201b60201c565b6200023a60201b60201c565b6200046e565b63ffffffff60e01b817bffffffffffffffffffffffffffffffffffffffffffffffffffffffff19161415620001aa576040517f08c379a000000000000000000000000000000000000000000000000000000000815260040180806020018281038252601c8152602001807f4552433136353a20696e76616c696420696e746572666163652069640000000081525060200191505060405180910390fd5b6001806000837bffffffffffffffffffffffffffffffffffffffffffffffffffffffff19167bffffffffffffffffffffffffffffffffffffffffffffffffffffffff1916815260200190815260200160002060006101000a81548160ff02191690831515021790555050565b80600490805190602001906200022e929190620003c8565b5050565b600033905090565b6200024c82826200025060201b60201c565b5050565b6200027e81600080858152602001908152602001600020600001620002f360201b620020a91790919060201c565b15620002ef57620002946200023260201b60201c565b73ffffffffffffffffffffffffffffffffffffffff168173ffffffffffffffffffffffffffffffffffffffff16837f2f8788117e7eff1d82e926ec794901d17c78024a50270940304540a733656f0d60405160405180910390a45b5050565b600062000323836000018373ffffffffffffffffffffffffffffffffffffffff1660001b6200032b60201b60201c565b905092915050565b60006200033f8383620003a560201b60201c565b6200039a5782600001829080600181540180825580915050600190039060005260206000200160009091909190915055826000018054905083600101600084815260200190815260200160002081905550600190506200039f565b600090505b92915050565b600080836001016000848152602001908152602001600020541415905092915050565b828054600181600116156101000203166002900490600052602060002090601f016020900481019282601f106200040b57805160ff19168380011785556200043c565b828001600101855582156200043c579182015b828111156200043b5782518255916020019190600101906200041e565b5b5090506200044b91906200044f565b5090565b5b808211156200046a57600081600090555060010162000450565b5090565b613581806200047e6000396000f3fe608060405234801561001057600080fd5b50600436106101365760003560e01c80639010d07c116100b8578063d53913931161007c578063d5391393146109b8578063d547741f146109d6578063dc4c485514610a24578063e985e9c514610a68578063f242432a14610ae2578063f5298aca14610bf157610136565b80639010d07c1461084257806391d14854146108a4578063a217fddf14610908578063a22cb46514610926578063ca15c8731461097657610136565b80632eb2c2d6116100ff5780632eb2c2d6146102f35780632f2ff15d1461051657806336568abe146105645780634e1273f4146105b2578063731133e91461075357610136565b8062fdd58e1461013b57806301ffc9a71461019d5780630e89341c146102005780631aa3a008146102a7578063248a9ca3146102b1575b600080fd5b6101876004803603604081101561015157600080fd5b81019080803573ffffffffffffffffffffffffffffffffffffffff16906020019092919080359060200190929190505050610c49565b6040518082815260200191505060405180910390f35b6101e8600480360360208110156101b357600080fd5b8101908080357bffffffffffffffffffffffffffffffffffffffffffffffffffffffff19169060200190929190505050610d29565b60405180821515815260200191505060405180910390f35b61022c6004803603602081101561021657600080fd5b8101908080359060200190929190505050610d91565b6040518080602001828103825283818151815260200191508051906020019080838360005b8381101561026c578082015181840152602081019050610251565b50505050905090810190601f1680156102995780820380516001836020036101000a031916815260200191505b509250505060405180910390f35b6102af610e35565b005b6102dd600480360360208110156102c757600080fd5b8101908080359060200190929190505050610f0c565b6040518082815260200191505060405180910390f35b610514600480360360a081101561030957600080fd5b81019080803573ffffffffffffffffffffffffffffffffffffffff169060200190929190803573ffffffffffffffffffffffffffffffffffffffff1690602001909291908035906020019064010000000081111561036657600080fd5b82018360208201111561037857600080fd5b8035906020019184602083028401116401000000008311171561039a57600080fd5b919080806020026020016040519081016040528093929190818152602001838360200280828437600081840152601f19601f820116905080830192505050505050509192919290803590602001906401000000008111156103fa57600080fd5b82018360208201111561040c57600080fd5b8035906020019184602083028401116401000000008311171561042e57600080fd5b919080806020026020016040519081016040528093929190818152602001838360200280828437600081840152601f19601f8201169050808301925050505050505091929192908035906020019064010000000081111561048e57600080fd5b8201836020820111156104a057600080fd5b803590602001918460018302840111640100000000831117156104c257600080fd5b91908080601f016020809104026020016040519081016040528093929190818152602001838380828437600081840152601f19601f820116905080830192505050505050509192919290505050610f2b565b005b6105626004803603604081101561052c57600080fd5b8101908080359060200190929190803573ffffffffffffffffffffffffffffffffffffffff1690602001909291905050506113b6565b005b6105b06004803603604081101561057a57600080fd5b8101908080359060200190929190803573ffffffffffffffffffffffffffffffffffffffff16906020019092919050505061143f565b005b6106fc600480360360408110156105c857600080fd5b81019080803590602001906401000000008111156105e557600080fd5b8201836020820111156105f757600080fd5b8035906020019184602083028401116401000000008311171561061957600080fd5b919080806020026020016040519081016040528093929190818152602001838360200280828437600081840152601f19601f8201169050808301925050505050505091929192908035906020019064010000000081111561067957600080fd5b82018360208201111561068b57600080fd5b803590602001918460208302840111640100000000831117156106ad57600080fd5b919080806020026020016040519081016040528093929190818152602001838360200280828437600081840152601f19601f8201169050808301925050505050505091929192905050506114d8565b6040518080602001828103825283818151815260200191508051906020019060200280838360005b8381101561073f578082015181840152602081019050610724565b505050509050019250505060405180910390f35b6108406004803603608081101561076957600080fd5b81019080803573ffffffffffffffffffffffffffffffffffffffff1690602001909291908035906020019092919080359060200190929190803590602001906401000000008111156107ba57600080fd5b8201836020820111156107cc57600080fd5b803590602001918460018302840111640100000000831117156107ee57600080fd5b91908080601f016020809104026020016040519081016040528093929190818152602001838380828437600081840152601f19601f8201169050808301925050505050505091929192905050506116ca565b005b6108786004803603604081101561085857600080fd5b810190808035906020019092919080359060200190929190505050611828565b604051808273ffffffffffffffffffffffffffffffffffffffff16815260200191505060405180910390f35b6108f0600480360360408110156108ba57600080fd5b8101908080359060200190929190803573ffffffffffffffffffffffffffffffffffffffff169060200190929190505050611859565b60405180821515815260200191505060405180910390f35b61091061188a565b6040518082815260200191505060405180910390f35b6109746004803603604081101561093c57600080fd5b81019080803573ffffffffffffffffffffffffffffffffffffffff169060200190929190803515159060200190929190505050611891565b005b6109a26004803603602081101561098c57600080fd5b8101908080359060200190929190505050611a2a565b6040518082815260200191505060405180910390f35b6109c0611a50565b6040518082815260200191505060405180910390f35b610a22600480360360408110156109ec57600080fd5b8101908080359060200190929190803573ffffffffffffffffffffffffffffffffffffffff169060200190929190505050611a74565b005b610a5060048036036020811015610a3a57600080fd5b8101908080359060200190929190505050611afd565b60405180821515815260200191505060405180910390f35b610aca60048036036040811015610a7e57600080fd5b81019080803573ffffffffffffffffffffffffffffffffffffffff169060200190929190803573ffffffffffffffffffffffffffffffffffffffff169060200190929190505050611b27565b60405180821515815260200191505060405180910390f35b610bef600480360360a0811015610af857600080fd5b81019080803573ffffffffffffffffffffffffffffffffffffffff169060200190929190803573ffffffffffffffffffffffffffffffffffffffff169060200190929190803590602001909291908035906020019092919080359060200190640100000000811115610b6957600080fd5b820183602082011115610b7b57600080fd5b80359060200191846001830284011164010000000083111715610b9d57600080fd5b91908080601f016020809104026020016040519081016040528093929190818152602001838380828437600081840152601f19601f820116905080830192505050505050509192919290505050611bbb565b005b610c4760048036036060811015610c0757600080fd5b81019080803573ffffffffffffffffffffffffffffffffffffffff1690602001909291908035906020019092919080359060200190929190505050611f30565b005b60008073ffffffffffffffffffffffffffffffffffffffff168373ffffffffffffffffffffffffffffffffffffffff161415610cd0576040517f08c379a000000000000000000000000000000000000000000000000000000000815260040180806020018281038252602b8152602001806132d9602b913960400191505060405180910390fd5b6002600083815260200190815260200160002060008473ffffffffffffffffffffffffffffffffffffffff1673ffffffffffffffffffffffffffffffffffffffff16815260200190815260200160002054905092915050565b600060016000837bffffffffffffffffffffffffffffffffffffffffffffffffffffffff19167bffffffffffffffffffffffffffffffffffffffffffffffffffffffff1916815260200190815260200160002060009054906101000a900460ff169050919050565b606060048054600181600116156101000203166002900480601f016020809104026020016040519081016040528092919081815260200182805460018160011615610100020316600290048015610e295780601f10610dfe57610100808354040283529160200191610e29565b820191906000526020600020905b815481529060010190602001808311610e0c57829003601f168201915b50505050509050919050565b610e667f9f2df0fed2c77648de5860a4cc508cd0818c85b8b8a1ab4ceeef8d981c8956a6610e616120d9565b611859565b15610ed9576040517f08c379a000000000000000000000000000000000000000000000000000000000815260040180806020018281038252601f8152602001807f4d757374206e6f7420686176652061206d696e74657220726f6c65207965740081525060200191505060405180910390fd5b610f0a7f9f2df0fed2c77648de5860a4cc508cd0818c85b8b8a1ab4ceeef8d981c8956a6610f056120d9565b6120e1565b565b6000806000838152602001908152602001600020600201549050919050565b8151835114610f85576040517f08c379a00000000000000000000000000000000000000000000000000000000081526004018080602001828103825260288152602001806134d46028913960400191505060405180910390fd5b600073ffffffffffffffffffffffffffffffffffffffff168473ffffffffffffffffffffffffffffffffffffffff16141561100b576040517f08c379a00000000000000000000000000000000000000000000000000000000081526004018080602001828103825260258152602001806133b26025913960400191505060405180910390fd5b6110136120d9565b73ffffffffffffffffffffffffffffffffffffffff168573ffffffffffffffffffffffffffffffffffffffff1614806110595750611058856110536120d9565b611b27565b5b6110ae576040517f08c379a00000000000000000000000000000000000000000000000000000000081526004018080602001828103825260328152602001806133d76032913960400191505060405180910390fd5b60006110b86120d9565b90506110c88187878787876120ef565b60005b84518110156112995760008582815181106110e257fe5b6020026020010151905060008583815181106110fa57fe5b60200260200101519050611181816040518060600160405280602a815260200161342c602a91396002600086815260200190815260200160002060008d73ffffffffffffffffffffffffffffffffffffffff1673ffffffffffffffffffffffffffffffffffffffff168152602001908152602001600020546121059092919063ffffffff16565b6002600084815260200190815260200160002060008b73ffffffffffffffffffffffffffffffffffffffff1673ffffffffffffffffffffffffffffffffffffffff16815260200190815260200160002081905550611238816002600085815260200190815260200160002060008b73ffffffffffffffffffffffffffffffffffffffff1673ffffffffffffffffffffffffffffffffffffffff168152602001908152602001600020546121c590919063ffffffff16565b6002600084815260200190815260200160002060008a73ffffffffffffffffffffffffffffffffffffffff1673ffffffffffffffffffffffffffffffffffffffff1681526020019081526020016000208190555050508060010190506110cb565b508473ffffffffffffffffffffffffffffffffffffffff168673ffffffffffffffffffffffffffffffffffffffff168273ffffffffffffffffffffffffffffffffffffffff167f4a39dc06d4c0dbc64b70af90fd698a233a518aa5d07e595d983b8c0526c8f7fb8787604051808060200180602001838103835285818151815260200191508051906020019060200280838360005b8381101561134957808201518184015260208101905061132e565b50505050905001838103825284818151815260200191508051906020019060200280838360005b8381101561138b578082015181840152602081019050611370565b5050505090500194505050505060405180910390a46113ae81878787878761224d565b505050505050565b6113dc600080848152602001908152602001600020600201546113d76120d9565b611859565b611431576040517f08c379a000000000000000000000000000000000000000000000000000000000815260040180806020018281038252602f8152602001806132aa602f913960400191505060405180910390fd5b61143b82826125dc565b5050565b6114476120d9565b73ffffffffffffffffffffffffffffffffffffffff168173ffffffffffffffffffffffffffffffffffffffff16146114ca576040517f08c379a000000000000000000000000000000000000000000000000000000000815260040180806020018281038252602f81526020018061351d602f913960400191505060405180910390fd5b6114d4828261266f565b5050565b60608151835114611534576040517f08c379a00000000000000000000000000000000000000000000000000000000081526004018080602001828103825260298152602001806134ab6029913960400191505060405180910390fd5b6060835167ffffffffffffffff8111801561154e57600080fd5b5060405190808252806020026020018201604052801561157d5781602001602082028036833780820191505090505b50905060005b84518110156116bf57600073ffffffffffffffffffffffffffffffffffffffff168582815181106115b057fe5b602002602001015173ffffffffffffffffffffffffffffffffffffffff161415611625576040517f08c379a00000000000000000000000000000000000000000000000000000000081526004018080602001828103825260318152602001806133046031913960400191505060405180910390fd5b6002600085838151811061163557fe5b60200260200101518152602001908152602001600020600086838151811061165957fe5b602002602001015173ffffffffffffffffffffffffffffffffffffffff1673ffffffffffffffffffffffffffffffffffffffff168152602001908152602001600020548282815181106116a857fe5b602002602001018181525050806001019050611583565b508091505092915050565b6116fb7f9f2df0fed2c77648de5860a4cc508cd0818c85b8b8a1ab4ceeef8d981c8956a66116f66120d9565b611859565b611750576040517f08c379a000000000000000000000000000000000000000000000000000000000815260040180806020018281038252602c815260200180613456602c913960400191505060405180910390fd5b600015156005600085815260200190815260200160002060009054906101000a900460ff161515146117ea576040517f08c379a00000000000000000000000000000000000000000000000000000000081526004018080602001828103825260138152602001807f4964206578697374732c2061626f7274696e670000000000000000000000000081525060200191505060405180910390fd5b6117f684848484612702565b60016005600085815260200190815260200160002060006101000a81548160ff02191690831515021790555050505050565b60006118518260008086815260200190815260200160002060000161290590919063ffffffff16565b905092915050565b60006118828260008086815260200190815260200160002060000161291f90919063ffffffff16565b905092915050565b6000801b81565b8173ffffffffffffffffffffffffffffffffffffffff166118b06120d9565b73ffffffffffffffffffffffffffffffffffffffff16141561191d576040517f08c379a00000000000000000000000000000000000000000000000000000000081526004018080602001828103825260298152602001806134826029913960400191505060405180910390fd5b806003600061192a6120d9565b73ffffffffffffffffffffffffffffffffffffffff1673ffffffffffffffffffffffffffffffffffffffff16815260200190815260200160002060008473ffffffffffffffffffffffffffffffffffffffff1673ffffffffffffffffffffffffffffffffffffffff16815260200190815260200160002060006101000a81548160ff0219169083151502179055508173ffffffffffffffffffffffffffffffffffffffff166119d76120d9565b73ffffffffffffffffffffffffffffffffffffffff167f17307eab39ab6107e8899845ad3d59bd9653f200f220920489ca2b5937696c318360405180821515815260200191505060405180910390a35050565b6000611a4960008084815260200190815260200160002060000161294f565b9050919050565b7f9f2df0fed2c77648de5860a4cc508cd0818c85b8b8a1ab4ceeef8d981c8956a681565b611a9a60008084815260200190815260200160002060020154611a956120d9565b611859565b611aef576040517f08c379a00000000000000000000000000000000000000000000000000000000081526004018080602001828103825260308152602001806133826030913960400191505060405180910390fd5b611af9828261266f565b5050565b60006005600083815260200190815260200160002060009054906101000a900460ff169050919050565b6000600360008473ffffffffffffffffffffffffffffffffffffffff1673ffffffffffffffffffffffffffffffffffffffff16815260200190815260200160002060008373ffffffffffffffffffffffffffffffffffffffff1673ffffffffffffffffffffffffffffffffffffffff16815260200190815260200160002060009054906101000a900460ff16905092915050565b600073ffffffffffffffffffffffffffffffffffffffff168473ffffffffffffffffffffffffffffffffffffffff161415611c41576040517f08c379a00000000000000000000000000000000000000000000000000000000081526004018080602001828103825260258152602001806133b26025913960400191505060405180910390fd5b611c496120d9565b73ffffffffffffffffffffffffffffffffffffffff168573ffffffffffffffffffffffffffffffffffffffff161480611c8f5750611c8e85611c896120d9565b611b27565b5b611ce4576040517f08c379a00000000000000000000000000000000000000000000000000000000081526004018080602001828103825260298152602001806133596029913960400191505060405180910390fd5b6000611cee6120d9565b9050611d0e818787611cff88612964565b611d0888612964565b876120ef565b611d8b836040518060600160405280602a815260200161342c602a91396002600088815260200190815260200160002060008a73ffffffffffffffffffffffffffffffffffffffff1673ffffffffffffffffffffffffffffffffffffffff168152602001908152602001600020546121059092919063ffffffff16565b6002600086815260200190815260200160002060008873ffffffffffffffffffffffffffffffffffffffff1673ffffffffffffffffffffffffffffffffffffffff16815260200190815260200160002081905550611e42836002600087815260200190815260200160002060008873ffffffffffffffffffffffffffffffffffffffff1673ffffffffffffffffffffffffffffffffffffffff168152602001908152602001600020546121c590919063ffffffff16565b6002600086815260200190815260200160002060008773ffffffffffffffffffffffffffffffffffffffff1673ffffffffffffffffffffffffffffffffffffffff168152602001908152602001600020819055508473ffffffffffffffffffffffffffffffffffffffff168673ffffffffffffffffffffffffffffffffffffffff168273ffffffffffffffffffffffffffffffffffffffff167fc3d58168c5ae7397731d063d5bbf3d657854427343f4c083240f7aacaa2d0f628787604051808381526020018281526020019250505060405180910390a4611f288187878787876129d4565b505050505050565b611f386120d9565b73ffffffffffffffffffffffffffffffffffffffff168373ffffffffffffffffffffffffffffffffffffffff161480611f7e5750611f7d83611f786120d9565b611b27565b5b611fd3576040517f08c379a00000000000000000000000000000000000000000000000000000000081526004018080602001828103825260298152602001806133596029913960400191505060405180910390fd5b600015156005600084815260200190815260200160002060009054906101000a900460ff1615151461206d576040517f08c379a000000000000000000000000000000000000000000000000000000000815260040180806020018281038252601b8152602001807f496420646f6573206e6f742065786973742c2061626f7274696e67000000000081525060200191505060405180910390fd5b612078838383612ce1565b60006005600084815260200190815260200160002060006101000a81548160ff021916908315150217905550505050565b60006120d1836000018373ffffffffffffffffffffffffffffffffffffffff1660001b612efd565b905092915050565b600033905090565b6120eb82826125dc565b5050565b6120fd868686868686612f6d565b505050505050565b60008383111582906121b2576040517f08c379a00000000000000000000000000000000000000000000000000000000081526004018080602001828103825283818151815260200191508051906020019080838360005b8381101561217757808201518184015260208101905061215c565b50505050905090810190601f1680156121a45780820380516001836020036101000a031916815260200191505b509250505060405180910390fd5b5060008385039050809150509392505050565b600080828401905083811015612243576040517f08c379a000000000000000000000000000000000000000000000000000000000815260040180806020018281038252601b8152602001807f536166654d6174683a206164646974696f6e206f766572666c6f77000000000081525060200191505060405180910390fd5b8091505092915050565b61226c8473ffffffffffffffffffffffffffffffffffffffff16612f75565b156125d4578373ffffffffffffffffffffffffffffffffffffffff1663bc197c8187878686866040518663ffffffff1660e01b8152600401808673ffffffffffffffffffffffffffffffffffffffff1681526020018573ffffffffffffffffffffffffffffffffffffffff168152602001806020018060200180602001848103845287818151815260200191508051906020019060200280838360005b83811015612324578082015181840152602081019050612309565b50505050905001848103835286818151815260200191508051906020019060200280838360005b8381101561236657808201518184015260208101905061234b565b50505050905001848103825285818151815260200191508051906020019080838360005b838110156123a557808201518184015260208101905061238a565b50505050905090810190601f1680156123d25780820380516001836020036101000a031916815260200191505b5098505050505050505050602060405180830381600087803b1580156123f757600080fd5b505af192505050801561242b57506040513d602081101561241757600080fd5b810190808051906020019092919050505060015b61253557612437613175565b8061244257506124e4565b806040517f08c379a00000000000000000000000000000000000000000000000000000000081526004018080602001828103825283818151815260200191508051906020019080838360005b838110156124a957808201518184015260208101905061248e565b50505050905090810190601f1680156124d65780820380516001836020036101000a031916815260200191505b509250505060405180910390fd5b6040517f08c379a000000000000000000000000000000000000000000000000000000000815260040180806020018281038252603481526020018061322c6034913960400191505060405180910390fd5b63bc197c8160e01b7bffffffffffffffffffffffffffffffffffffffffffffffffffffffff1916817bffffffffffffffffffffffffffffffffffffffffffffffffffffffff1916146125d2576040517f08c379a00000000000000000000000000000000000000000000000000000000081526004018080602001828103825260288152602001806132826028913960400191505060405180910390fd5b505b505050505050565b612603816000808581526020019081526020016000206000016120a990919063ffffffff16565b1561266b576126106120d9565b73ffffffffffffffffffffffffffffffffffffffff168173ffffffffffffffffffffffffffffffffffffffff16837f2f8788117e7eff1d82e926ec794901d17c78024a50270940304540a733656f0d60405160405180910390a45b5050565b61269681600080858152602001908152602001600020600001612f8890919063ffffffff16565b156126fe576126a36120d9565b73ffffffffffffffffffffffffffffffffffffffff168173ffffffffffffffffffffffffffffffffffffffff16837ff6391f5c32d9c69d2a47ea670b442974b53935d1edc7fd64eb21e047a839171b60405160405180910390a45b5050565b600073ffffffffffffffffffffffffffffffffffffffff168473ffffffffffffffffffffffffffffffffffffffff161415612788576040517f08c379a00000000000000000000000000000000000000000000000000000000081526004018080602001828103825260218152602001806134fc6021913960400191505060405180910390fd5b60006127926120d9565b90506127b3816000876127a488612964565b6127ad88612964565b876120ef565b612816836002600087815260200190815260200160002060008873ffffffffffffffffffffffffffffffffffffffff1673ffffffffffffffffffffffffffffffffffffffff168152602001908152602001600020546121c590919063ffffffff16565b6002600086815260200190815260200160002060008773ffffffffffffffffffffffffffffffffffffffff1673ffffffffffffffffffffffffffffffffffffffff168152602001908152602001600020819055508473ffffffffffffffffffffffffffffffffffffffff16600073ffffffffffffffffffffffffffffffffffffffff168273ffffffffffffffffffffffffffffffffffffffff167fc3d58168c5ae7397731d063d5bbf3d657854427343f4c083240f7aacaa2d0f628787604051808381526020018281526020019250505060405180910390a46128fe816000878787876129d4565b5050505050565b60006129148360000183612fb8565b60001c905092915050565b6000612947836000018373ffffffffffffffffffffffffffffffffffffffff1660001b61303b565b905092915050565b600061295d8260000161305e565b9050919050565b606080600167ffffffffffffffff8111801561297f57600080fd5b506040519080825280602002602001820160405280156129ae5781602001602082028036833780820191505090505b50905082816000815181106129bf57fe5b60200260200101818152505080915050919050565b6129f38473ffffffffffffffffffffffffffffffffffffffff16612f75565b15612cd9578373ffffffffffffffffffffffffffffffffffffffff1663f23a6e6187878686866040518663ffffffff1660e01b8152600401808673ffffffffffffffffffffffffffffffffffffffff1681526020018573ffffffffffffffffffffffffffffffffffffffff16815260200184815260200183815260200180602001828103825283818151815260200191508051906020019080838360005b83811015612aac578082015181840152602081019050612a91565b50505050905090810190601f168015612ad95780820380516001836020036101000a031916815260200191505b509650505050505050602060405180830381600087803b158015612afc57600080fd5b505af1925050508015612b3057506040513d6020811015612b1c57600080fd5b810190808051906020019092919050505060015b612c3a57612b3c613175565b80612b475750612be9565b806040517f08c379a00000000000000000000000000000000000000000000000000000000081526004018080602001828103825283818151815260200191508051906020019080838360005b83811015612bae578082015181840152602081019050612b93565b50505050905090810190601f168015612bdb5780820380516001836020036101000a031916815260200191505b509250505060405180910390fd5b6040517f08c379a000000000000000000000000000000000000000000000000000000000815260040180806020018281038252603481526020018061322c6034913960400191505060405180910390fd5b63f23a6e6160e01b7bffffffffffffffffffffffffffffffffffffffffffffffffffffffff1916817bffffffffffffffffffffffffffffffffffffffffffffffffffffffff191614612cd7576040517f08c379a00000000000000000000000000000000000000000000000000000000081526004018080602001828103825260288152602001806132826028913960400191505060405180910390fd5b505b505050505050565b600073ffffffffffffffffffffffffffffffffffffffff168373ffffffffffffffffffffffffffffffffffffffff161415612d67576040517f08c379a00000000000000000000000000000000000000000000000000000000081526004018080602001828103825260238152602001806134096023913960400191505060405180910390fd5b6000612d716120d9565b9050612da181856000612d8387612964565b612d8c87612964565b604051806020016040528060008152506120ef565b612e1e82604051806060016040528060248152602001613335602491396002600087815260200190815260200160002060008873ffffffffffffffffffffffffffffffffffffffff1673ffffffffffffffffffffffffffffffffffffffff168152602001908152602001600020546121059092919063ffffffff16565b6002600085815260200190815260200160002060008673ffffffffffffffffffffffffffffffffffffffff1673ffffffffffffffffffffffffffffffffffffffff16815260200190815260200160002081905550600073ffffffffffffffffffffffffffffffffffffffff168473ffffffffffffffffffffffffffffffffffffffff168273ffffffffffffffffffffffffffffffffffffffff167fc3d58168c5ae7397731d063d5bbf3d657854427343f4c083240f7aacaa2d0f628686604051808381526020018281526020019250505060405180910390a450505050565b6000612f09838361303b565b612f62578260000182908060018154018082558091505060019003906000526020600020016000909190919091505582600001805490508360010160008481526020019081526020016000208190555060019050612f67565b600090505b92915050565b505050505050565b600080823b905060008111915050919050565b6000612fb0836000018373ffffffffffffffffffffffffffffffffffffffff1660001b61306f565b905092915050565b600081836000018054905011613019576040517f08c379a00000000000000000000000000000000000000000000000000000000081526004018080602001828103825260228152602001806132606022913960400191505060405180910390fd5b82600001828154811061302857fe5b9060005260206000200154905092915050565b600080836001016000848152602001908152602001600020541415905092915050565b600081600001805490509050919050565b6000808360010160008481526020019081526020016000205490506000811461314b57600060018203905060006001866000018054905003905060008660000182815481106130ba57fe5b90600052602060002001549050808760000184815481106130d757fe5b906000526020600020018190555060018301876001016000838152602001908152602001600020819055508660000180548061310f57fe5b60019003818190600052602060002001600090559055866001016000878152602001908152602001600020600090556001945050505050613151565b60009150505b92915050565b6000601f19601f8301169050919050565b60008160e01c9050919050565b600060443d101561318557613228565b60046000803e613196600051613168565b6308c379a081146131a75750613228565b60405160043d036004823e80513d602482011167ffffffffffffffff821117156131d357505050613228565b808201805167ffffffffffffffff8111156131f2575050505050613228565b8060208301013d850181111561320d57505050505050613228565b61321682613157565b60208401016040528296505050505050505b9056fe455243313135353a207472616e7366657220746f206e6f6e2045524331313535526563656976657220696d706c656d656e746572456e756d657261626c655365743a20696e646578206f7574206f6620626f756e6473455243313135353a204552433131353552656365697665722072656a656374656420746f6b656e73416363657373436f6e74726f6c3a2073656e646572206d75737420626520616e2061646d696e20746f206772616e74455243313135353a2062616c616e636520717565727920666f7220746865207a65726f2061646472657373455243313135353a2062617463682062616c616e636520717565727920666f7220746865207a65726f2061646472657373455243313135353a206275726e20616d6f756e7420657863656564732062616c616e6365455243313135353a2063616c6c6572206973206e6f74206f776e6572206e6f7220617070726f766564416363657373436f6e74726f6c3a2073656e646572206d75737420626520616e2061646d696e20746f207265766f6b65455243313135353a207472616e7366657220746f20746865207a65726f2061646472657373455243313135353a207472616e736665722063616c6c6572206973206e6f74206f776e6572206e6f7220617070726f766564455243313135353a206275726e2066726f6d20746865207a65726f2061646472657373455243313135353a20696e73756666696369656e742062616c616e636520666f72207472616e736665725370617469616c4173736574733a206d7573742068617665206d696e74657220726f6c6520746f206d696e74455243313135353a2073657474696e6720617070726f76616c2073746174757320666f722073656c66455243313135353a206163636f756e747320616e6420696473206c656e677468206d69736d61746368455243313135353a2069647320616e6420616d6f756e7473206c656e677468206d69736d61746368455243313135353a206d696e7420746f20746865207a65726f2061646472657373416363657373436f6e74726f6c3a2063616e206f6e6c792072656e6f756e636520726f6c657320666f722073656c66a2646970667358221220b22dd6d346da96ae4b6054dd0a50c47bdff16a81b0e2ac7cf9a9824a4c113eae64736f6c634300060c0033",
  "immutableReferences": {},
  "source": "// SPDX-License-Identifier: APACHE OR MIT\npragma solidity ^0.6.0;\n\nimport \"@openzeppelin/contracts/access/AccessControl.sol\";\nimport \"@openzeppelin/contracts/GSN/Context.sol\";\nimport \"@openzeppelin/contracts/token/ERC1155/ERC1155.sol\";\n\n/**\n * @dev {ERC1155} token, including:\n *\n *  - ability for holders to burn (destroy) their tokens\n *  - a minter role that allows for token minting (creation)\n *\n * This contract uses {AccessControl} to lock permissioned functions using the\n * different roles - head to its documentation for details.\n *\n * The account that deploys the contract will be granted the minter as well as the default admin role, which will let it grant\n * minter roles to other accounts\n */\ncontract SpatialAssets is Context, AccessControl, ERC1155 {\n    bytes32 public constant MINTER_ROLE = keccak256(\"MINTER_ROLE\");\n\n    // Mapping from id to active status\n    mapping (uint256 => bool) private _activeIds;\n\n    /**\n     * @dev Grants `DEFAULT_ADMIN_ROLE`, `MINTER_ROLE` to the account that\n     * deploys the contract.\n     */\n    constructor() public ERC1155(\"did:geo:{id}\") {\n        _setupRole(DEFAULT_ADMIN_ROLE, _msgSender());\n\n        _setupRole(MINTER_ROLE, _msgSender());\n\n    }\n\n        /**\n     * @dev Registers a new user with the ability to mint.\n     */\n    function register() public virtual {\n        require(!hasRole(MINTER_ROLE, _msgSender()), \"Must not have a minter role yet\");\n        _setupRole(MINTER_ROLE, _msgSender());\n    }\n\n    /**\n     * @dev Creates `amount` new tokens for `to`, of token type `id`.\n     *\n     * See {ERC1155-_mint}.\n     *\n     * Requirements:\n     *\n     * - the caller must have the `MINTER_ROLE`.\n     */\n    function mint(address to, uint256 id, uint256 amount, bytes memory data) public virtual {\n        require(hasRole(MINTER_ROLE, _msgSender()), \"SpatialAssets: must have minter role to mint\");\n        require(_activeIds[id]==false, \"Id exists, aborting\");\n        _mint(to, id, amount, data);\n\n        _activeIds[id]=true;\n    }\n\n     function burn(address account, uint256 id, uint256 value) public virtual {\n        require(\n            account == _msgSender() || isApprovedForAll(account, _msgSender()),\n            \"ERC1155: caller is not owner nor approved\"\n        );\n        require(_activeIds[id]==false, \"Id does not exist, aborting\");\n\n        _burn(account, id, value);\n\n        _activeIds[id]=false;\n    }\n  \n\n    function _beforeTokenTransfer(\n        address operator,\n        address from,\n        address to,\n        uint256[] memory ids,\n        uint256[] memory amounts,\n        bytes memory data\n    )\n        internal virtual override(ERC1155)\n    {\n        super._beforeTokenTransfer(operator, from, to, ids, amounts, data);\n    }\n\n    function idStatus(uint256 id) public view returns (bool) {\n        return _activeIds[id];\n    }\n}\n",
  "sourcePath": "/home/j-mars/astral-dao/astralprotocol/packages/astral-protocol-contracts/contracts/SpatialAssets.sol",
  "compiler": {
    "name": "solc",
    "version": "0.6.12+commit.27d51765.Emscripten.clang"
  },
  "schemaVersion": "3.3.1",
  "updatedAt": "2020-11-21T00:15:41.977Z",
  "networkType": "ethereum",
  "devdoc": {
    "details": "{ERC1155} token, including:  - ability for holders to burn (destroy) their tokens  - a minter role that allows for token minting (creation) This contract uses {AccessControl} to lock permissioned functions using the different roles - head to its documentation for details. The account that deploys the contract will be granted the minter as well as the default admin role, which will let it grant minter roles to other accounts",
    "kind": "dev",
    "methods": {
      "balanceOf(address,uint256)": {
        "details": "See {IERC1155-balanceOf}. Requirements: - `account` cannot be the zero address."
      },
      "balanceOfBatch(address[],uint256[])": {
        "details": "See {IERC1155-balanceOfBatch}. Requirements: - `accounts` and `ids` must have the same length."
      },
      "constructor": {
        "details": "Grants `DEFAULT_ADMIN_ROLE`, `MINTER_ROLE` to the account that deploys the contract."
      },
      "getRoleAdmin(bytes32)": {
        "details": "Returns the admin role that controls `role`. See {grantRole} and {revokeRole}. To change a role's admin, use {_setRoleAdmin}."
      },
      "getRoleMember(bytes32,uint256)": {
        "details": "Returns one of the accounts that have `role`. `index` must be a value between 0 and {getRoleMemberCount}, non-inclusive. Role bearers are not sorted in any particular way, and their ordering may change at any point. WARNING: When using {getRoleMember} and {getRoleMemberCount}, make sure you perform all queries on the same block. See the following https://forum.openzeppelin.com/t/iterating-over-elements-on-enumerableset-in-openzeppelin-contracts/2296[forum post] for more information."
      },
      "getRoleMemberCount(bytes32)": {
        "details": "Returns the number of accounts that have `role`. Can be used together with {getRoleMember} to enumerate all bearers of a role."
      },
      "grantRole(bytes32,address)": {
        "details": "Grants `role` to `account`. If `account` had not been already granted `role`, emits a {RoleGranted} event. Requirements: - the caller must have ``role``'s admin role."
      },
      "hasRole(bytes32,address)": {
        "details": "Returns `true` if `account` has been granted `role`."
      },
      "isApprovedForAll(address,address)": {
        "details": "See {IERC1155-isApprovedForAll}."
      },
      "mint(address,uint256,uint256,bytes)": {
        "details": "Creates `amount` new tokens for `to`, of token type `id`. See {ERC1155-_mint}. Requirements: - the caller must have the `MINTER_ROLE`."
      },
      "register()": {
        "details": "Registers a new user with the ability to mint."
      },
      "renounceRole(bytes32,address)": {
        "details": "Revokes `role` from the calling account. Roles are often managed via {grantRole} and {revokeRole}: this function's purpose is to provide a mechanism for accounts to lose their privileges if they are compromised (such as when a trusted device is misplaced). If the calling account had been granted `role`, emits a {RoleRevoked} event. Requirements: - the caller must be `account`."
      },
      "revokeRole(bytes32,address)": {
        "details": "Revokes `role` from `account`. If `account` had been granted `role`, emits a {RoleRevoked} event. Requirements: - the caller must have ``role``'s admin role."
      },
      "safeBatchTransferFrom(address,address,uint256[],uint256[],bytes)": {
        "details": "See {IERC1155-safeBatchTransferFrom}."
      },
      "safeTransferFrom(address,address,uint256,uint256,bytes)": {
        "details": "See {IERC1155-safeTransferFrom}."
      },
      "setApprovalForAll(address,bool)": {
        "details": "See {IERC1155-setApprovalForAll}."
      },
      "supportsInterface(bytes4)": {
        "details": "See {IERC165-supportsInterface}. Time complexity O(1), guaranteed to always use less than 30 000 gas."
      },
      "uri(uint256)": {
        "details": "See {IERC1155MetadataURI-uri}. This implementation returns the same URI for *all* token types. It relies on the token type ID substitution mechanism https://eips.ethereum.org/EIPS/eip-1155#metadata[defined in the EIP]. Clients calling this function must replace the `\\{id\\}` substring with the actual token type ID."
      }
    },
    "version": 1
  },
  "userdoc": {
    "kind": "user",
    "methods": {},
    "version": 1
  }
}