{
  "contractName": "SpatialAssetRegistrar",
  "abi": [
    {
      "inputs": [],
      "stateMutability": "nonpayable",
      "type": "constructor"
    },
    {
      "anonymous": false,
      "inputs": [
        {
          "indexed": false,
          "internalType": "address",
          "name": "caller",
          "type": "address"
        },
        {
          "indexed": false,
          "internalType": "bytes32",
          "name": "hash",
          "type": "bytes32"
        },
        {
          "indexed": false,
          "internalType": "string",
          "name": "cid",
          "type": "string"
        }
      ],
      "name": "CreateGeoDID",
      "type": "event"
    },
    {
      "anonymous": false,
      "inputs": [
        {
          "indexed": false,
          "internalType": "address",
          "name": "caller",
          "type": "address"
        }
      ],
      "name": "DeleteGeoDID",
      "type": "event"
    },
    {
      "anonymous": false,
      "inputs": [
        {
          "indexed": true,
          "internalType": "address",
          "name": "previousOwner",
          "type": "address"
        },
        {
          "indexed": true,
          "internalType": "address",
          "name": "newOwner",
          "type": "address"
        }
      ],
      "name": "OwnershipTransferred",
      "type": "event"
    },
    {
      "anonymous": false,
      "inputs": [
        {
          "indexed": false,
          "internalType": "address",
          "name": "caller",
          "type": "address"
        },
        {
          "indexed": false,
          "internalType": "string",
          "name": "cid",
          "type": "string"
        }
      ],
      "name": "UpdateCID",
      "type": "event"
    },
    {
      "anonymous": false,
      "inputs": [
        {
          "indexed": false,
          "internalType": "address",
          "name": "caller",
          "type": "address"
        },
        {
          "indexed": false,
          "internalType": "bytes32",
          "name": "hash",
          "type": "bytes32"
        }
      ],
      "name": "UpdateHash",
      "type": "event"
    },
    {
      "inputs": [],
      "name": "owner",
      "outputs": [
        {
          "internalType": "address",
          "name": "",
          "type": "address"
        }
      ],
      "stateMutability": "view",
      "type": "function",
      "constant": true
    },
    {
      "inputs": [],
      "name": "renounceOwnership",
      "outputs": [],
      "stateMutability": "nonpayable",
      "type": "function"
    },
    {
      "inputs": [
        {
          "internalType": "address",
          "name": "newOwner",
          "type": "address"
        }
      ],
      "name": "transferOwnership",
      "outputs": [],
      "stateMutability": "nonpayable",
      "type": "function"
    },
    {
      "inputs": [
        {
          "internalType": "bytes32",
          "name": "_hash",
          "type": "bytes32"
        },
        {
          "internalType": "string",
          "name": "_cid",
          "type": "string"
        }
      ],
      "name": "register",
      "outputs": [],
      "stateMutability": "nonpayable",
      "type": "function"
    },
    {
      "inputs": [
        {
          "internalType": "address",
          "name": "_toBeDeleted",
          "type": "address"
        }
      ],
      "name": "deregister",
      "outputs": [],
      "stateMutability": "nonpayable",
      "type": "function"
    },
    {
      "inputs": [
        {
          "internalType": "address",
          "name": "_addr",
          "type": "address"
        },
        {
          "internalType": "bytes32",
          "name": "_hash",
          "type": "bytes32"
        }
      ],
      "name": "geoDIDResolver",
      "outputs": [
        {
          "internalType": "string",
          "name": "",
          "type": "string"
        }
      ],
      "stateMutability": "view",
      "type": "function",
      "constant": true
    }
  ],
  "bytecode": "0x608060405234801561001057600080fd5b5060006100216100c460201b60201c565b9050806000806101000a81548173ffffffffffffffffffffffffffffffffffffffff021916908373ffffffffffffffffffffffffffffffffffffffff1602179055508073ffffffffffffffffffffffffffffffffffffffff16600073ffffffffffffffffffffffffffffffffffffffff167f8be0079c531659141344cd1fd0a4f28419497f9722a3daafe3b4186f6b6457e060405160405180910390a3506100cc565b600033905090565b6113f3806100db6000396000f3fe608060405234801561001057600080fd5b50600436106100625760003560e01c8063715018a61461006757806384ac33ec146100715780638da5cb5b146100b5578063ac9af955146100e9578063cf2d31fb146101b0578063f2fde38b14610275575b600080fd5b61006f6102b9565b005b6100b36004803603602081101561008757600080fd5b81019080803573ffffffffffffffffffffffffffffffffffffffff16906020019092919050505061043f565b005b6100bd610513565b604051808273ffffffffffffffffffffffffffffffffffffffff16815260200191505060405180910390f35b610135600480360360408110156100ff57600080fd5b81019080803573ffffffffffffffffffffffffffffffffffffffff1690602001909291908035906020019092919050505061053c565b6040518080602001828103825283818151815260200191508051906020019080838360005b8381101561017557808201518184015260208101905061015a565b50505050905090810190601f1680156101a25780820380516001836020036101000a031916815260200191505b509250505060405180910390f35b610273600480360360408110156101c657600080fd5b8101908080359060200190929190803590602001906401000000008111156101ed57600080fd5b8201836020820111156101ff57600080fd5b8035906020019184600183028401116401000000008311171561022157600080fd5b91908080601f016020809104026020016040519081016040528093929190818152602001838380828437600081840152601f19601f820116905080830192505050505050509192919290505050610889565b005b6102b76004803603602081101561028b57600080fd5b81019080803573ffffffffffffffffffffffffffffffffffffffff16906020019092919050505061095c565b005b6102c1610b67565b73ffffffffffffffffffffffffffffffffffffffff1660008054906101000a900473ffffffffffffffffffffffffffffffffffffffff1673ffffffffffffffffffffffffffffffffffffffff1614610381576040517f08c379a00000000000000000000000000000000000000000000000000000000081526004018080602001828103825260208152602001807f4f776e61626c653a2063616c6c6572206973206e6f7420746865206f776e657281525060200191505060405180910390fd5b600073ffffffffffffffffffffffffffffffffffffffff1660008054906101000a900473ffffffffffffffffffffffffffffffffffffffff1673ffffffffffffffffffffffffffffffffffffffff167f8be0079c531659141344cd1fd0a4f28419497f9722a3daafe3b4186f6b6457e060405160405180910390a360008060006101000a81548173ffffffffffffffffffffffffffffffffffffffff021916908373ffffffffffffffffffffffffffffffffffffffff160217905550565b610447610b67565b73ffffffffffffffffffffffffffffffffffffffff1660008054906101000a900473ffffffffffffffffffffffffffffffffffffffff1673ffffffffffffffffffffffffffffffffffffffff1614610507576040517f08c379a00000000000000000000000000000000000000000000000000000000081526004018080602001828103825260208152602001807f4f776e61626c653a2063616c6c6572206973206e6f7420746865206f776e657281525060200191505060405180910390fd5b61051081610b6f565b50565b60008060009054906101000a900473ffffffffffffffffffffffffffffffffffffffff16905090565b60608282600160008373ffffffffffffffffffffffffffffffffffffffff1673ffffffffffffffffffffffffffffffffffffffff168152602001908152602001600020600260008473ffffffffffffffffffffffffffffffffffffffff1673ffffffffffffffffffffffffffffffffffffffff16815260200190815260200160002054815481106105c957fe5b906000526020600020906003020160000160009054906101000a900460ff1661065a576040517f08c379a00000000000000000000000000000000000000000000000000000000081526004018080602001828103825260158152602001807f67656f44494420646f6573206e6f74206578697374000000000000000000000081525060200191505060405180910390fd5b80600160003373ffffffffffffffffffffffffffffffffffffffff1673ffffffffffffffffffffffffffffffffffffffff168152602001908152602001600020600260003373ffffffffffffffffffffffffffffffffffffffff1673ffffffffffffffffffffffffffffffffffffffff16815260200190815260200160002054815481106106e457fe5b9060005260206000209060030201600101541461074c576040517f08c379a000000000000000000000000000000000000000000000000000000000815260040180806020018281038252602b815260200180611332602b913960400191505060405180910390fd5b600160008673ffffffffffffffffffffffffffffffffffffffff1673ffffffffffffffffffffffffffffffffffffffff168152602001908152602001600020600260003373ffffffffffffffffffffffffffffffffffffffff1673ffffffffffffffffffffffffffffffffffffffff16815260200190815260200160002054815481106107d557fe5b90600052602060002090600302016002018054600181600116156101000203166002900480601f01602080910402602001604051908101604052809291908181526020018280546001816001161561010002031660029004801561087a5780601f1061084f5761010080835404028352916020019161087a565b820191906000526020600020905b81548152906001019060200180831161085d57829003601f168201915b50505050509250505092915050565b600160003373ffffffffffffffffffffffffffffffffffffffff1673ffffffffffffffffffffffffffffffffffffffff168152602001908152602001600020600260003373ffffffffffffffffffffffffffffffffffffffff1673ffffffffffffffffffffffffffffffffffffffff168152602001908152602001600020548154811061091257fe5b906000526020600020906003020160000160009054906101000a900460ff161561094d5761093f82610c72565b61094881610d69565b610958565b6109578282610f8b565b5b5050565b610964610b67565b73ffffffffffffffffffffffffffffffffffffffff1660008054906101000a900473ffffffffffffffffffffffffffffffffffffffff1673ffffffffffffffffffffffffffffffffffffffff1614610a24576040517f08c379a00000000000000000000000000000000000000000000000000000000081526004018080602001828103825260208152602001807f4f776e61626c653a2063616c6c6572206973206e6f7420746865206f776e657281525060200191505060405180910390fd5b600073ffffffffffffffffffffffffffffffffffffffff168173ffffffffffffffffffffffffffffffffffffffff161415610aaa576040517f08c379a000000000000000000000000000000000000000000000000000000000815260040180806020018281038252602681526020018061135d6026913960400191505060405180910390fd5b8073ffffffffffffffffffffffffffffffffffffffff1660008054906101000a900473ffffffffffffffffffffffffffffffffffffffff1673ffffffffffffffffffffffffffffffffffffffff167f8be0079c531659141344cd1fd0a4f28419497f9722a3daafe3b4186f6b6457e060405160405180910390a3806000806101000a81548173ffffffffffffffffffffffffffffffffffffffff021916908373ffffffffffffffffffffffffffffffffffffffff16021790555050565b600033905090565b6000600160008373ffffffffffffffffffffffffffffffffffffffff1673ffffffffffffffffffffffffffffffffffffffff168152602001908152602001600020600260008473ffffffffffffffffffffffffffffffffffffffff1673ffffffffffffffffffffffffffffffffffffffff1681526020019081526020016000205481548110610bfa57fe5b906000526020600020906003020160000160006101000a81548160ff0219169083151502179055507f6fb69de1d4bdbfa2ad14024d902eec25c87e6edd4e60c6fa2c3c284bd2b1bfe981604051808273ffffffffffffffffffffffffffffffffffffffff16815260200191505060405180910390a150565b80600160003373ffffffffffffffffffffffffffffffffffffffff1673ffffffffffffffffffffffffffffffffffffffff168152602001908152602001600020600260003373ffffffffffffffffffffffffffffffffffffffff1673ffffffffffffffffffffffffffffffffffffffff1681526020019081526020016000205481548110610cfc57fe5b9060005260206000209060030201600101819055507fc42cbb7be1ccaaf63974c0159f5c5859e3c5fdb23db506b86f1c350d32f424423382604051808373ffffffffffffffffffffffffffffffffffffffff1681526020018281526020019250505060405180910390a150565b80600160003373ffffffffffffffffffffffffffffffffffffffff1673ffffffffffffffffffffffffffffffffffffffff168152602001908152602001600020600260003373ffffffffffffffffffffffffffffffffffffffff1673ffffffffffffffffffffffffffffffffffffffff1681526020019081526020016000205481548110610df357fe5b90600052602060002090600302016002019080519060200190610e17929190611294565b507fed41c2874b5e9a36072d9b2a68d9744f9a7095c117cabcf297f77964fcf6d3e733600160003373ffffffffffffffffffffffffffffffffffffffff1673ffffffffffffffffffffffffffffffffffffffff168152602001908152602001600020600260003373ffffffffffffffffffffffffffffffffffffffff1673ffffffffffffffffffffffffffffffffffffffff1681526020019081526020016000205481548110610ec357fe5b9060005260206000209060030201600201604051808373ffffffffffffffffffffffffffffffffffffffff16815260200180602001828103825283818154600181600116156101000203166002900481526020019150805460018160011615610100020316600290048015610f795780601f10610f4e57610100808354040283529160200191610f79565b820191906000526020600020905b815481529060010190602001808311610f5c57829003601f168201915b5050935050505060405180910390a150565b8180600160003373ffffffffffffffffffffffffffffffffffffffff1673ffffffffffffffffffffffffffffffffffffffff168152602001908152602001600020600260003373ffffffffffffffffffffffffffffffffffffffff1673ffffffffffffffffffffffffffffffffffffffff168152602001908152602001600020548154811061101657fe5b906000526020600020906003020160010154141561107f576040517f08c379a000000000000000000000000000000000000000000000000000000000815260040180806020018281038252603b815260200180611383603b913960400191505060405180910390fd5b604051806060016040528060011515815260200184815260200183815250600160003373ffffffffffffffffffffffffffffffffffffffff1673ffffffffffffffffffffffffffffffffffffffff168152602001908152602001600020600260003373ffffffffffffffffffffffffffffffffffffffff1673ffffffffffffffffffffffffffffffffffffffff168152602001908152602001600020548154811061112657fe5b906000526020600020906003020160008201518160000160006101000a81548160ff02191690831515021790555060208201518160010155604082015181600201908051906020019061117a929190611294565b509050507fca7ef9513180d64c0e8072cb92c12309c4d75be142029657ab83626aa55970f1338484604051808473ffffffffffffffffffffffffffffffffffffffff16815260200183815260200180602001828103825283818151815260200191508051906020019080838360005b838110156112045780820151818401526020810190506111e9565b50505050905090810190601f1680156112315780820380516001836020036101000a031916815260200191505b5094505050505060405180910390a1600260003373ffffffffffffffffffffffffffffffffffffffff1673ffffffffffffffffffffffffffffffffffffffff16815260200190815260200160002060008154809291906001019190505550505050565b828054600181600116156101000203166002900490600052602060002090601f016020900481019282601f106112d557805160ff1916838001178555611303565b82800160010185558215611303579182015b828111156113025782518255916020019190600101906112e7565b5b5090506113109190611314565b5090565b5b8082111561132d576000816000905550600101611315565b509056fe5468652067656f444944206861736820646f6573206e6f74206d61746368207468652072656769737472794f776e61626c653a206e6577206f776e657220697320746865207a65726f20616464726573735468652067656f444944206861736820776173206372656174656420696e20746865207061737420616e6420776173206465616374697661746564a264697066735822122015439c1c613d3d8e407b865a1cd83b1345302fff4c7ed6645a0de7745e43f18364736f6c634300060c0033",
  "immutableReferences": {},
  "source": "pragma solidity 0.6.12;\n\nimport \"@openzeppelin/contracts/access/Ownable.sol\";\n\n// SPDX-License-Identifier: UNLICENSED\n\ncontract SpatialAssetRegistrar is Ownable {\n    //----------------- Events ------------------\n\n    event CreateGeoDID(address caller, bytes32 hash, string cid);\n    event UpdateHash(address caller, bytes32 hash);\n    event UpdateCID(address caller, string cid);\n    event DeleteGeoDID(address caller);\n\n    //----------------- Storage -----------------\n\n    struct geoDID {\n        bool exist;\n        // 32 bytes hash after the did method name\n        bytes32 hash;\n        // content id on IPFS\n        string cid;\n    }\n\n    // an address (DID controller) registers a geoDID\n    mapping(address => geoDID[]) geoDIDs;\n    // current Id of the array in the mapping\n    mapping(address => uint256) currentGeoDIDId;\n\n    //---------------- Modifiers -----------------\n\n    modifier nonCreatedGeoDID(bytes32 hash) {\n        require(geoDIDs[msg.sender][currentGeoDIDId[msg.sender]].hash != hash, 'The geoDID hash was created in the past and was deactivated');\n        _;\n    }\n\n    modifier onlyValidGeoDID(address _addr, bytes32 hash) {\n        require(geoDIDs[_addr][currentGeoDIDId[_addr]].exist, \"geoDID does not exist\");\n        require(geoDIDs[msg.sender][currentGeoDIDId[msg.sender]].hash == hash, 'The geoDID hash does not match the registry');\n        _;\n    }\n\n    constructor() public {\n    }\n\n    //---------------- Public functions -----------------\n\n    // make this function payable and require an amount\n    function register(bytes32 _hash, string memory _cid) public {\n        if (geoDIDs[msg.sender][currentGeoDIDId[msg.sender]].exist) {\n            updateHash(_hash);\n            updateCID(_cid);\n        } else {\n            createGeoDID(_hash, _cid);\n        }\n    }\n\n    function deregister(address _toBeDeleted) public onlyOwner {\n        deleteGeoDID(_toBeDeleted);\n    }\n\n    // geoDID resolver that anyone in the internet can call to resolve the geoDID\n    function geoDIDResolver(address _addr, bytes32 _hash) public view onlyValidGeoDID(_addr, _hash) returns (string memory) {\n        return geoDIDs[_addr][currentGeoDIDId[msg.sender]].cid;\n    }\n\n    //---------------- Internal functions -----------------\n\n    function createGeoDID(bytes32 _hash, string memory _cid) internal nonCreatedGeoDID(_hash) {\n        geoDIDs[msg.sender][currentGeoDIDId[msg.sender]] = geoDID(true, _hash, _cid);\n\n        emit CreateGeoDID(msg.sender, _hash, _cid);\n\n        currentGeoDIDId[msg.sender]++;\n    }\n\n    function updateHash(bytes32 _hash) internal {\n        geoDIDs[msg.sender][currentGeoDIDId[msg.sender]].hash = _hash;\n        emit UpdateHash(msg.sender, _hash);\n    }\n\n    function updateCID(string memory _cid) internal {\n        geoDIDs[msg.sender][currentGeoDIDId[msg.sender]].cid = _cid;\n        emit UpdateCID(msg.sender, geoDIDs[msg.sender][currentGeoDIDId[msg.sender]].cid);\n    }\n\n    function deleteGeoDID(address _addr) internal {\n        geoDIDs[_addr][currentGeoDIDId[_addr]].exist = false;\n        emit DeleteGeoDID(_addr);\n    }\n\n}",
  "sourcePath": "/home/briing/astralDAO/protocol/packages/astral-contracts/contracts/SpatialAssetRegistrar.sol",
  "compiler": {
    "name": "solc",
    "version": "0.6.12+commit.27d51765.Emscripten.clang"
  },
  "schemaVersion": "3.2.5",
  "updatedAt": "2020-09-11T12:25:00.439Z",
  "networkType": "ethereum",
  "devdoc": {
    "kind": "dev",
    "methods": {
      "owner()": {
        "details": "Returns the address of the current owner."
      },
      "renounceOwnership()": {
        "details": "Leaves the contract without owner. It will not be possible to call `onlyOwner` functions anymore. Can only be called by the current owner. NOTE: Renouncing ownership will leave the contract without an owner, thereby removing any functionality that is only available to the owner."
      },
      "transferOwnership(address)": {
        "details": "Transfers ownership of the contract to a new account (`newOwner`). Can only be called by the current owner."
      }
    },
    "version": 1
  },
  "userdoc": {
    "kind": "user",
    "methods": {},
    "version": 1
  }
}