{
  "contractName": "SpatialAssetRegistrar",
  "abi": [
    {
      "inputs": [],
      "stateMutability": "nonpayable",
      "type": "constructor"
    },
    {
      "anonymous": false,
      "inputs": [
        {
          "indexed": true,
          "internalType": "address",
          "name": "caller",
          "type": "address"
        },
        {
          "indexed": false,
          "internalType": "bytes32",
          "name": "hash",
          "type": "bytes32"
        },
        {
          "indexed": false,
          "internalType": "string",
          "name": "cid",
          "type": "string"
        }
      ],
      "name": "CreateGeoDID",
      "type": "event"
    },
    {
      "anonymous": false,
      "inputs": [
        {
          "indexed": false,
          "internalType": "bytes32",
          "name": "hash",
          "type": "bytes32"
        }
      ],
      "name": "DeleteGeoDID",
      "type": "event"
    },
    {
      "anonymous": false,
      "inputs": [
        {
          "indexed": true,
          "internalType": "address",
          "name": "previousOwner",
          "type": "address"
        },
        {
          "indexed": true,
          "internalType": "address",
          "name": "newOwner",
          "type": "address"
        }
      ],
      "name": "OwnershipTransferred",
      "type": "event"
    },
    {
      "anonymous": false,
      "inputs": [
        {
          "indexed": true,
          "internalType": "address",
          "name": "caller",
          "type": "address"
        },
        {
          "indexed": false,
          "internalType": "bytes32",
          "name": "hash",
          "type": "bytes32"
        },
        {
          "indexed": false,
          "internalType": "string",
          "name": "cid",
          "type": "string"
        }
      ],
      "name": "UpdateGeoDID",
      "type": "event"
    },
    {
      "inputs": [],
      "name": "owner",
      "outputs": [
        {
          "internalType": "address",
          "name": "",
          "type": "address"
        }
      ],
      "stateMutability": "view",
      "type": "function",
      "constant": true
    },
    {
      "inputs": [],
      "name": "renounceOwnership",
      "outputs": [],
      "stateMutability": "nonpayable",
      "type": "function"
    },
    {
      "inputs": [
        {
          "internalType": "address",
          "name": "newOwner",
          "type": "address"
        }
      ],
      "name": "transferOwnership",
      "outputs": [],
      "stateMutability": "nonpayable",
      "type": "function"
    },
    {
      "inputs": [
        {
          "internalType": "bytes32",
          "name": "_hash",
          "type": "bytes32"
        },
        {
          "internalType": "string",
          "name": "_cid",
          "type": "string"
        }
      ],
      "name": "register",
      "outputs": [],
      "stateMutability": "nonpayable",
      "type": "function"
    },
    {
      "inputs": [
        {
          "internalType": "bytes32",
          "name": "_hash",
          "type": "bytes32"
        },
        {
          "internalType": "string",
          "name": "_cid",
          "type": "string"
        }
      ],
      "name": "update",
      "outputs": [],
      "stateMutability": "nonpayable",
      "type": "function"
    },
    {
      "inputs": [
        {
          "internalType": "bytes32",
          "name": "_hash",
          "type": "bytes32"
        }
      ],
      "name": "deregister",
      "outputs": [],
      "stateMutability": "nonpayable",
      "type": "function"
    },
    {
      "inputs": [
        {
          "internalType": "address",
          "name": "_addr",
          "type": "address"
        },
        {
          "internalType": "bytes32",
          "name": "_hash",
          "type": "bytes32"
        }
      ],
      "name": "geoDIDResolver",
      "outputs": [
        {
          "internalType": "string",
          "name": "",
          "type": "string"
        }
      ],
      "stateMutability": "view",
      "type": "function",
      "constant": true
    },
    {
      "inputs": [
        {
          "internalType": "bytes32",
          "name": "_hash",
          "type": "bytes32"
        }
      ],
      "name": "checkExistence",
      "outputs": [
        {
          "internalType": "bool",
          "name": "",
          "type": "bool"
        }
      ],
      "stateMutability": "view",
      "type": "function",
      "constant": true
    }
  ],
  "bytecode": "0x608060405234801561001057600080fd5b5060006100216100c460201b60201c565b9050806000806101000a81548173ffffffffffffffffffffffffffffffffffffffff021916908373ffffffffffffffffffffffffffffffffffffffff1602179055508073ffffffffffffffffffffffffffffffffffffffff16600073ffffffffffffffffffffffffffffffffffffffff167f8be0079c531659141344cd1fd0a4f28419497f9722a3daafe3b4186f6b6457e060405160405180910390a3506100cc565b600033905090565b610f3a806100db6000396000f3fe608060405234801561001057600080fd5b50600436106100885760003560e01c8063cf2d31fb1161005b578063cf2d31fb146101c0578063dd5b64de14610285578063eef66dac1461034a578063f2fde38b1461038e57610088565b8063208131541461008d578063715018a6146100bb5780638da5cb5b146100c5578063ac9af955146100f9575b600080fd5b6100b9600480360360208110156100a357600080fd5b81019080803590602001909291905050506103d2565b005b6100c36104a6565b005b6100cd61062c565b604051808273ffffffffffffffffffffffffffffffffffffffff16815260200191505060405180910390f35b6101456004803603604081101561010f57600080fd5b81019080803573ffffffffffffffffffffffffffffffffffffffff16906020019092919080359060200190929190505050610655565b6040518080602001828103825283818151815260200191508051906020019080838360005b8381101561018557808201518184015260208101905061016a565b50505050905090810190601f1680156101b25780820380516001836020036101000a031916815260200191505b509250505060405180910390f35b610283600480360360408110156101d657600080fd5b8101908080359060200190929190803590602001906401000000008111156101fd57600080fd5b82018360208201111561020f57600080fd5b8035906020019184600183028401116401000000008311171561023157600080fd5b91908080601f016020809104026020016040519081016040528093929190818152602001838380828437600081840152601f19601f8201169050808301925050505050505091929192905050506107dd565b005b6103486004803603604081101561029b57600080fd5b8101908080359060200190929190803590602001906401000000008111156102c257600080fd5b8201836020820111156102d457600080fd5b803590602001918460018302840111640100000000831117156102f657600080fd5b91908080601f016020809104026020016040519081016040528093929190818152602001838380828437600081840152601f19601f820116905080830192505050505050509192919290505050610864565b005b6103766004803603602081101561036057600080fd5b8101908080359060200190929190505050610907565b60405180821515815260200191505060405180910390f35b6103d0600480360360208110156103a457600080fd5b81019080803573ffffffffffffffffffffffffffffffffffffffff169060200190929190505050610931565b005b6103da610b3c565b73ffffffffffffffffffffffffffffffffffffffff1660008054906101000a900473ffffffffffffffffffffffffffffffffffffffff1673ffffffffffffffffffffffffffffffffffffffff161461049a576040517f08c379a00000000000000000000000000000000000000000000000000000000081526004018080602001828103825260208152602001807f4f776e61626c653a2063616c6c6572206973206e6f7420746865206f776e657281525060200191505060405180910390fd5b6104a381610b44565b50565b6104ae610b3c565b73ffffffffffffffffffffffffffffffffffffffff1660008054906101000a900473ffffffffffffffffffffffffffffffffffffffff1673ffffffffffffffffffffffffffffffffffffffff161461056e576040517f08c379a00000000000000000000000000000000000000000000000000000000081526004018080602001828103825260208152602001807f4f776e61626c653a2063616c6c6572206973206e6f7420746865206f776e657281525060200191505060405180910390fd5b600073ffffffffffffffffffffffffffffffffffffffff1660008054906101000a900473ffffffffffffffffffffffffffffffffffffffff1673ffffffffffffffffffffffffffffffffffffffff167f8be0079c531659141344cd1fd0a4f28419497f9722a3daafe3b4186f6b6457e060405160405180910390a360008060006101000a81548173ffffffffffffffffffffffffffffffffffffffff021916908373ffffffffffffffffffffffffffffffffffffffff160217905550565b60008060009054906101000a900473ffffffffffffffffffffffffffffffffffffffff16905090565b6060816002600082815260200190815260200160002060009054906101000a900460ff166106eb576040517f08c379a00000000000000000000000000000000000000000000000000000000081526004018080602001828103825260158152602001807f67656f44494420646f6573206e6f74206578697374000000000000000000000081525060200191505060405180910390fd5b600160008573ffffffffffffffffffffffffffffffffffffffff1673ffffffffffffffffffffffffffffffffffffffff16815260200190815260200160002060008481526020019081526020016000208054600181600116156101000203166002900480601f0160208091040260200160405190810160405280929190818152602001828054600181600116156101000203166002900480156107cf5780601f106107a4576101008083540402835291602001916107cf565b820191906000526020600020905b8154815290600101906020018083116107b257829003601f168201915b505050505091505092915050565b816002600082815260200190815260200160002060009054906101000a900460ff1615610855576040517f08c379a0000000000000000000000000000000000000000000000000000000008152600401808060200182810382526023815260200180610ee26023913960400191505060405180910390fd5b61085f8383610baa565b505050565b816002600082815260200190815260200160002060009054906101000a900460ff166108f8576040517f08c379a00000000000000000000000000000000000000000000000000000000081526004018080602001828103825260158152602001807f67656f44494420646f6573206e6f74206578697374000000000000000000000081525060200191505060405180910390fd5b6109028383610cfa565b505050565b60006002600083815260200190815260200160002060009054906101000a900460ff169050919050565b610939610b3c565b73ffffffffffffffffffffffffffffffffffffffff1660008054906101000a900473ffffffffffffffffffffffffffffffffffffffff1673ffffffffffffffffffffffffffffffffffffffff16146109f9576040517f08c379a00000000000000000000000000000000000000000000000000000000081526004018080602001828103825260208152602001807f4f776e61626c653a2063616c6c6572206973206e6f7420746865206f776e657281525060200191505060405180910390fd5b600073ffffffffffffffffffffffffffffffffffffffff168173ffffffffffffffffffffffffffffffffffffffff161415610a7f576040517f08c379a0000000000000000000000000000000000000000000000000000000008152600401808060200182810382526026815260200180610ebc6026913960400191505060405180910390fd5b8073ffffffffffffffffffffffffffffffffffffffff1660008054906101000a900473ffffffffffffffffffffffffffffffffffffffff1673ffffffffffffffffffffffffffffffffffffffff167f8be0079c531659141344cd1fd0a4f28419497f9722a3daafe3b4186f6b6457e060405160405180910390a3806000806101000a81548173ffffffffffffffffffffffffffffffffffffffff021916908373ffffffffffffffffffffffffffffffffffffffff16021790555050565b600033905090565b60006002600083815260200190815260200160002060006101000a81548160ff0219169083151502179055507f3cd9322e9b62685f09095d6f91ed43d0bd07789d118456ac89b45c5efff1223b816040518082815260200191505060405180910390a150565b80600160003373ffffffffffffffffffffffffffffffffffffffff1673ffffffffffffffffffffffffffffffffffffffff16815260200190815260200160002060008481526020019081526020016000209080519060200190610c0e929190610e1e565b5060016002600084815260200190815260200160002060006101000a81548160ff0219169083151502179055503373ffffffffffffffffffffffffffffffffffffffff167fca7ef9513180d64c0e8072cb92c12309c4d75be142029657ab83626aa55970f183836040518083815260200180602001828103825283818151815260200191508051906020019080838360005b83811015610cbb578082015181840152602081019050610ca0565b50505050905090810190601f168015610ce85780820380516001836020036101000a031916815260200191505b50935050505060405180910390a25050565b80600160003373ffffffffffffffffffffffffffffffffffffffff1673ffffffffffffffffffffffffffffffffffffffff16815260200190815260200160002060008481526020019081526020016000209080519060200190610d5e929190610e1e565b503373ffffffffffffffffffffffffffffffffffffffff167f8cdb4804aa415861e126363d8a491ea12c0c04282e74041c0c1a4c7c1b2bd2cf83836040518083815260200180602001828103825283818151815260200191508051906020019080838360005b83811015610ddf578082015181840152602081019050610dc4565b50505050905090810190601f168015610e0c5780820380516001836020036101000a031916815260200191505b50935050505060405180910390a25050565b828054600181600116156101000203166002900490600052602060002090601f016020900481019282601f10610e5f57805160ff1916838001178555610e8d565b82800160010185558215610e8d579182015b82811115610e8c578251825591602001919060010190610e71565b5b509050610e9a9190610e9e565b5090565b5b80821115610eb7576000816000905550600101610e9f565b509056fe4f776e61626c653a206e6577206f776e657220697320746865207a65726f20616464726573735468652067656f44494420686173682077617320616c72656164792063726561746564a264697066735822122082c6e713541e3f46ca6ef26625b5775eed264fc9b28262bcfc2dddb56bc858d464736f6c634300060c0033",
  "immutableReferences": {},
  "source": "pragma solidity 0.6.12;\n\nimport \"@openzeppelin/contracts/access/Ownable.sol\";\n\n// SPDX-License-Identifier: UNLICENSED\n\ncontract SpatialAssetRegistrar is Ownable {\n    //----------------- Events ------------------\n\n    event CreateGeoDID(address indexed caller, bytes32 hash, string cid);\n    event UpdateGeoDID(address indexed caller, bytes32 hash, string cid);\n    event DeleteGeoDID(bytes32 hash);\n\n    //----------------- Storage -----------------\n\n    /*\n    struct assetProvider {\n        address\n        bytes32 did;\n    }\n    mapping \n    */\n\n    // did:astral:3122bi312ibuo312gb31i23bi12 (hash: 3122bi312ibuo312gb31i23bi12)\n    // an address (DID controller) can register multiple geoDIDs through a bytes32 hash\n    mapping(address => mapping(bytes32 => string)) geoDIDs;\n\n    mapping(bytes32 => bool) geoDidExists;\n\n\n    //---------------- Modifiers -----------------\n\n    modifier nonCreatedGeoDID(bytes32 _hash) {\n        require(!geoDidExists[_hash], 'The geoDID hash was already created');\n        _;\n    }\n\n    modifier onlyValidGeoDID(bytes32 _hash) {\n        require(geoDidExists[_hash], \"geoDID does not exist\");\n        _;\n    }\n\n    constructor() public {\n    }\n\n    //---------------- Public functions -----------------\n\n    // make this function payable and require an amount\n    function register(bytes32 _hash, string memory _cid) public nonCreatedGeoDID(_hash){\n        createGeoDID(_hash, _cid);\n    }\n\n        // make this function payable and require an amount\n    function update(bytes32 _hash, string memory _cid) public onlyValidGeoDID(_hash) {\n        updateGeoDID(_hash, _cid);\n    }\n\n\n    function deregister(bytes32 _hash) public onlyOwner {\n        deleteGeoDID(_hash);\n    }\n\n    // geoDID resolver that anyone in the internet can call to resolve the geoDID\n    function geoDIDResolver(address _addr, bytes32 _hash) public view onlyValidGeoDID(_hash) returns (string memory) {\n        return geoDIDs[_addr][_hash];\n    }\n\n    function checkExistence(bytes32 _hash) public view returns (bool) {\n        return geoDidExists[_hash];\n    }\n\n    //---------------- Internal functions -----------------\n\n    function createGeoDID(bytes32 _hash, string memory _cid) internal {\n        geoDIDs[msg.sender][_hash] = _cid;\n        geoDidExists[_hash] = true;\n        emit CreateGeoDID(msg.sender, _hash, _cid);\n    }\n\n    function updateGeoDID(bytes32 _hash, string memory _cid) internal {\n        geoDIDs[msg.sender][_hash] = _cid;\n        emit UpdateGeoDID(msg.sender, _hash, _cid);\n    }\n\n\n    function deleteGeoDID(bytes32 _hash) internal {\n        geoDidExists[_hash] = false;\n        emit DeleteGeoDID(_hash);\n    }\n\n}",
  "sourcePath": "/home/briing/astralDAO/astralprotocol/packages/astral-protocol-contracts/contracts/SpatialAssetRegistrar.sol",
  "compiler": {
    "name": "solc",
    "version": "0.6.12+commit.27d51765.Emscripten.clang"
  },
  "schemaVersion": "3.2.5",
  "updatedAt": "2020-09-25T12:11:37.888Z",
  "networkType": "ethereum",
  "devdoc": {
    "kind": "dev",
    "methods": {
      "owner()": {
        "details": "Returns the address of the current owner."
      },
      "renounceOwnership()": {
        "details": "Leaves the contract without owner. It will not be possible to call `onlyOwner` functions anymore. Can only be called by the current owner. NOTE: Renouncing ownership will leave the contract without an owner, thereby removing any functionality that is only available to the owner."
      },
      "transferOwnership(address)": {
        "details": "Transfers ownership of the contract to a new account (`newOwner`). Can only be called by the current owner."
      }
    },
    "version": 1
  },
  "userdoc": {
    "kind": "user",
    "methods": {},
    "version": 1
  }
}